:020000040800F2
:100000000080012099340008E5340008E534000838
:10001000E5340008E5340008E5340008000000007D
:10002000000000000000000000000000F52E0008A5
:10003000E534000800000000812F0008D92F0008D7
:10004000E5340008E5340008E5340008E53400082C
:10005000E5340008E5340008E5340008E53400081C
:10006000E5340008E5340008E5340008E53400080C
:10007000E5340008E5340008E5340008E5340008FC
:10008000E5340008E5340008E5340008000000000D
:10009000000000000000000000000000E53400083F
:1000A000E5340008E5340008E5340008E5340008CC
:1000B000E5340008E5340008E5340008E5340008BC
:1000C000E5340008E5340008E5340008E5340008AC
:1000D000E5340008E5340008E534000800000000BD
:1000E000E5340008E5340008E534000800000000AD
:1000F000000000000000000000000000E5340008DF
:1001000000000000E5340008E5340008E53400088C
:1001100000000000000000000000000000000000DF
:10012000E5340008E5340008E5340008E53400084B
:10013000E53400080000000000000000000000009E
:10014000000000000000000000000000E53400088E
:10015000E5340008E5340008E5340008E53400081B
:10016000E5340008E534000800000000000000004D
:10017000000000000000000000000000000000007F
:1001800000000000E534000800000000000000004E
:10019000E534000810B5054C237833B9044B13B18E
:1001A0000448AFF300800123237010BD0404002035
:1001B00000000000A4100208084B10B51BB108484D
:1001C0000849AFF300800848036803B910BD074B26
:1001D000002BFBD0BDE81040184700BF0000000016
:1001E000A410020808040020000400200000000001
:1001F000154B002B08BF134B9D46A3F5803A0021F9
:100200008B460F461348144A121A15F008FB0F4B81
:10021000002B00D098470E4B002B00D098470020B1
:10022000002104000D000D48002802D00C4814F0F5
:10023000CBFB15F027F92000290000F09FFA14F0FD
:1002400029FC00BF00000800008001200000000021
:10025000FD1B00080404002064280020C94901088F
:10026000B14E0108024BDA685B681B0413607047EB
:100270005004002010B5054B0360044604F010FE46
:10028000204604F0D5FE204610BD00BF50E701080F
:10029000064B0748DA685B681360064B83610023EE
:1002A000C36247F2305104F003BE00BF5004002087
:1002B000200400206502000810B50446FFF7DAFFAD
:1002C000204605F0F1F9204610BD000010B50D4C98
:1002D00010222046002115F0A2FA20460A4C0521E2
:1002E00004F0CEFE204604F08FFE0023A361E362FB
:1002F000064B236020460649064ABDE8104005F03B
:10030000E8B900BF5004002020040020B0E7010835
:10031000750200089401002070B590E86000044662
:10032000B54206D0286810B103685B689847083565
:10033000F6E704F1440001F025F9206808B105F062
:10034000B3F9204670BD70B505468AB001A8E968CA
:100350004FF0FF3201F0BAFF019B102BF6D1FFF7EF
:1003600097FF029E00243368049305F1400004A91E
:100370008DF81540069407940894ADF8244000F0D9
:10038000D7FC069834710028E0D005F08DF9DDE740
:10039000F7B5054695E89000BC421AD0206803687E
:1003A0001B69984798B126798EB9206803680DF1CA
:1003B00007019B68012298479DF80730CC2B06D196
:1003C00001232371E8682146324601F05FFF0834BB
:1003D000E2E7282001F04DF9DCE7000010B5054CFC
:1003E000204605F095F920460349044ABDE810402F
:1003F00005F06FB960040020215800089401002026
:1004000070470000F8B507460E46082500247379AA
:1004100043B93146012251F8040B03689B689847A1
:100420000823737172793079AA4234BFD3B2EBB228
:1004300059B2C1EB020E8C400121DBB201FA0EF180
:1004400040FA0EFC0139ED1A4CEA04040140D21ABC
:1004500015F0FF05E4B231717271D8D1003418BFC4
:100460000124F8689FED077A80F82840002CF7EE09
:10047000007A0CBF17EE901A17EE101ABDE8F8407C
:1004800000F0A0B80000000010B5044605F00CF91B
:10049000204610BDF8B582684368934206460D4673
:1004A00006D00A7803B11A70736801337360F8BD1F
:1004B00004681B1B5A1C02D116480DF021F8002BB2
:1004C00014BF1C460124E41801D23CB101E04FF0F6
:1004D000FF34204605F0EAF8074600E0274696E894
:1004E0000C009B1ADF422A7818BFFA5496E80600DF
:1004F000551A03D038462A4615F076F9306801358A
:100500003D4408B105F0D0F83C4437607560B460F4
:10051000F8BD00BF3DE30108F7B50D460027AC89E3
:100520001E4B04F00704FE5CC4F108039BB2082BC9
:1005300011D0C3F10802D5F804E046FA02F0FF2218
:100540009A4020EA02011EF8012C0A430EF8012C01
:10055000AA8913440EE01C46E3080DD0083C02A90A
:10056000A4B246FA04F301F8013D2846FFF792FFD2
:10057000AB890833AB81EFE75CB1C4F1080302A992
:100580009E4001F8016D2846FFF784FFAB891C44AB
:10059000AC810137052FC2D103B0F0BD38E30108AB
:1005A00010B5054C204605F0B3F820460349044A2F
:1005B000BDE8104005F08DB8610400202158000806
:1005C0009401002010B500F10804204601F0BCFAA7
:1005D0004FF4967001F04DF820464FF07C5101F039
:1005E000B3FA4FF4967001F044F82046BDE810408D
:1005F00001F0B0BA7047FFF7CBBE10B5044605F066
:1006000053F8204610BDF8B5436804681C1BA410BD
:1006100014BF234601231C1907460E4602D2B4F12B
:10062000804F21D36FF04044A00005F03FF805460D
:1006300097E80C009B1ADD42326818BFEA5097E831
:100640004200761AB30803D02846324615F0CCF89B
:10065000386804362E4408B105F026F805EB84040A
:1006600087E86000BC60F8BD002CDDD12546DFE7DF
:10067000F8B5436804681C1BA41014BF234601236B
:100680001C1907460E4602D2B4F1804F21D36FF0F9
:100690004044A00005F00AF8054697E80C009B1AB4
:1006A000DD42326818BFEA5097E84200761AB30874
:1006B00003D02846324615F097F8386804362E44A1
:1006C00008B104F0F1FF05EB840487E86000BC602A
:1006D000F8BD002CDDD12546DFE7F8B54368046896
:1006E0001C1BE41014BF234601231C1907460D46AA
:1006F00002D2B4F1005F2AD36FF06044E00004F04E
:10070000D5FF064697E803000B1A16EB030E1FBF32
:100710002A68F2502B798EF80430324603468B4219
:1007200007D01AB11D6815601D791571083208339C
:10073000F5E71D1A25F007050835354408B104F022
:10074000B3FF06EBC4043E607D60BC60F8BD002CC6
:10075000D4D12646D6E7000010B5054C204604F05B
:10076000D7FF20460349044ABDE8104004F0B1BF5A
:100770008C0400202158000894010020F0B50425C5
:10078000AFB0FFF785FD8C2000F073FF013DF8D17D
:100790002C2004F08BFF534F534B858006461321CA
:1007A00040F8083B01F0BCF93B68504C13F0010FD6
:1007B00014D1384604F094FF80B138462560656056
:1007C000A560E56025616561A561E561256204F0CC
:1007D00093FF20464649474A04F07BFF236962693C
:1007E0000296934205D003B11E602369043323614E
:1007F00003E0414802A9FFF706FF102004F056FF6E
:1008000041F2112383800523C380002303813B4BE6
:100810000360226AE369C6609342039005D003B186
:100820001860E3690433E36103E0354803A9FFF787
:100830001FFF00241EAD214620222846189419943B
:100840001A9414F0ECFF2EA8042340F8483D2146EA
:100850001D9501F0FDFC1B9010B92A4804F0FEFB29
:100860002EAB26AA43F81C2D29A8289300F072FE6F
:10087000B42004F01BFF022203238DE80C00224960
:10088000224A0623044600F06FFF199B1A9904942C
:1008900000228B428DF8142005D00BB11C601A7118
:1008A0000833199303E018A804A9FFF716FF0024E2
:1008B0004FF40063164918AA8DE8180004A82346CF
:1008C00000F088FE18A8FFF73EFD04A800F0B2FE75
:1008D00004A800F0B3FE18A8FFF71EFD20462FB0B5
:1008E000F0BD00BF8804002068E301086404002014
:1008F00015090008940100207004002028E3010875
:100900007C04002076E3010870E301089BE3010802
:10091000F705000810B5044694E80C009A4212D07E
:1009200053F8040C10B103685B6898476368043B94
:100930006360F1E753F8040C10B103685B689847F3
:100940002369043B23612369E2689A42F2D108E0FB
:1009500053F8040C10B103685B689847E369043BE3
:10096000E361E369A0699842F2D108B104F09CFE0A
:10097000E06808B104F098FE206808B104F094FE25
:10098000204610BD002370B504460E4615460B7078
:1009900035B3637943B92146012251F8040B03684A
:1009A0009B6898470823637160792179A84234BF16
:1009B000C2B2EAB253B2C01A41FA00F0317899409B
:1009C000014331706079C11A01238B402179D2B281
:1009D000013B801A0B40AA1A23716071D5B2D7E788
:1009E00070BD838903F00703C3F108039BB2082B92
:1009F000F7B505460E46144617D09A42174628BF4B
:100A00001F46E41BE1404268C8B2FF21B94020EA1A
:100A10000101DB1B01FA03F312F8011C0B4302F87E
:100A2000013CAB891F44A4B2AF81E3080DD0083C60
:100A300002A9A4B226FA04F301F8013D2846FFF703
:100A400029FDAB890833AB81EFE75CB1C4F1080342
:100A500002A99E4001F8016D2846FFF71BFDAA89F7
:100A60001444AC8103B0F0BD838903F00703C3F1E4
:100A700008039BB2082BF7B505460E46144618D05E
:100A80009A42174628BF1F46E41B426841FA04F009
:100A9000FF21B94020EA0101C9B2DB1B01FA03F3CF
:100AA00012F8011C0B4302F8013CAB891F44A4B2AD
:100AB000AF81E3080DD0083C02A9A4B246FA04F3C2
:100AC00001F8013D2846FFF7E5FCAB890833AB810F
:100AD000EFE75CB1C4F1080302A99E4001F8016D83
:100AE0002846FFF7D7FCAA891444AC8103B0F0BDB7
:100AF0002DE9FF41CB688D6814465D1B4FF0000265
:100B00000E4600920192029204D0284604F0CEFDD7
:100B1000034600E02B46B168F26800931D4402953D
:100B2000551A019304D018462A4614F05DFE034678
:100B30005A192178B38AADF80C30336801926846AF
:100B400001F007012022DD68FFF74BFF218868468E
:100B5000C1F384112022FFF744FF21786846C1F3D6
:100B6000C2012022FFF73DFF1E48009905F08EF8D4
:100B70006768ADB207EB0508474506D0684617F829
:100B8000011B0822FFF770FFF6E704F1080704F1E4
:100B90000B0817F8011B68460822FFF765FF474559
:100BA000F7D1E7683D44AF4206D0684617F8011B0D
:100BB0000822FFF759FFF6E704F11005133415F882
:100BC000011B68460822FFF74FFFA542F7D13046C8
:100BD00000F0DAF8009808B104F066FD04B0BDE852
:100BE000F08100BF7C1400202DE9F047D1F800808F
:100BF00098F80C50B8F80C708CB00C460646294694
:100C000002A800F0EFF8294607A800F0EBF820460C
:100C10000DF107010322FFF7B5FE9DF808309DF89E
:100C20000720204662F302030DF1070105228DF82B
:100C30000830FFF7A7FEBDF808309DF8072003999C
:100C400062F38A1320463A46ADF8083000F0B4F853
:100C5000204604A9032200F0AFF8204605993A4641
:100C600000F0AAF8204606A9032200F0A5F8BDF876
:100C70000850DDF814A0D8F80490C5F38415504648
:100C800049462A4614F095FD90B906A8D8F80810F0
:100C9000032214F08EFD58B9504624492A4614F018
:100CA00088FD28B906A82149032214F082FD20B14D
:100CB0009DF8082012F0300F08D007A800F0AEF819
:100CC00002A800F0ABF80CB0BDE8F0879DF81C302E
:100CD000089862F302038DF81C30BDF81C30022224
:100CE00065F38A13ADF81C30494662F3C5033A46F2
:100CF0008DF81C3014F06DFDD8F8083003991A886F
:100D00000A989B78ADF824203A468DF8263014F0E6
:100D100060FD049BADF82C3030461B0C214607AA21
:100D20008DF82E30FFF7E4FEC7E700BF9EE3010811
:100D300037B505460C46084605220DF10701FFF7B9
:100D400021FE9DF8073033B1012B08D128462146FA
:100D5000FFF74AFF03E02868214600F011FB03B0CB
:100D600030BD000010B5054C204604F0D1FC2046F3
:100D70000349044ABDE8104004F0ABBC8D040020D8
:100D8000215800089401002013B502A9CC23044681
:100D900001F8013D006803680122DB68984720687C
:100DA000E268A1680368521ADB689847A368E360A9
:100DB0000023A38202B010BD006803689B68184737
:100DC00010B5054C204604F0A3FC20460349044A14
:100DD000BDE8104004F07DBC8E04002021580008BE
:100DE0009401002038B5037803F0F8036FF3C503CE
:100DF000037003886FF38A13038000230446038182
:100E000083720382837408460D4604F067FC6060B9
:100E1000284604F063FCE060204638BD10B5044667
:100E2000C06808B104F053FC606808B104F04FFCDE
:100E3000204610BD10B5054C204604F069FC204644
:100E40000349044ABDE8104004F043BC8F0400206D
:100E5000215800089401002070B50E4E346814F03B
:100E6000010415D1304604F03BFC88B10A4D3046F0
:100E70002C606C60AC60EC602C616C61AC61EC610E
:100E80002C6204F039FC28460449054A04F021FC90
:100E9000014870BD88040020640400201509000882
:100EA00094010020002370B504460E4615460B80C1
:100EB00035B3637943B92146012251F8040B036825
:100EC0009B6898470823637160792179A84234BFF1
:100ED000C2B2EAB253B2C01A41FA00F03188994066
:100EE000014331806079C11A01238B402179D2B24C
:100EF000013B801A0B40AA1A23716071D5B2D7E763
:100F000070BD37B51D46BDF8183001F10804322018
:100F10000968009001339BB220468968023200F0D4
:100F2000A3FA204629460622FFF79EFD20469DF89B
:100F30001C100222FFF798FD03B030BDF7B50C4638
:100F400007460C490C4816461D4604F089FE04F07D
:100F500065FD002201238DE80C003846214632460B
:100F60002B46FFF7CEFF204603B0BDE8F040FFF769
:100F70000BBF00BFA4E301087C140020838903F0A9
:100F80000703C3F108039BB2082BF7B505460E46CD
:100F9000144618D09A42174628BF1F46E41B4268E1
:100FA00041FA04F0FF21B94020EA0101C9B2DB1B7C
:100FB00001FA03F312F8011C0B4302F8013CAB8960
:100FC0001F44A4B2AF81E3080DD0083C02A9A4B22B
:100FD00046FA04F301F8013D2846FFF75BFAAB89B6
:100FE0000833AB81EFE75CB1C4F1080302A99E406E
:100FF00001F8016D2846FFF74DFAAA891444AC8127
:1010000003B0F0BD2DE9F3471D4682460F469146D9
:1010100001F10808FFF720FF064609C8181A8410D6
:1010200007D0B4F1804F01D30CF061FA04F03EFB1D
:10103000044696E80600521A961002D0204614F094
:10104000D3FB1B491B4804F00BFE04F0E7FC06EB46
:10105000460301339BB200930123019350462B4674
:1010600039464A46FFF74DFF4046F1B20822FFF7E6
:10107000FBFC0025B5420DD0294640460822FFF76B
:10108000B0FC54F82530404699881022FFF776FFCF
:101090000135EFE73846FFF777FE2CB1204602B066
:1010A000BDE8F04704F000BB02B0BDE8F08700BF28
:1010B000ABE301087C1400202DE9F3471D4682466E
:1010C0000F46914601F10808FFF7C6FE0369064680
:1010D000C068181A841007D0B4F1804F01D30CF007
:1010E00006FA04F0E3FA0446F1683269521A9610DF
:1010F00002D0204614F078FB1A491B4804F0B0FDDA
:1011000004F08CFC06EB460301339BB200930123F1
:10111000019350462B4639464A46FFF7F2FE4046B9
:10112000F1B20822FFF7A0FC0025B5420DD02946F8
:1011300040460822FFF755FC54F825304046998870
:101140001022FFF71BFF0135EFE73846FFF71CFEC3
:101150002CB1204602B0BDE8F04704F0A5BA02B0B9
:10116000BDE8F087B8E301087C1400202DE9F347BF
:101170001D4682460F46914601F10808FFF76CFEB6
:10118000C36906468069181A841007D0B4F1804FED
:1011900001D30CF0ACF904F089FA0446B169F269A4
:1011A000521A961002D0204614F01EFB1A491B4812
:1011B00004F056FD04F032FC06EB460301339BB20B
:1011C00000930123019350462B4639464A46FFF7C8
:1011D00098FE4046F1B20822FFF746FC0025B542D2
:1011E0000DD0294640460822FFF7FBFB54F8253076
:1011F000404699881022FFF7C1FE0135EFE73846D7
:10120000FFF7C2FD2CB1204602B0BDE8F04704F064
:101210004BBA02B0BDE8F087C7E301087C14002098
:101220002DE9F04385B00C468146904608461022D1
:101230000DF10E011F46FFF735FE1D491D4804F054
:101240000FFD04F0EBFBFFF707FE8369C269BDF8F1
:101250000E10D21AB1EBA20F04F1080612D253F805
:1012600021507DB1AB79009301230193484621467B
:101270003B464246FFF745FE2B682846DB68314671
:1012800098470FE0022201238DE80C0048462146D2
:1012900042463B46FFF735FE3046BDF80E101022A1
:1012A000FFF76CFE2046FFF76FFD05B0BDE8F08349
:1012B000D4E301087C14002073B50C46064615469D
:1012C000084606220DF10601FFF75CFB20460DF1F2
:1012D00007010222FFF756FB9DF80630042B2CD89D
:1012E000DFE803F0030B131B2300304621462A4698
:1012F0009DF80730FFF722FE29E0304621462A46B6
:101300009DF80730FFF77EFE21E0304621462A4651
:101310009DF80730FFF7D0FE19E0304621462A46F7
:101320009DF80730FFF722FF11E0304621462A469C
:101330009DF80730FFF774FF09E00649064804F0FE
:101340008FFC9DF8061004F0ECFC04F067FB02B083
:1013500070BD00BFE3E30108EC11002010B5054C9F
:10136000204604F0D5F920460349044ABDE8104060
:1013700004F0AFB990040020215800089401002027
:101380002DE9FF410C460F680322064608460DF181
:101390000301FFF7F7FA9DF804309DF8032020467B
:1013A00062F302030DF1030108228DF80430FFF708
:1013B000E9FA9DF803308DF80530002B4ED0204619
:1013C0000DF106010322FFF7F7FC20460DF109019C
:1013D0000322FFF7F1FC0023ADF80C3010256379F0
:1013E00043B92146012251F8040B03689B689847D2
:1013F000082363716279BDF80C0094F804E0AA42F6
:1014000034BFD3B2EBB259B2C1EB020C8840012118
:10141000DBB201FA0CF14EFA0CF80139ED1A48EA88
:10142000000001EA0E01D21A15F0FF05ADF80C001C
:1014300021716271D3D10DF10900B968032214F052
:10144000B8F930B90DF109000649032214F0B1F9D9
:1014500020B13068214601AAFFF72EFF04B0BDE895
:10146000F08100BF9EE301082DE9F34105460F46D8
:101470001446002105221E46FFF7F6FA28460021F1
:101480000322FFF7F1FA28469DF820100822FFF703
:10149000EBFA07F1030817F8011B28460822FFF7AB
:1014A000E3FA4745F7D1E71C14F8011B2846082248
:1014B000FFF7DAFABC42F7D1AC8904F00704C4F1B3
:1014C00008039BB2082B11D06868C3F11001FF22FA
:1014D0009A4046FA01F121EA020210F8011C0A437F
:1014E00000F8012CAA89083413440EE01024E30804
:1014F0000DD0083C02A9A4B246FA04F301F8013D5C
:101500002846FEF7C7FFAB890833AB81EFE75CB134
:10151000C4F1080302A99E4001F8016D2846FEF7B8
:10152000B9FFAB891C44AC8102B0BDE8F08100007A
:1015300010B5054C204604F0EBF820460349044A58
:10154000BDE8104004F0C5B89104002021580008FF
:101550009401002038B500F10805044600210C2252
:10156000284614F05CF9204640F8045F00F008FDBE
:10157000206010B9024803F071FD204638BD00BF5D
:101580001AE4010810B50446006800F015FD204675
:1015900010BD70B500F1080504460E460822284625
:1015A000002114F03CF92046314640F8045F00F079
:1015B00065FD2060204670BD006800F07DBD0068BC
:1015C00000F088BD10B50446006800F0A1FD20467B
:1015D00010BD000070B5049D0446059825611646AF
:1015E000124A2260A160A381AD0810B1606100239E
:1015F00009E0B5F1FE5F94BFA8004FF0FF3004F0A2
:101600006DF80123606184F84C300023AB4205D0B3
:101610006269074942F823100133F7E704F1080033
:10162000314600F007FC6060204670BD48E40108C8
:10163000A52E5AE2406800F01BBC000010B5074B15
:1016400003600446FFF7F6FF94F84C301BB1606965
:1016500008B104F03CF8204610BD00BF48E4010882
:1016600010B50446FFF7EAFF204604F01DF82046B7
:1016700010BD00F013BC7047D0F89020D0F8A03017
:10168000D0F898109B1AD0F894209B10521A013B66
:10169000D0F8841002EB4323D0F88C20521AD342A6
:1016A00014BF0120002070474A680B6812F0010F38
:1016B0004FEA620218BF8158104418BFCB58184730
:1016C00010B5044603F0F0FF204610BD08B51030F9
:1016D00003F09AFB003018BF012008BDF8B506469C
:1016E0000C4615468F18BC420CD006F1100003F0D2
:1016F0008BFB0028F9D006F1640014F8011B03F0FD
:1017000051FCF0E72846F8BDF8B5044616460D46EC
:101710008F18BD4226D004F1A4004FF0FF31FFF72F
:101720004BFFD4F884301B7805F8013BD4F88C20AB
:10173000D4F88430013A934201D001330FE0D4F859
:10174000880003F0B1FFD4F890301A1DC4F890203F
:101750005B68C4F8883003F50072C4F88C20C4F8C4
:101760008430D6E73046F8BD2DE9F041C3602F4BF9
:10177000416004469DF9181082609DF91C2040F8D4
:10178000103B002303F0F0FA00250823C4F8803052
:10179000E567C4F88450C4F88850C4F88C50C4F885
:1017A0009050C4F89450C4F89850C4F89C50C4F8B1
:1017B000A050202003F07AFFD4F88060E067013E5B
:1017C0007608074600EB86084FF4007003F06EFFC2
:1017D00047F82600C4F8908057F82620C4F88820DF
:1017E00002F50073C4F88C30C4F8A08057F8263096
:1017F000C4F8983003F50071C4F89C10C4F8842034
:10180000C4F89430294604F1A400FFF7C2FE084B47
:101810006363084B246304F11400A56363642946E1
:10182000012203F0B3F92046BDE8F08158E4010835
:1018300029190008A91600082DE9F047426A056831
:1018400043680F46511BA3EBA1010129044656D85A
:101850004169561AB610013606F10108B3EB480F7C
:1018600015D9C8EB03035B0805EB830504328D42F1
:10187000A2EB010203D293082FD0284604E093087C
:101880002BD0C2EB8600284413F0AEFF25E0002BDE
:1018900014BF99464FF0010902339944B9F1804FC2
:1018A00001D30BF024FE4FEA890003F0FFFE626AC9
:1018B00061690432C8EB0905521A6D089308824623
:1018C00000EB850502D0284613F08EFF206803F058
:1018D000EBFEC4F800A0C4F8049065612B68E360D7
:1018E00006F1804603F50073013E236105EB860394
:1018F000636255F82630E36103F5007323624FF409
:101900000070656A03F0D2FE6860A3693A7803B19B
:101910001A70636A1A1D62625B68E36103F5007204
:101920002262A361BDE8F08737B5044604F11000D8
:1019300003F066FA30B304F1640003F03FFBD4F81F
:101940009C20D4F89430013AC5B293428DF80750E8
:1019500007D003B11D70D4F894300133C4F894302B
:1019600005E004F17C000DF10701FFF765FF04F1CC
:10197000A400FFF724FE2946034804F066F904F0AA
:101980004DF8D3E703B030BD7C14002010B5064BF2
:10199000036003F118024C330446426583655430FA
:1019A00003F0EEFA204610BDE0E60108A0F1540075
:1019B000FFF7ECBFA0F15800FFF7E8BF70B50F4B81
:1019C000044640F8A43BFFF7FDFDE36FD4F89050C8
:1019D000D4F8A0605BB10436B5422B4604D2186837
:1019E000043503F061FEF7E7E06F03F05DFE04F1FC
:1019F0001000FFF7CBFF204670BD00BF58E4010880
:101A000010B50446FFF7DAFF204603F04DFE2046EE
:101A100010BD10B50446FFF7B9FF204603F044FEA1
:101A2000204610BDA0F15400F3E7A0F15800F0E704
:101A300010B5054C204603F06BFE20460349044ACE
:101A4000BDE8104003F045BE920400202158000874
:101A50009401002000000000D0B52DED028BD0EDE8
:101A6000058A044618EE900A08EE101A1BF0E6FDEF
:101A700002460B461BF084FC064618EE100A0F4681
:101A80001BF0DCFD0022244B1BF078FC02460B46C9
:101A9000304639461BF026FE1CF006F907EE100A08
:101AA000F1EE687AB4EEE77AF1EE10FA08D4B4EE0B
:101AB000E87AF1EE10FAD4BFF0EE477AF0EE687AE9
:101AC00017EE900A1BF0BAFD11A3D3E900231BF017
:101AD00057FC1CF0E9F80146204602F037FFB5EE4E
:101AE000C08AF1EE10FA09D4F7EE007AB4EEE78A74
:101AF000F1EE10FAD8BFF0EE487A01E0DFED077A98
:101B0000C4ED077ABDEC028BD0BD00BFAFF30080FF
:101B1000FA7E6ABC7493583F0000E03F000000006A
:101B200010B5044602F056FE054B6361054BA361F8
:101B300020464FF07C51FFF78FFF204610BD00BFBD
:101B40006F12033A0000344210B50446FFF784FFD9
:101B5000204610BD002102F043BD0000436AF0B5ED
:101B6000C46A23F0030323445A0748BF043B4FF0E1
:101B7000807203E90600A3F14005A3F14402A3F13A
:101B80000C06002742F8047FB242FAD1C26943F83A
:101B9000202CC3788562012B18BF024B016318BF4C
:101BA0002360F0BDA52E5AE290F82020836A0AB186
:101BB000603300E020331960704710B590F8204082
:101BC000836A0CB1603300E0203383E8060010BD67
:101BD000FEE701F019BA08B101F016BA704700002B
:101BE0000449054AC1F1005303F5BE339360D16047
:101BF000704700BF642800209801002000200021C9
:101C000004460D46094812F0DFFE13F03BFC204667
:101C1000294600F073F8FFF7E3FF0548002100F0C4
:101C200009F900F07FF812F035FF0000B14E01080D
:101C30009801002038B1830704D10378002B18BF26
:101C4000002070470020704700B5DFF80CC000DFAF
:101C5000DFF808C000DFFEE7011E0008191E0008BB
:101C60000B4A136830B5002433B11D89A94203D350
:101C70001C46491B1B68F7E789B20360018113B159
:101C80001D89691A19810CB1206030BD106030BD0A
:101C9000800F0020431C11D00B4B984211D80B4BE6
:101CA0001B684FF47A715A1E01FB0020B0FBF3F061
:101CB0004FF6FE73984228BF184670474FF6FF70E4
:101CC00070474FF6FE70704700093D0074E401084C
:101CD00038B5084C257855B901F04EF8064B1B680D
:101CE000FF229A702846FFF776FF01232370002019
:101CF00038BD00BF7C0F0020C80F002010B5EFF3E7
:101D000005845CB9EFF31484E40703D4BDE8104004
:101D1000FFF7DEBFDFF808C000DF10BD822010BD76
:101D2000D11C000810B588B0EFF3058434BBEFF385
:101D3000148404F00304022C0CD0032C16D0012CC4
:101D40001ED008AC84F309880F4C2478E40705D52D
:101D5000022404E00C4C2478E4070BD4032484F31D
:101D60001488BFF34F8FBFF36F8F03E0064C2478C6
:101D7000E40705D4DFF814C000DF02E0822000E0B1
:101D8000FF2008B010BD00BF72E401085521000813
:101D90002DE9F8438946044650B1036843B185886C
:101DA000EB1C9BB2062B03D883680BB1C2682AB91F
:101DB0008020FFF710FF0020BDE8F8834363C26373
:101DC00000F1100600F0F2FE0B4F00F1FF38291D64
:101DD00047F82860C9B22268E074C4F82C903046F5
:101DE00000F0F6FE304600F011FF57F82800034AD5
:101DF000836A5A63BDE8F883180D0020491C000867
:101E000008B500F03FFF18B10138024B53F820002D
:101E100008BD00BF180D002008B5FFF70BFF38B153
:101E2000C07800F071FFFF280CBF8120002008BDA2
:101E3000802008BD70B505460C46EFF3058686B9CF
:101E4000EFF31486F60706D4074E36781EB9BDE8C0
:101E50007040FFF79DBF28462146DFF810C000DF25
:101E600070BD002070BD00BF840F0020911D0008D0
:101E700010B5EFF305841CB9DFF808C000DF10BD12
:101E8000822010BD191E000808B530B1FFF702FF0F
:101E900080B200F0FDFF402008BD08BD10B5EFF393
:101EA00005841CB9DFF808C000DF10BD822010BD1A
:101EB000891E0008830704D128B10369C1681B6823
:101EC00003E0002300E0034619461846704700006F
:101ED000F8B5134B1C681F460CB32389013B2381C3
:101EE0002389E3B90F4B26681D683E6055B12B78F6
:101EF000012B07D1284600F0F3FB18B128462146F4
:101F000000F0F2FB6379012B04D120466189FFF7D1
:101F1000A7FE01E0012323710EB13446E0E7F8BDCE
:101F2000800F0020780F002010B504460846DFF827
:101F30000CC000DF84E80300204610BDB51E000879
:101F400010B520B98020FFF746FE002010BD0468C0
:101F5000002CF7D02378002BF4D1204600F081FC30
:101F6000204610BD10B510F0030407D130B103783E
:101F7000032B03D100F07EFC204610BD802010BD55
:101F800030B50446EFF305857DB9EFF31485ED0711
:101F900006D4074D2D781DB9BDE83040FFF7D0BFFE
:101FA0002046DFF810C000DF30BD002030BD00BF8C
:101FB000840F0020411F000810B5EFF305841CB901
:101FC000DFF808C000DF10BD822010BD651F0008CB
:101FD00038B520B98020FFF7FEFD002038BD046829
:101FE000002CF7D02578002DF4D1B1F5803F01DB2E
:101FF0008620F0E7204689B200F0AAFC204638BDD2
:1020000038B510F0030405460FD170B10378022BE8
:102010000BD10846FFF73EFE81B2284600F0E2FCF5
:10202000012805D06888013038BD4FF0FF3038BD39
:10203000204638BD10B510F003040CD158B1027819
:10204000022A08D142884FF6FF739A4205D000F069
:10205000B3FC204610BD802010BD812010BD10B5FE
:1020600010F0030407D130B10378022B03D100F044
:1020700075FC204610BD802010BD000070B50546DF
:102080000C46EFF3058686B9EFF31486F60706D4FF
:10209000074E36781EB9BDE87040FFF799BF284655
:1020A0002146DFF810C000DF70BD002070BD00BF0A
:1020B000840F0020D11F000810B5EFF305841CB970
:1020C000DFF80CC000DF10BD4FF0FF3010BD000086
:1020D0000120000838B5EFF305847CB110F003044B
:1020E00010D178B10378022B0CD142884FF6FF73E0
:1020F0009A4209D000F092FC204638BDDFF80CC0AF
:1021000000DF38BD802038BD812038BD3520000873
:1021100010B5EFF305841CB9DFF808C000DF10BD6F
:10212000822010BD5F20000810B5044618B1016878
:1021300009B1406820B98020FFF74DFD002010BD97
:102140000378002BF7D10431890089B200F020FA1E
:10215000606810BD38B5104D2C78D4B921460F48B1
:10216000FFF7E2FF0E4B214618600E48FFF710FE06
:102170000D4B21461860204600F08CFD0B4A136879
:102180009B6A203383F30988146000F063FE012307
:102190002B70002038BD00BF840F0020DC01002020
:1021A000780F0020E4010020740F0020C80F0020E9
:1021B00070B50E461546044688B10378012B0ED142
:1021C0001046FFF767FD314682B2204600F0EEF977
:1021D000012806D1002D14BFC120812070BD8020B0
:1021E00070BD002070BD2DE9F04F0C4685B08046D3
:1021F000E8B10378012B1FD10846FFF74BFD02A978
:1022000082B2404600F01AFA012806D10020002CC4
:102210000246034618BF402003E000200246034662
:102220001020029904460D4616461F4608E08024F9
:1022300005460646074603E0002580242E462F4625
:102240002046294632463B4605B0BDE8F08F0000E7
:1022500070B505460C46EFF3058686B9EFF3148694
:10226000F60706D4074E36781EB9BDE87040FFF772
:102270005BBF28462146DFF810C000DF70BD00209C
:1022800070BD00BF840F002029210008F8B5054665
:102290000E461446EFF305876FB180B17AB9037823
:1022A000012B0CD100F01CFA58B12846314600F041
:1022B0001BFA2046F8BDDFF810C000DFF8BD802013
:1022C000F8BD8120F8BD0000B12100087FB50446AB
:1022D00016460846EFF30581A9B101AD00B10AB178
:1022E00080230AE00378012BFAD102A900F003FA57
:1022F000042801D0019601E01023019395E807001E
:1023000084E8070005E01146DFF80CC000DF84E830
:102310000700204604B070BDE72100087FB50A4BD6
:1023200003A819684FF0FF32FFF7D0FF039B102B73
:10233000F5D101A80499FFF7F7FD019B002BEED022
:1023400002989847EBE700BF780F002010B5038B89
:1023500042781943062A04460183438B04D101EADB
:1023600003029A4219D105E0052A16D111EA0302A7
:1023700013D0428321EA03012183204600F0D4F8E0
:102380000123204663700821628BFFF716FC21466B
:102390000248BDE8104000F003B810BDA00F0020B7
:1023A00030B502788C784368013AD2B22BB19D786F
:1023B000A54202D318465B68F8E7022A4B604160E9
:1023C00003D803B19960886030BD00238B6030BDB5
:1023D00002784368013A59684160022A4FF00002CE
:1023E00004D809B188605A609A6000E05A601846C3
:1023F00070470000034B5A684260002282605860B8
:10240000704700BFA00F0020114BDA6810B50AB169
:102410009A8A0CE000248A1AC460D86003619A8208
:10242000848210BD002CF5D0A38A1A4423468A4228
:10243000DC68F7D3C460D860C468036104B120616C
:10244000521A92B28282998A8A1A9A8210BD00BF69
:10245000880F002038B5194DEB68002B2CD0AB8AC3
:10246000013BAB82AA8A002A26D1144BDC681CB33C
:10247000A3683BB161685960616809B18B606260B3
:102480000023A3600E482146FFF78AFFA38AAB8290
:102490006378042B01BF0B4B1A68E38A9B1808BFB3
:1024A000A38201236370E368EB60002213B1034948
:1024B0001961E2602261D5E738BD00BF880F0020B6
:1024C000A00F002004100020836853B9084B5A68FD
:1024D000824202D142685A6070471346002AF6D100
:1024E000704742685A60426802B19360704700BF0B
:1024F000A00F002038B58468054624B94378012B25
:102500000ED1084C03E023780BB9A468FBE72846FA
:10251000FFF7DAFF20462946BDE83840FFF740BF05
:1025200038BD00BFA00F0020036910B573B1C268A9
:10253000DA60C2683AB1998A848A21449982136127
:102540000023C36000E09A820023036110BD0000F5
:1025500030B50E4BDD78EFF3108272B69A78AA424E
:1025600007D201329A701A78541CAC4208BF00247A
:102570001C7062B6AA4204D203EBC2035860996091
:1025800030BD0220BDE83040FFF723BB940C002093
:10259000012310390370890800234370837043605E
:1025A000038143818381C18170470000F8B546688B
:1025B00003460C4617468EB14278012A0ED1FFF72A
:1025C00007FF102105462246FFF7F7FA2846FFF7D6
:1025D000ABFF284600F01AFB0020F8BD9989D88986
:1025E000814214D137B3144D26B118462968FFF73C
:1025F000D7FE05E02968596002224E608B605A7050
:102600002B683846DC61082100F022FB12E01A89B1
:10261000151D43F82540EFF3108472B601319981FE
:1026200062B6013292B282424FF0000014BF1A81AA
:102630001881F8BD0120F8BDC80F002070B585894C
:1026400004461646002D34D043891A1D013350F834
:1026500022200A60C2899BB29A42438104BF0023B0
:1026600043814368EBB14378022B1AD1FFF7B0FEE8
:1026700000210546FFF798FA2389E9691A1D0133FD
:1026800044F82210E2899BB29A42238108BF0023BA
:10269000284608BF2381FFF747FF284600F0B6FA17
:1026A00005E0EFF3108372B6013DA58162B600200C
:1026B00070BD82B14268094B1AB11968FFF770FE0C
:1026C00005E01B6843605A60986001234370304600
:1026D000082100F0BDFA012070BD00BFC80F002026
:1026E000C2898089101A704708B5FFF731FFBDE82D
:1026F000084000F0B5B9838910B50446EBB14389B1
:10270000043350F823300B604378022B04D10021AE
:10271000FFF71EFF00F0A4F9EFF3108372B6A38950
:10272000013BA38162B66389E28901339BB29A427D
:10273000638104D10023638101E0184610BD0420A9
:1027400010BD0000426870B504460E46002A4AD00B
:102750004578022D1CD0032D0AD0012D5DD1FFF745
:1027600037FE044610213246FFF727FA657034E041
:10277000084600F055F8054600284ED02046FFF7E1
:1027800027FE29460446FFF70FFA0123637024E071
:10279000FFF71EFE00210546FFF706FA2389E969C7
:1027A0001A1D44F82210EFF3108272B6A28901328A
:1027B000A28162B6E28901339BB29A42238104BFAF
:1027C00000232381012328466B70FFF7ADFE1348D9
:1027D0002946BDE87040FFF7E3BD2046FFF7A4FEA1
:1027E0000E482146F5E78189C089814210D22389AC
:1027F0001D1D44F82560EFF3108572B60131A181EB
:1028000062B601339BB2834214BF2381228170BD23
:102810000320BDE87040FFF7DCB970BDA00F0020B9
:10282000EFF3108372B6026803F001030AB1116876
:10283000016003B962B61046704781420DD3436808
:1028400099420AD2EFF3108372B602680A600160FF
:1028500013F0010003D162B67047012070470020D9
:1028600070470323037000234370438043608360F9
:1028700070470000438870B504464BB183684278C6
:102880009A70174B80681B68984201D0FFF732FEA0
:10289000656885B12046FFF79BFD00210546FFF7DF
:1028A00083F92846FFF740FE01236B700D48294647
:1028B000FFF776FDECE70B4843686BB1084E9A785A
:1028C00031688B789A4207D9FFF76AFD3368012295
:1028D0005A70284600F09AF90020207070BD00BFA1
:1028E000C80F0020A00F0020034B00221A60034AEB
:1028F0001268DA80704700BFB80F002080E401083A
:1029000008B5104B10485A68104B196891421FBF08
:102910001A60DA8802F1FF3102681CBF52189A80EF
:102920009A8803889A420BD1084B064800221A6005
:10293000FFF74EFDBDE8084001460248FFF730BDF5
:1029400008BD00BFA00F002004100020B80F002019
:1029500002230370002343604180704770B5044632
:10296000656885B12046FFF733FD00210546FFF776
:102970001BF92846FFF7D8FD01236B700C48294648
:10298000FFF70EFDECE70A4843686BB1094E9A78F1
:1029900031688B789A4207D9FFF702FD336801222C
:1029A0005A70284600F032F90020207070BD00BF38
:1029B000A00F0020C80F0020426810B562B1FFF7D9
:1029C00007FD01210446FFF7EFF82046FFF7ACFDB5
:1029D000204600F01BF902E04288013242800020CC
:1029E00010BD0000428810B50C461AB1013A428071
:1029F000002010BD71B14168074A19B11168FFF795
:102A0000CFFC03E0126842605160906020460721CD
:102A100000F01EF9012010BDC80F002008B50021EC
:102A2000FFF796FDBDE8084000F01AB8426810B5FF
:102A30007AB1FFF7CDFC0446FFF776FD0121617006
:102A40002046FFF7B1F821460448BDE81040FFF7E3
:102A5000A7BC42880132428010BD00BFA00F0020F9
:102A6000054B1B7823B9054B4FF080521A60704715
:102A7000034B01221A707047C50F002004ED00E0DF
:102A8000C40F002038B5184B184D18680123437047
:102A9000FFF7B0FC6C78AA78144BEAB103EBC403DF
:102AA000586802781AB91989FFF750FC07E0012A23
:102AB00003D19968FFF746FE01E0FFF7B7FFEB7817
:102AC00001349C4208BF0024EFF3108372B6AB7848
:102AD000013BAB7062B6DEE75C700548FFF778FC3F
:102AE000BDE8384000F08AB8C80F0020940C0020E0
:102AF000A00F0020084B1A68084B1A6000225A6089
:102B0000072243F8042C064A136843F07F431360FE
:102B10004FF0FF30704700BF7CE4010814E000E094
:102B200020ED00E07047000008B50B4B186801234A
:102B30004370FFF75FFCFFF7E3FE084A13680133B9
:102B40001360FFF787FCFFF7C3F90548FFF740FC68
:102B5000BDE8084000F052B8C80F00200410002063
:102B6000A00F0020084B1B68DA78012A0AD0DA6A25
:102B70009B6A9A4203D81268044B9A4202D0012001
:102B8000FFF727B8704700BFC80F0020A52E5AE2F4
:102B900008B50448FFF71CFC034B58600223437040
:102BA00008BD00BFA00F0020C80F0020064B1A88E8
:102BB000064B0120904204D853F8041F11B1013094
:102BC000F8E70020704700BF70E40108140D0020F2
:102BD00030B5002401250470457081704460846024
:102BE000C46004618482C4820483448380F82040EA
:102BF0001146BDE83040FEF7B1BF0000024B5860FF
:102C000002234370704700BFC80F002070B5044610
:102C100018B9BDE87040FFF7BBBF0B4DA27828681C
:102C200083789A424FF0010607D9FFF7E3FB2B6840
:102C30005E7002236C60637070BD6670214603484D
:102C4000BDE87040FFF7ACBBC80F0020A00F00200C
:102C500038B50D46014678B14FF6FF739842074CE0
:102C600002D02068FFF7D0FB236805485D70FFF7AE
:102C7000AFFB02236060437038BD00BFC80F002067
:102C8000A00F0020024B186800B1C078704700BF49
:102C9000C80F002010B588B9174B1B6899701748EA
:102CA00043689B788B4222D9134C2168FFF778FB4D
:102CB000236801225A70FFF76BFF18E0104B1B8846
:102CC000984216D801380F4B53F820408CB10A4B6C
:102CD000A1701B689C42E2D02046FFF70BFC637892
:102CE000012B04D10548FFF773FBFFF78FFF00208E
:102CF00010BDFF2010BD00BFC80F0020A00F002096
:102D000070E40108180D002070B5184D18B12B683B
:102D1000DB78984213D12E680024747000F0BFF85D
:102D2000B062FFF71FFF2A681149D3782C60013B7E
:102D300041F82340D462FFF72BFF204670BD0D4BB6
:102D40001B8898420FD8441E094E56F8245055B19E
:102D50002846FFF7B9FB2846FFF7E6FB002046F8B8
:102D60002400E86270BDFF2070BD00BFC80F0020C6
:102D7000180D002070E4010810B5284B1A880023B4
:102D8000934205D22649002041F823000133F7E79A
:102D9000244C254AFF23E370244B1B8863622046A2
:102DA000234BE3620021FFF713FF224A0023042193
:102DB00011705360204A1170D360136193821F4ACF
:102DC0001460022262701E4A137053701D4B1B78F0
:102DD000D370FFF789FD1C4B1A6842F47F021A601A
:102DE0001B681B0203F07F43DB43B3FA83F3174AEC
:102DF00017481268DBB2C3F10803C2F302229A42F9
:102E0000A8BF531C6FF08071026801FA03F303F04E
:102E10007F4122F07F430B43036010BD70E4010843
:102E2000180D0020D00F0020D11B000878E4010805
:102E3000740D0020A00F0020880F0020C80F002074
:102E4000940C00207AE4010820ED00E00CED00E095
:102E50001CED00E008B5FFF74DFE0C4B0028186094
:102E600012DB00F1604000F56440FF2202701A6836
:102E700053119B0003F1604303F5614302F01F020D
:102E8000012101FA02F21A6008BD00BFC00F002044
:102E90000321FFF7DDBE000080F309887047EFF3E0
:102EA00009807047684680F3098851480078C00758
:102EB00014BF0220032080F314887047DFF834C168
:102EC000EFF305831B0618BF6047EFF31483DB079E
:102ED00008BF604700DF7047DFF81CC1EFF30583D0
:102EE0001B0618BF6047EFF31483DB0708BF60477A
:102EF00000DF7047EFF30980816911F8021C79BB8C
:102F000090E80F1010B5E047BDE81040EFF3098CD2
:102F10008CE80700394B93E80600914208BF7047E0
:102F200071B11EF0100F0CBF0120002081F82000AD
:102F30002CE9F00FC1F828C00CB4FFF713FE0CBC4D
:102F40001A60D2F828C0BCE8F00F92F820000028E0
:102F500014BF6FF0120E6FF0020E8CF309887047E9
:102F600010B5274A1268914209D8264C54F82140DE
:102F700090E80F10A047EFF3098C8CE80F0010BD0C
:102F800010B5FFF77FFDBDE810401C4B93E806002D
:102F9000914208BF7047EFF3098C1EF0100F0CBF71
:102FA0000120002081F820002CE9F00FC1F828C092
:102FB0000CB4FFF7D7FD0CBC1A60D2F828C0BCE8EF
:102FC000F00F92F82000002814BF6FF0120E6FF07F
:102FD000020E8CF30988704710B5FFF7A5FDFFF7C7
:102FE000D2BF10B5FFF79EFDFFF79EFDFFF7CBBFE9
:102FF00072E40108212800083B280008C80F0020BF
:1030000000000000FCFFFFFF00B585B072B605218F
:10301000684602F035F810E0039B019A1A6096208A
:1030200002F050F99DF90030013310D0019B039A52
:103030001B041360962002F045F99DF9003001331E
:10304000EAD106480649342201F0CEFFE4E70348FE
:103050000349342201F0C8FFE8E700BF84E4010817
:103060009CE401080F4A30B493689468B4F1006F8F
:103070001A4604D0103030BC42F8201070470A4A7B
:1030800003F5CA7553F8044B42F8044FAB42F9D12B
:103090004FF00052034B10309A6030BC42F82010C1
:1030A000704700BF00ED00E0FCFFFF1F70B5114C42
:1030B0002368DA68910715D4DA68520709D56FF0EA
:1030C00004020D4E1A615D6A3368EB1AB3F57A7F1C
:1030D00000D270BD00F022FA2368356005F57A75DC
:1030E0009D6370BD6FF002021A6102F0D9F8236887
:1030F000E2E700BFC827002008100020244B30B5AD
:103100001A6C244C42F008021A641A6C83B002F064
:1031100008020192019A1A6A42F008021A621A6AB7
:1031200022F008021A6201F041F91B4B1B4A1B688E
:103130001B492160A2FB03239B0C0025013B4FF0A0
:10314000FF3220466360E2602561A560656100F0A2
:103150004FFF32201349FFF785FF134B4FF48022B6
:103160005A602946204600F0B5FE2046042100F0B2
:10317000B1FE23680D495A6A0A6002F57A729A63B1
:10318000DA68284642F00402DA6003B030BD00BFBE
:1031900000380240C82700202C02002083DE1B4399
:1031A000000C0040AD30000800E100E008100020F5
:1031B000036870B51B690021012204469847431C2F
:1031C00006460ED0236820461B690021022298473C
:1031D0002368054631461B69204600229847284649
:1031E00070BD70BD02480221032201F031BC00BF56
:1031F00044280020084B094A026010B403F580718E
:10320000002453F8042F824208BF1C608B42F8D17F
:103210005DF8044B704700BF0810002030E501083E
:10322000F0B50E4685B03549054613F06AFF20B962
:10323000334B1B6863B105B0F0BD2846314913F02C
:1032400060FF78B92E4B1B6843B1012005B0F0BD7B
:103250000190FFF7C7FF019805B0F0BDFFF7C2FF6F
:103260000120E8E72846284913F04BFF10B3274B0D
:10327000002402E00134402C21D053F8042F002A0E
:10328000F8D12B783A2B32D0294602A801F004FD60
:1032900002A801F057FD90B102A801F039FD88B1F4
:1032A00002A801F03FFD03464BB1194AE01C42F869
:1032B0002430C0E7124B1B68ABB10220BBE74FF0D4
:1032C000FF30B8E702A801F013FD05460028F6D04C
:1032D000036802A89F6801F009FD324601462846AE
:1032E000B8470346E0E7FFF77DFF0220A3E7284643
:1032F000084902AA13F096FE029BD5E70CE50108E7
:103300004C1100201CE5010814E5010808100020FC
:103310000C10002054E5010802280ADDC31E074AEC
:1033200052F82300002142F8231020B103685B68A3
:103330001847002070474FF0FF3070470C100020F6
:10334000022812DC0E4B1B6870B50C4616460BB9F2
:10335000FFF748FFA51936B114F8011B094801F021
:103360007BFCAC42F8D1304670BD0338064B53F8B5
:10337000200010B103681B6818474FF0FF307047FA
:103380004C110020442800200C10002002280DDCE5
:103390000C4B1B6810B50C460BB9FFF723FF0A480E
:1033A00001F04EFC01232070184610BD0338074B76
:1033B00053F8200010B103689B6818474FF0FF33A3
:1033C000184670474C110020442800200C100020A3
:1033D000022807DD0338064B53F8200020B10368AC
:1033E000DB681847012070474FF0FF30704700BF7F
:1033F0000C100020022807DD0338064B53F820008C
:1034000020B103681B691847002070474FF0FF3058
:10341000704700BF0C100020022808B504D84FF4F4
:1034200000534B60002008BD11F02EFB0923036000
:103430004FF0FF3008BD00BF08B5012011F02AFB96
:10344000074A13681844EFF30881884202D21060DB
:1034500018467047034B0C221A604FF0FF3070473C
:103460002802002060280020074C08B52368054684
:10347000986811F02BFC2368D86811F027FC05B977
:10348000FEE7FFF7C1FDFBE714030020002113F066
:10349000CDBC00BF11F058BCDFF830D0002103E0F4
:1034A0000B4B5B58435004310A480B4B42189A426D
:1034B000F6D30A4A02E0002342F8043B084B9A4242
:1034C000F9D301F053F8FCF793FE70470080012018
:1034D000D8100208940100200404002004040020F5
:1034E00064280020FEE7000008B50B4B1A6842F480
:1034F00000721A601A6842F480621A601A6842F414
:1035000080721A60032000F017F80F20FFF7F6FD15
:1035100000F012F9002008BD003C0240024A136886
:1035200001331360704700BF0C110020014B186875
:10353000704700BF0C110020074AD1684FF6FF0307
:103540000B4043F0BF6300F0070043F4003343EA4D
:103550000023D360704700BF00ED00E02DE9F04F7D
:10356000DFF8D0C1D1F800E06D4F83B000234FF0F9
:10357000010803E00133102B00F0858008FA03F204
:1035800002EA0E049442F5D14D6825F0100ABAF112
:10359000020F7BD04FEA43090322D0F800B002FAB1
:1035A00009F2D24305F0030602EA0B0B06FA09F60C
:1035B0000AF1FF3A4BEA0606BAF1010F066040F243
:1035C0008B80C66832408E6806FA09F61643EA0018
:1035D000C660CFD5DCF8442042F48042CCF84420C9
:1035E000DCF8446023F0030206F48046019602F101
:1035F000804203F003064FEA860B02F59C320F2649
:1036000006FA0BFA474EDDF80490D2F80890B04263
:1036100029EA0A0974D006F58066B04272D0424E9B
:10362000B04272D0414EB04274D0414EB0420CBF55
:103630004FF0040A4FF0050A0AFA0BF646EA0906AB
:1036400096603A68E64315F4803F14BF2243324047
:103650003A607A6815F4003F14BF224332407A6022
:10366000BA6815F4801F14BF22433240BA60FA686A
:10367000AD0203F1010354BF06EA02041443102B08
:10368000FC607FF47BAF03B0BDE8F08F4FEAD30955
:1036900000EB890903F00706D9F82020B6004FF0A7
:1036A0000F0A0AFA06FB22EA0B0A0A69B2404AEA42
:1036B0000202C9F820204FEA43090322D0F800A0F3
:1036C00002FA09F2D24305F0030602EA0A0A06FAF0
:1036D00009F64AEA06060660866802EA060ACE6825
:1036E00006FA09F64AEA06068660D0F804A0C5F391
:1036F00000162AEA040A9E404AEA0606466060E787
:1037000000269BE708FA0BF698E74FF0020A0AFA40
:103710000BF693E74FF0030A0AFA0BF68EE700BFA9
:10372000003C01400000024000080240000C024042
:103730000010024000380240704700BFF0B5036837
:10374000DE0783B0044633D59F498A6802F00C0235
:10375000042A00F0EA808A6802F00C02082A00F0CD
:10376000E0809A4B984D00221A70FFF7DFFE064664
:1037700005E0FFF7DBFE801BC82800F2C1802B6844
:103780009903F6D4914B22791A706368002B00F0EC
:103790000881FFF7CBFE8C4D064605E0FFF7C6FE1D
:1037A000801BC82800F2AC802B689A03F6D52368EA
:1037B0009F072ED5844A916811F00C0F00F0A78066
:1037C000916801F00C01082900F09D80E368002B4E
:1037D00000F0D6807E4B7C4D01221A60FFF7A6FEDA
:1037E000064605E0FFF7A2FE801B642800F28880F1
:1037F0002B68754A9807F5D51168F82090FAA0F063
:103800002369B0FA80F021F0F80183400B43136084
:1038100023681A0720D4590734D4A369CBB16A4D61
:10382000AA6802F00C02082A78D0022B694B4FF0EC
:1038300000021A6000F0C380FFF778FE2C460546B0
:1038400004E0FFF773FE401B642859D823689B01EE
:10385000F7D4002003B0F0BD6369002B6FD05E4B3E
:10386000594D01221A60FFF761FE064604E0FFF79A
:103870005DFE801B642843D86B6F9F07F7D52368D4
:103880005907CAD5504B554D1A6C42F080521A64F4
:103890001B6C03F080530193019B2B6843F48073EE
:1038A0002B60FFF743FE064604E0FFF73FFE801B58
:1038B000642825D82B68DA05F7D5494B424D0022FC
:1038C0001A70FFF733FE064604E0FFF72FFE801B59
:1038D000642815D82B6F9B07F7D4414B227A1A70B6
:1038E000A368002B00F0BE80FFF720FE364D064691
:1038F0002B6F9F0791D4FFF719FE801B6428F7D91F
:10390000032003B0F0BD526856023FF55FAF2E4A68
:103910001268950723D5E268012A20D0012003B060
:10392000F0BD4A6855027FF51CAF274A1268900324
:103930007FF53EAF6268002A7FF43AAFEEE7264A91
:10394000214D1360FFF7F2FD064604E0FFF7EEFDA0
:10395000801B6428D4D86B6F9807F7D48FE71A4D73
:10396000F820296890FAA0F02269B0FA80F021F0DE
:10397000F80182400A432A601A077FF54CAF6BE7D3
:10398000134A114D1360FFF7D1FD064604E0FFF71F
:10399000CDFD801B6428B3D82B689907F7D4236822
:1039A00037E7FFF7C3FD084D064604E0FFF7BEFD0D
:1039B000801BC828A4D82B689B03F7D4F7E6FFF731
:1039C000B5FD064613E000BF003802400238024051
:1039D0000000474260004742800E474200700040AE
:1039E00070380240FFF7A2FD801B642888D82B683E
:1039F000234A9901F6D447F6C07797FAA7F74FF410
:103A00004036B7FA87F796FAA6F64FF07060B6FA26
:103A100086F690FAA0F0A36A656AD4F820C0D4F8BC
:103A20001CE0E16AB0FA80F05B0805FA07F4013B9C
:103A30004CEA0E052C43B3408140234311480B430D
:103A40000121536001601446FFF770FD054605E053
:103A5000FFF76CFD401B64283FF652AF23689A01C4
:103A6000F6D5F6E6FFF762FD054D06462B6F980783
:103A70007FF5D3AEFFF75AFD801B6428F6D93FE7E8
:103A800000380240600047427C4A136803F00F038D
:103A90008B422DE9F0410C46054609D2CBB213709A
:103AA000136803F00F038B4258D00120BDE8F0816A
:103AB00003689A0706D57248AA68816821F0F00168
:103AC0000A438260DF0727D56B68012B79D09A1EE5
:103AD000012A6B4A126840F287809107E5D5684E4B
:103AE000B26822F003021343B360FFF71FFD6B6857
:103AF000012B07467CD0022B00F08880032B65D079
:103B000041F2883804E0FFF711FDC01B404565D83D
:103B1000B36813F00C0FF6D1584BE2B21A701B6861
:103B200003F00F03A342C0D12B685A0706D55448AF
:103B3000EA68816821F4E0510A4382601B0707D5D7
:103B40004F4A2969936823F4604343EAC1039360B1
:103B50000F20FFF7D3FA0020BDE8F08103689F072C
:103B600006D54748AA68816821F0F0010A438260BF
:103B7000DE07DAD56B68012B56D09A1E012A404A1F
:103B800012682ED9910790D53D4CA26822F003020D
:103B90001343A360FFF7CAFC6B68012B064648D0AD
:103BA000022B54D0032B60D041F2883704E0FFF79A
:103BB000BDFC801BB84211D8A36813F00C0FF6D1DE
:103BC000B2E72F4A1268960389D46EE741F288342F
:103BD000B368FFF7ABFCC01BA042F9D90320BDE8D6
:103BE000F0819001D0D460E790013FF578AF5CE7B9
:103BF00041F2883804E0FFF799FCC01B4045EDD83E
:103C0000B36803F00C03042BF5D185E741F2883843
:103C100004E0FFF78BFCC01B4045DFD8B36803F01E
:103C20000C03082BF5D177E7154A12689403ABD43F
:103C30003BE741F2883704E0FFF778FC801BB8428D
:103C4000CCD8A36803F00C03042BF5D16CE741F248
:103C5000883704E0FFF76AFC801BB842BED8A3682F
:103C600003F00C03082BF5D15EE741F28835A36819
:103C7000FFF75CFC801BA842F9D9AFE7003C02408B
:103C8000003802401C498B6803F00C03042B31D030
:103C9000082B2DD14A6830B44D6802F03F0447F636
:103CA000C0734A68690293FAA3F347F6C07000EA4A
:103CB00002004ABF1149124AB1FBF4F20E49B3FAAD
:103CC00083F320FA03F058BFB2FBF4F202FB00F3D7
:103CD0004FF44032486892FAA2F200F44030B2FA4F
:103CE00082F2D0400130400030BCB3FBF0F07047AE
:103CF00003487047014870470038024000127A00BC
:103D00000024F40010B5FFF7BDFF084BF0229B68BC
:103D100092FAA2F203F0F003B2FA82F2044C0549DF
:103D2000D340E35CD840086010BD00BF00380240BB
:103D300064E501082C02002008B5FFF7E3FF074BFC
:103D40004FF4E0529B6892FAA2F203F4E053B2FA05
:103D500082F20349D340CB5CD84008BD0038024012
:103D600064E5010808B5FFF7CDFF074B4FF460424B
:103D70009B6892FAA2F203F46043B2FA82F203491A
:103D8000D340CB5CD84008BD0038024064E5010850
:103D90000E4B0F2202609A6802F0030242609A689A
:103DA00002F0F00282609A6802F4E052C2609B68FE
:103DB00003F4604310B4DB08054C036123685DF82D
:103DC000044B03F00F030B60704700BF0038024044
:103DD000003C0240036A8A6823F00103F0B40C68D7
:103DE0000362036A104E4768856923F0020325F0D9
:103DF0007305B04243EA020345EA040206D049686B
:103E000047608261F0BC416303627047CD688E6990
:103E10004C6923F0080327F440772B43344323F005
:103E200004032743EBE700BF00000140026A22F4CD
:103E30008072F0B48E680C680262036A114D4768A4
:103E4000C26923F4007322F07302A84243EA0623F6
:103E500042EA040206D049684760C261F0BCC1630F
:103E600003627047CE684D698C6927F4405723F48C
:103E7000006343EA062347EA051523F4806345EA15
:103E80000417E8E700000140F0B4046A8F680E6888
:103E90000E4D24F480540462036A4468C26923F41A
:103EA000005322F4E642A84243EA073342EA0622DC
:103EB00006D049684460C261F0BC01640362704787
:103EC0004D6924F4804444EA8514F2E7000001407F
:103ED000704700BF03680122186A8A4020EA020086
:103EE00010B41862196A094C0A43A3421A6207D037
:103EF0001A685DF8044B42F0010200201A60704716
:103F00005A6C42F400425A64F2E700BF00000140DC
:103F1000704700BF03680122186A8A4020EA020045
:103F200010B41862196A094C0A43A3421A6207D0F6
:103F30001A685DF8044B42F0010200201A607047D5
:103F40005A6C42F400425A64F2E700BF000001409C
:103F5000264A0368904270B434D0B0F1804F20D02C
:103F6000A2F57C4290421CD002F58062904218D0AB
:103F700002F58062904214D002F59A32904214D039
:103F800002F58062904210D002F5806290420CD01F
:103F90008C680A6803600123C462826270BC43615A
:103FA00070474A6823F070031343CA688C68096835
:103FB00023F44073134303600123C462816270BC25
:103FC000436170474A68CC688E680D68096923F0C0
:103FD0007003134323F44073234303600123C66239
:103FE0008562016370BC4361704700BF00000140FF
:103FF000C0B190F8393010B503F0FF02044663B148
:104000002146022351F8040B84F83930FFF7A0FF52
:10401000012384F83930002010BD80F83820FFF7E4
:1040200057FFEDE701207047C0B190F8393010B567
:1040300003F0FF02044663B12146022351F8040B4A
:1040400084F83930FFF784FF012384F839300020E9
:1040500010BD80F83820FFF75BFFEDE701207047C7
:10406000F0B5046AD1F808E00E68134D24F010048E
:104070000462036A4768826923F0200322F4E6425F
:10408000A84243EA0E1342EA062205D04968476077
:10409000826181630362F0BDCE684D698C6927F44B
:1040A000406723F0800343EA061347EA850523F0BF
:1040B000400345EA8407E9E70000014038B590F87D
:1040C0003830012B2BD00D4602230121044680F805
:1040D000381080F839300C2A1AD8DFE802F0351988
:1040E00019190719191947191919220000682946C1
:1040F000FFF7B6FF23682869996941F40061996167
:10410000996921F4806199619A6942EA00229A6171
:104110000123002084F8393084F8380038BD0220AB
:1041200038BD00682946FFF7AFFE23682869D969C2
:1041300041F40061D961D96921F48061D961DA69FA
:1041400042EA0022DA61E3E729460068FFF742FE0F
:1041500023682A69996941F008019961996921F0F8
:104160000401996199690A439A61D1E72946006877
:10417000FFF75CFE23682A69D96941F00801D9611B
:10418000D96921F00401D961D9690A43DA61BFE72D
:1041900003680422186A8A4020EA02001862196A39
:1041A0000A431A625A6C42F400425A641A6842F096
:1041B00001021A60002070472DE9F0410468C768C9
:1041C0002369C569D0F810C08268416923F4405E54
:1041D0004EEA0707064680692761E3684CEA020257
:1041E00023F416430A4323F00C032A431343E360EA
:1041F000636923F440730343B5F5004F6361514B8A
:1042000039D09C4200F0818003F580639C427CD0D1
:10421000FFF792FD75684C4F00EB800000EB8000CB
:10422000AD00B0FBF5F5FFF787FDA7FB053572681C
:104230006D0900EB800000EB800092002D01B0FBC7
:10424000F2F8FFF779FD716800EB800000EB800069
:104250008900B0FBF1F1A7FB01314909642202FB9F
:10426000118212013232A7FB0223C3F343132B4303
:10427000A360BDE8F0819C4225D003F580639C4299
:1042800021D0FFF759FD75682F4F00EB800000EB40
:1042900080006D00B0FBF5F5FFF74EFD726800EB96
:1042A000800000EB80005200B0FBF2F8FFF744FD05
:1042B000A7FB053571686D0900EB80002D0100EB4F
:1042C00080004900C5E7FFF74DFD75681E4F00EB04
:1042D000800000EB80006D00B0FBF5F5FFF742FDBC
:1042E000726800EB800000EB80005200B0FBF2F837
:1042F000FFF738FDA7FB053571686D0900EB8000FD
:104300002D0100EB80004900A3E7FFF72BFD756846
:104310000D4F00EB800000EB8000AD00B0FBF5F529
:10432000FFF720FDA7FB053572686D0900EB8000E3
:1043300092002D0100EB8000B0FBF2F8FFF712FDB8
:1043400081E700BF001001401F85EB51704700BF9F
:1043500050B338B590F83930044603F0FF02F3B19A
:104360002268022384F83930D36823F40053D360E1
:104370002046FFF721FF23681A6922F490421A6150
:104380005A6922F02A025A61DA68002142F4005286
:104390000125DA600846E16384F8395038BD80F8B9
:1043A0003820FFF7D3FFDBE7012070471848836808
:1043B00003F00C03042B29D0082B0AD0154B144A08
:1043C000154892681549C2F30312825CD3400B6012
:1043D00070474368416813F4800F436818BF104862
:1043E00001F03F020CBF0B49B0FBF2F1C3F388139D
:1043F00008BFB1FBF2F101FB03F2054B5B68C3F3AD
:10440000014301335B00B2FBF3F3D8E7044BD6E77B
:10441000003802400024F40074E501082C0200205A
:1044200000127A00214B224A196C70B541F080517C
:1044300019641B6C94B003F080530193019B1368C3
:1044400023F4404343F400431360136803F44043F0
:1044500002930123029A089300B1052309934FF4B4
:10446000A8710723042202244FF48006082508A817
:1044700013930E940F96109511911292FFF75EF917
:10448000034610B1002014B070BD4FF48052214695
:104490000F2503A804940593079303950692FFF74D
:1044A000F3FAB0FA80F0400914B070BD0038024051
:1044B00000700040234B244A196CF0B541F0805144
:1044C00019641B6C95B003F080530193019B136832
:1044D00023F4404343F400431360136803F4404360
:1044E00002934FF0030E102300240421072201271A
:1044F00002254FF4A87608A80C931093DDF808C0A5
:10450000CDF820E00B9709940F940E951196129117
:104510001392FFF713F9034610B1204615B0F0BD12
:104520004FF4805229460F2403A80495059307935E
:1045300003940692FFF7A8FAB0FA80F0400915B08C
:10454000F0BD00BF003802400070004008B50120F7
:10455000FFF768FF00B108BDFFF764FF0028FAD13C
:10456000FFF7A8FF0028F6D1FEE700BF174A18485A
:10457000D2F8883070B543F47003164CC2F8883016
:104580002368154E154D002143F001032360A160FF
:10459000236823F0847323F48033236066602368E8
:1045A0004FF0006623F480232360E160966005608D
:1045B000FEF79AFFFFF7CAFF236A43F0080323625E
:1045C000236A23F00803236270BD00BF00ED00E002
:1045D0002C02002000380240103000240024F40097
:1045E00030B507EE101A2C4B02681A60B5EEC07A8F
:1045F000F1EE10FA89B004464BD4F7EE007AB4EE2F
:10460000677AF1EE10FAC8BFB0EE677AD4ED027A9D
:10461000217CF8EE677A002267EE877A6020FCEE54
:10462000E77A0139C4ED037ACDED027A0190039265
:104630000492059206920792032910D8DFE801F050
:10464000022725110025144801A92A46FFF736FD47
:1046500078B9637C104829469BB1FFF799FD09B0F2
:1046600030BD0C250C4801A92A46FFF727FD00287C
:10467000EFD00A4800F0F2FC637C07482946002B83
:10468000EBD1FFF747FC09B030BD0825DBE7042577
:10469000D9E79FED037AB9E71011002084E50108FE
:1046A00000000000F0B58268444D03682B6087B0BD
:1046B00004460F46002A58D007EE902AB8EE677AD3
:1046C000D0ED037AF8EE677AF7EE006AC7EE877AE4
:1046D000F4EEE67AF1EE10FAD4BF17EE906A16EE19
:1046E000906A196A41F211120A402AB9196A40F215
:1046F00044420A40002A3AD001A86946FFF748FB25
:1047000023682F4A934242D036D92E4A934207D08B
:104710004ED92D4A934203D002F58062934222D1B2
:10472000FFF720FB059A00907B1EEB60234B002ACD
:1047300036D1264AA2FB0020800C013858600023A5
:104740001E482B61AB60FFF76FFC10B1204800F0F2
:1047500085FC31462046FFF743FF2A68A7601368AF
:1047600043F00103136007B0F0BD0026B9E71A68F3
:1047700022F001021A60BFE7A2F50062934206D060
:1047800002F58062934202D0B3F1804FEBD1FFF784
:10479000D3FA049A00907B1EEB60084B002AC8D025
:1047A0000A4A4000A2FB0020800C01385860C6E78E
:1047B000A2F580429342B3D0D5E700BF101100208C
:1047C000000C0040004001400044014083DE1B43D8
:1047D00084E5010870B50E46044688B04F4930465E
:1047E00000F0A6FC206001307DD030464B4900F03F
:1047F000BBFC431C05467CD02368494AC5F3C32152
:104800009342C5F3C0352174657444D0B3F1804F31
:104810001BD0444A93424AD102F50D32116C41F04B
:1048200002011164126C02F002020292029A3E4AE4
:1048300093424AD13D4B5A6C42F400325A645B6C4D
:1048400003F400330693069B16E0384A116C41F0DE
:1048500001011164126C02F001020192019A344AC2
:104860009342E4D1314B5A6C42F480325A645B6C0F
:1048700003F480330593059B2849304600F024FC5F
:1048800000232671A360E360204644F62061FFF711
:1048900009FF08B070BD02F59C32516C41F0010176
:1048A0005164526C02F001020092009AD7E7214A4B
:1048B000934224D102F50C32116C41F004011164D1
:1048C000126C02F004020392039A1B4A9342D3D162
:1048D000164B5A6C42F480225A645B6C03F48023BA
:1048E0000793079BC8E7154815492D2200F07CFB6C
:1048F0007BE714481249312200F076FB7CE7124A2C
:104900009342ACD1094B1A6C42F008021A641B6C3A
:1049100003F008030493049BAEE700BFD0E801084E
:104920000000014000040040004401400038024003
:104930000040014000080040004801409CE501089B
:10494000B4E501081CE60108000C004007EE101A4F
:10495000DFED087A67EE277A90ED027AFDEEE77ACE
:10496000B8EE477AF8EEE77AC7EE877A17EE901A34
:10497000FFF736BE00247449F8B590F91920124BA0
:1049800001688768C66805694469196001324FF09B
:1049900000015F609E60DD601C61996110D090F93C
:1049A000182001320CBF04220C225A610648FFF77E
:1049B000CFFC00B9F8BD0548BDE8F84000F04EBB9B
:1049C00008225A61F2E700BF0428002038E60108F7
:1049D00070B5134D134C55F8213020600E462BB1A5
:1049E000026852060ED403689B0600D470BD0E4BBD
:1049F00055F826001B680021984723686FF02002B5
:104A00001A6070BD084A184601211368984720684B
:104A10006FF04003036003689B06E7D5E7E700BF3C
:104A200050110020042800207011002001480021AE
:104A3000FFF7CEBF0010014001480121FFF7C8BFBA
:104A40000044004001480521FFF7C2BF00140140A7
:104A5000F0B5044685B008460E463C49154600F0C0
:104A600067FB3B490746284600F062FB0146384693
:104A700000F04CFB411C206061D0364B984247D07F
:104A800003F58063984236D0A3F55043984225D071
:104A900030462E4900F018FB28462D4900F014FB43
:104AA000721C03D03046012100F008FD6B1C03D0BE
:104AB0002846012100F002FD00234FF41652A260A7
:104AC000E36023616361267665762046FFF754FF35
:104AD000214B22689A4228D005B0F0BD1F4B1A6CBA
:104AE00042F400321A641B6C03F400330293012376
:104AF000029A6360CCE7194B5A6C42F020025A6468
:104B00005B6C03F020030393039B05236360BFE703
:104B1000124B5A6C42F010025A645B6C03F01003A3
:104B200001930023019A6360B2E70D4B0D482146C3
:104B30001C2201241C6010F04CFE05B0F0BD0A4898
:104B40000A49532200F050FA206896E738EA010833
:104B500088E801080010014000440040003802408D
:104B60004C1100204428002050E601086CE60108A2
:104B700010B4044B44680448196040F824205DF8E0
:104B8000044B7047701100205011002038B50368A5
:104B90002548264C8342236041D000F58060834243
:104BA0003AD0A0F55040834215D000200446B2B15F
:104BB000DA6869BB42F02002DA6065B20146284635
:104BC000FEF750FA6D0904F007040123184AA340C8
:104BD00042F8253038BD17482624002AE8D1DA6883
:104BE00079B922F02002DA60DB681A061AD4630968
:104BF000203304F0070401220D49A24041F823208C
:104C000038BD22F08002DA60DB689B06EFD538BD44
:104C100042F04002DA60D0E707484724C7E7074878
:104C20002524C4E738BD00BF00100140042800203F
:104C300000E100E0394A0008454A00082D4A000812
:104C4000026813689B06FCD5024B50681A60C0F3DB
:104C50000800704704280020026813681B06FCD572
:104C6000024BC1F3080151601A607047042800200C
:104C70000368034A18681360C0F34010704700BF10
:104C8000042800200368034A18681360C0F3C010AA
:104C9000704700BF0428002038B50023036043603C
:104CA0000A782F2A044601D0204638BD4A78002AC7
:104CB000FAD0481C20604D782F2D13D085B10346C3
:104CC00000E06AB15D1A013323601A782F2AF8D107
:104CD00029460133236000F0A1FC6060204638BD06
:104CE0002946F8E719460346F3E700BF0068704716
:104CF000436843B110B50446184600F0ADFC0128E6
:104D000003D1606810BD00207047002010BD00BFB7
:104D1000406830B108B500F09FFCB0FA80F040095F
:104D200008BD704743684BB110B50446184600F003
:104D300093FC28B9606818B1043810BD0020704792
:104D4000002010BD4068003018BF0120704700BF30
:104D500000F05EB8A0F15400FFF7FABF00F05CB8B5
:104D6000A0F15400FFF7FABF38B504461D4600F025
:104D700023F8294604F1540000F0E0F8054B03F154
:104D8000080103F12002543321606265A3652046C7
:104D900038BD00BFD8E6010801EB4101C900431846
:104DA0005A6B1B6A2AB11BB10144243118461047C3
:104DB0007047002BFCD0184738B504460E4B0360F3
:104DC000251D00234FF41650206563602846A3601C
:104DD000E36023616361A361237763772362636385
:104DE000A363E364FFF734FE284622460349FFF736
:104DF000BFFE204638BD00BF40E70108994D0008BE
:104E00000430FFF735BF00BF0430FFF73BBF00BFE2
:104E10000430FFF715BF00BF10B504300C46FFF794
:104E20001BFF204610BD00BF4368416910B5044612
:104E3000194400F009F9E36A3BB1A06920B104F11B
:104E40001C01BDE81040184710BDA369002BFBD022
:104E5000BDE81040184700BF10B5064B036004467C
:104E600000F0F8F80023A361E362204600F0E0F8C8
:104E7000204610BD50E7010810B5084B03600446FA
:104E800000F0E8F80023A361E362204600F0D0F8C8
:104E9000204600F009FC204610BD00BF50E7010885
:104EA00010B5044600F0D6F80023A361E36210BDFC
:104EB00038B505460C4600F0CDF86C61286900F065
:104EC000E7F901192846BDE8384000F0BDB800BF39
:104ED00000207047F8B58E18B1420F460ED0054637
:104EE0000C4601E0A64207D02B6814F8011B5B6A50
:104EF000284698470130F5D1E01BF8BD0C46FBE78A
:104F0000F8B58E18B1420F460ED005460C4603E0A8
:104F100004F8010BA64205D02B6828469B6A9847E7
:104F2000431CF5D1E01BF8BD0C46FBE700207047A1
:104F300000207047002070470020704710B584B0F3
:104F4000044600F08BFB0B4B0B4903F108000022D9
:104F50003C3384E80900626101A8224612F03EF861
:104F6000064901A810F030F86061FEF78FFA20467C
:104F700004B010BD60E7010854E50108A4E701088A
:104F800010B5074B03F108023C33044680E80C00DF
:104F900040690FF0E5FD204600F074FB204610BD8F
:104FA00060E7010838B504460D4640690FF08EFEF3
:104FB00028466169BDE8384010F034B810B50446A1
:104FC00040690FF083FE6069BDE81040FEF762BAE9
:104FD000C36A014623B1806908B11C311847704784
:104FE0008369002BFBD0184710B40C4613460146CA
:104FF000224602485DF8044B00F030B8BCE70108D7
:1050000003689B68184700BF074B10B50360002377
:1050100043608360C360044600F03EF903492061A9
:1050200000F0BEF8204610BDF8E701080150000866
:1050300010B5044B03600446211D006900F004F91B
:10504000204610BDF8E7010803460A460069191D0D
:1050500000F0D6B8011D006900F0F6B80FB400B535
:10506000064B83B004AA1B6852F8041BD86801924F
:1050700010F0A8FD01200FF00DFD00BF140300206B
:1050800038B50D46044600F03BF9013511D094F9CE
:10509000003001330ED06368E2681B0420461360C1
:1050A000012100F047F920460021BDE8384000F01A
:1050B0003DB938BD024803493422FFF795FFEAE7BE
:1050C00084E401089CE40108431C10B5044619D08F
:1050D00091F90030581C04D10FE011F90C3F5A1C13
:1050E0000BD09C42F9D12046896800F0B9F92046DE
:1050F0000021BDE8104000F0E1B90348BDE81040D0
:10510000FFF7ACBF10BD00BF04E8010888420AD019
:10511000421C09D0013106D008B50448FFF79EFFB4
:105120004FF0FF3008BD70470846704718E8010887
:10513000421C0FD008B591F900305A1C04D10AE086
:1051400011F90C3F5A1C06D09842F9D14868411C0D
:1051500001D008BD70470348FFF780FF4FF0FF30D4
:10516000F7E700BF2CE80108421C0FD008B591F901
:1051700000305A1C04D10AE011F90C3F5A1C06D029
:105180009842F9D18868411C01D008BD7047034896
:10519000FFF764FF4FF0FF30F7E700BF4CE801086E
:1051A00038B5036804461B680D46984763681D6060
:1051B00038BD00BF036870B5DB68054698476B686B
:1051C0005B6883B12A681C6853689847201A0028D6
:1051D0006A680DDC50681168836853600029F0D05C
:1051E00040688847EBE72B68BDE870409B6818472C
:1051F0002B6852681B691068BDE87040184700BFF3
:1052000030B583B072B644680A6065684B608DB192
:105210002B68D31A002B05DA0CE01C68141B002C39
:1052200003DB1D46AB68002BF7D1A9608B6062B62B
:1052300003B030BD036861601B6901911046984757
:105240002B460199F2E700BF08B572B643685A6869
:105250008A4211D04AB193688B4208D02BB19A6828
:105260008A4205D01346002BF9D162B608BD134619
:105270008A689A6062B608BD92685A60036822B173
:1052800010681B69984762B608BD9B689847ECE7B1
:1052900003685B68184700BF0048704780E8010852
:1052A0000148FFF787BF00BF80E8010838B5054611
:1052B00000F03AF9044600F037F9001BA842FAD38F
:1052C00038BD00BF4FF47A7303FB00F0FFF7EEBF69
:1052D000431C10B5044608D02046002100F0C0F859
:1052E00004F00F040120A04010BD03480349272209
:1052F000FFF77AFEF0E700BF80EA010894EA0108B0
:1053000070B505464B1C0C4629700DD0C1F3031037
:1053100000F030F806462046FFF7DAFF06F11003EA
:1053200018366860AB60EE6070BD00BF90F9000099
:1053300000F0C4B838B5054690F90000431C0C468F
:105340000BD0012C04D00021BDE8384000F088B813
:105350002146BDE8384000F083B80448044946229D
:10536000FFF742FE95F90000EBE700BF84E4010877
:1053700094EA010800B587B0072859D8DFE800F0A3
:1053800012202E3C4A5858042D4B2E481A6B42F0DE
:1053900080021A631B6B03F080030593059B07B023
:1053A0005DF804FB264B28481A6B42F001021A6391
:1053B0001B6B03F001030093009B07B05DF804FB37
:1053C0001F4B22481A6B42F002021A631B6B03F058
:1053D00002030193019B07B05DF804FB184B1C48C6
:1053E0001A6B42F004021A631B6B03F0040302936E
:1053F000029B07B05DF804FB114B16481A6B42F094
:1054000008021A631B6B03F008030393039B07B0A6
:105410005DF804FB0A4B10481A6B42F010021A6345
:105420001B6B03F010030493049B07B05DF804FBAF
:105430000A48FFF713FE002007B05DF804FB00BF29
:1054400000380240001C02400000024000040240FC
:1054500000080240000C02400010024030EB01083E
:1054600030B5431C87B005460C461BD0C5F303106E
:10547000FFF780FF05F00F0504F00F010C4A012330
:10548000AB40019352F821500295C4F3021203235A
:10549000C4F3C31401A9039205940493FEF75EF8C4
:1054A00007B030BD034804498122FFF79DFDDDE7C9
:1054B000FCEA010880EA010854EB010838B5431CF6
:1054C00004460D4614D0C4F30310FFF753FF04F055
:1054D0000F04C26864000323A34022EA0303C360ED
:1054E000022DC3688CBF0025A5401D43C56038BD93
:1054F00002480349A622FFF777FDE4E780EA0108A6
:1055000054EB0108054B186800B17047044A05497F
:10551000116001221A60FDF7F1BD00BFB811002033
:105520007C110020000C004008B5064B186830B90B
:10553000054A0649116001221A60FDF7DFFD034BA1
:10554000586A08BDB81100207C110020000C0040F2
:10555000034B1B685863DA6842F00202DA60704756
:105560007C110020034B1A68D36823F00203D36038
:10557000704700BF7C110020024B1B686FF00202D5
:105580001A6170477C1100208368094A026053B198
:10559000084B1A68824201D106E01A4653688342DA
:1055A000FBD143685360704742681A60704700BF80
:1055B000C0EB0108BC11002083680C4A10B50446FA
:1055C000026053B10A4B1A68904201D10AE01A46B0
:1055D00053689C42FBD163685360204600F064F836
:1055E000204610BD42681A60F7E700BFC0EB010813
:1055F000BC11002010B40023064C027381600460CB
:10560000436019B1044B1A68426018605DF8044B9E
:10561000704700BFC0EB0108BC1100200D4B70B5F6
:105620001C6806460D4614B912E0646884B1A3688C
:1056300031462A461846002BF7D012F025FA0028EA
:10564000F3D1A06812F018FAA842EED1204670BD3E
:10565000002070BDBC110020007B704710B5074BC7
:105660000446002240F8043BFFF7C4FF044B03F15B
:105670000802343384E80C00204610BD30E50108F0
:10568000C8EB010810B5074B044603F10802343398
:10569000226040F8043FFFF777FF2046FDF7AAFDA0
:1056A000204610BDC8EB010810F020B810B5002846
:1056B00014BF04460124204610F010F830B900F061
:1056C0001FF808B90FF079F98047F4E710BDFFF72C
:1056D000EBBF0346084619460FF0C8B9FFF7E6BF0F
:1056E0000368DB0706D4437803B1FFDE0123437070
:1056F0001846704700207047012303607047000080
:10570000024B1868BFF35F8F704700BFC0110020C5
:105710002DE9F843314D2B685A1C80462A60002B36
:1057200058D12F4C2F4B3048304FDFF8F090304E8F
:1057300001221A702368996806F07CFA23682D48C4
:10574000596806F077FA23682B48D96806F072FA90
:105750003846254900F09CF82649484606F038FCB2
:105760003046254900F094F82349244800F090F889
:105770003369776743F4005333612368C9F878705D
:1057800099681F481F4E204F06F064FA23681F488F
:10579000596806F05FFA23681D48D9681D4C06F069
:1057A00059FA1749304600F065F91849384606F0AD
:1057B00079FC1749204600F05DF91748144900F0BC
:1057C00059F92369BE6743F4005323612B68666768
:1057D00001332B604046BDE8F88300BF2C17002042
:1057E0001403002030020020041700207C14002045
:1057F000EC110020981500205414002050160020B1
:105800002C1400207812002008130020C41100205E
:10581000DC160020C01500209C1300200815002075
:105820000D4A1368591E022B10B50446116011D1A0
:105830000A4800F080F80A4800F07DF8094800F0B6
:105840007AF8094800F069F9084800F066F9084854
:1058500000F063F9204610BD2C1700207C140020B6
:10586000EC1100205016002078120020C0150020F6
:105870009C1300200B6810B50446036053F80C0C11
:105880004B6823501146204400F0F4FC204610BD24
:1058900070B5051D044628460E4600F0B7FC054BC2
:1058A0002360143328466360314600F0E3FC204651
:1058B00070BD00BF1CEC010838B504460D4609B99F
:1058C000136800E00C4B236015B953F80C3C00E062
:1058D000042323440DB9526800E0084A1A60AA075D
:1058E00002D5201D00F030FCEB0702D52046FFF763
:1058F000DBFE204638BD00BF1CEC010830EC01087F
:1059000002210022FFF7D8BF036853F80C3C18446B
:10591000F6E710B50446FFF7F3FF2046FFF7C4FE95
:10592000204610BD036853F80C3C1844F1E70A46C2
:105930000021FFF7C1BF036853F80C3C034410B5C6
:105940000446986F50B100F02BFB013006D123685C
:1059500053F80C0C0121204400F02CFC204610BD13
:1059600038B5002303700B6853F80C3C05460B4414
:105970006960186F0C4608B15B6963B1236853F81E
:105980000C0C2044436913B901232B7006E0042159
:1059900000F010FC02E0FFF7CEFFEFE7284638BD2D
:1059A00038B54468236853F80C3C1C440546E3684A
:1059B0009B0410D508F07BFB68B9A06F58B100F0CC
:1059C000EFFA013007D16B681A6852F80C0C01210C
:1059D000184400F0EFFB284638BD37B504460D46A5
:1059E00068462146FFF7BCFF9DF8003083B123686D
:1059F00053F80C3C23442946986F00F0E9FA013033
:105A000006D1236853F80C0C0121204400F0D2FB8E
:105A10006846FFF7C5FF204603B030BD38B50368C0
:105A200053F80C3C03440546DC6F0CB907F062FDEB
:105A3000237F13B194F8271008E0204606F083FA7C
:105A400023680A219B692046984701462846FFF7AC
:105A5000C4FFFFF770FF38BD0B6810B50446036044
:105A600053F80C0C4B6823501146204400F065FCA1
:105A7000204610BD70B5051D044628460E4600F0B0
:105A800027FC054B2360143328466360314600F041
:105A900054FC204670BD00BF4CEC010838B50446EC
:105AA0000D4609B9136800E00C4B236015B953F893
:105AB0000C3C00E0042323440DB9526800E0084A7E
:105AC0001A60AA0702D5201D00F048FBEB0702D59B
:105AD0002046FFF7E9FD204638BD00BF4CEC010829
