:020000040800F2
:100000000080012091300008DD300008DD3000085C
:10001000DD300008DD300008DD30000800000000A1
:10002000000000000000000000000000ED2A0008B1
:10003000DD30000800000000792B0008D12B0008FB
:10004000DD300008DD300008DD300008DD3000085C
:10005000DD300008DD300008DD300008DD3000084C
:10006000DD300008DD300008DD300008DD3000083C
:10007000DD300008DD300008DD300008DD3000082C
:10008000DD300008DD300008DD3000080000000031
:10009000000000000000000000000000DD3000084B
:1000A000DD300008DD300008DD300008DD300008FC
:1000B000DD300008DD300008DD300008DD300008EC
:1000C000DD300008DD300008DD300008DD300008DC
:1000D000DD300008DD300008DD30000800000000E1
:1000E000DD300008DD300008DD30000800000000D1
:1000F000000000000000000000000000DD300008EB
:1001000000000000DD300008DD300008DD300008B0
:1001100000000000000000000000000000000000DF
:10012000DD300008DD300008DD300008DD3000087B
:10013000DD300008000000000000000000000000AA
:10014000000000000000000000000000DD3000089A
:10015000DD300008DD300008DD300008DD3000084B
:10016000DD300008DD300008000000000000000065
:10017000000000000000000000000000000000007F
:1001800000000000DD30000800000000000000005A
:10019000DD30000810B5054C237833B9044B13B19A
:1001A0000448AFF300800123237010BD0004002039
:1001B00000000000540C0208084B10B51BB10848A1
:1001C0000849AFF300800848036803B910BD074B26
:1001D000002BFBD0BDE81040184700BF0000000016
:1001E000540C020804040020FC030020000000005E
:1001F000154B002B08BF134B9D46A3F5803A0021F9
:100200008B460F461348144A121A15F004F90F4B87
:10021000002B00D098470E4B002B00D098470020B1
:10022000002104000D000D48002802D00C4814F0F5
:10023000C7F914F023FF2000290000F08BF914F017
:1002400025FA00BF00000800008001200000000027
:10025000391900080004002060280020C145010869
:10026000A94A0108024BDA685B681B0413607047F7
:100270004C04002010B5054B0360044604F0F6FB67
:10028000204604F0D1FC204610BD00BF00E3010869
:10029000064B0748DA685B681360064B83610023EE
:1002A000C36247F2305104F0E9BB00BF4C040020A8
:1002B0001C0400206502000810B50446FFF7DAFFB1
:1002C000204604F0EDFF204610BD000010B50D4C97
:1002D00010222046002115F09EF820460A4C0521E8
:1002E00004F0CAFC204604F08BFC0023A361E36207
:1002F000064B236020460649064ABDE8104004F03C
:10030000E4BF00BF4C0400201C04002060E301088F
:10031000750200089401002070B590E86000044662
:10032000B54206D0286810B103685B689847083565
:10033000F6E704F1300001F02DF804F1140001F0AB
:1003400049F8E06804F10C03984204D0056804F011
:10035000A7FF2846F6E7206808B104F0A1FF204671
:1003600070BD70B5054686B04FF0FF3105F1140041
:1003700001F02AF8FFF78CFFEC68A668204604F02D
:10038000CAFF204604F08CFF00243368009305F177
:100390002C0069468DF80540029403940494ADF84E
:1003A000144000F0DDFB029834710028DCD004F02A
:1003B00077FFD9E7F7B5054695E89000BC4223D012
:1003C000206803681B699847E0B12679D6B9206890
:1003D00003680DF107019B68012298479DF80730DB
:1003E000CC2B0FD1012323710C2004F05BFF05F10E
:1003F0000C0106604660846004F086FF05F114007D
:1004000000F0E5FF0834D9E7282001F03AF8D3E7F7
:1004100010B5054C204604F083FF20460349044AEA
:10042000BDE8104004F051BF5C04002031540008C6
:10043000940100207047FFF7BDBF01F005B910B56A
:10044000044604F02DFF204610BDF8B5436804684B
:100450001C1BA41014BF234601231C1907460E467B
:1004600002D2B4F1804F21D36FF04044A00004F0D9
:1004700019FF054697E80C009B1ADD42326818BF49
:10048000EA5097E84200761AB30803D0284632466D
:1004900014F0A6FF386804362E4408B104F000FFBB
:1004A00005EB840487E86000BC60F8BD002CDDD15A
:1004B0002546DFE7F8B5436804681C1BE41014BF49
:1004C000234601231C1907460D4602D2B4F1005FF2
:1004D0002AD36FF06044E00004F0E4FE064697E89B
:1004E00003000B1A16EB030E1FBF2A68F2502B797C
:1004F0008EF80430324603468B4207D01AB11D688D
:1005000015601D79157108320833F5E71D1A25F0BD
:1005100007050835354408B104F0C2FE06EBC404F3
:100520003E607D60BC60F8BD002CD4D12646D6E785
:1005300010B5054C204604F0F3FE20460349044A5A
:10054000BDE8104004F0C1BE88040020315400080A
:100550009401002070B50425C2B0FFF799FE8C20ED
:1005600000F08FFF013DF8D14A4E4B4C04A8052105
:1005700003F02CFF336813F0010F14D1304604F060
:10058000ABFE80B1304625606560A560E560256101
:100590006561A561E561256204F0AAFE20463F4938
:1005A0003F4A04F092FE182004F07CFE06463D4BC4
:1005B0000021818046F8083B10220546304614F0A1
:1005C0002AFF3046132104F057FB23696269039523
:1005D000934205D003B11D6023690433236103E016
:1005E000314803A9FFF731FF00240CAB21460EA8C8
:1005F0000C930D9309940A940B9400F0D2FE42AB35
:1006000012AA43F8BC2D15A8149300F0ABFEB42039
:1006100004F048FE022203238DE80C002349244AFB
:100620000623054600F0A8FF0A9B0B9A2E959342DD
:100630008DF8BC4005D00BB11D601C7108330A93C6
:1006400003E009A82EA9FFF735FF00244FF4006648
:100650002A462346009601941AA8164900F0C2FEC5
:100660001549009609AA234601942EA800F0BAFE67
:1006700009A8FFF776FE2EA800F0E4FE2EA800F0F1
:10068000E5FE1AA800F0E2FE09A8FFF745FE2046A5
:1006900042B070BD8404002060040020BD06000844
:1006A0009401002020DF01086C04002028DF0108ED
:1006B0002EDF01083B0400083704000810B504468B
:1006C00094E80C009A4212D053F8040C10B103685D
:1006D0005B6898476368043B6360F1E753F8040C78
:1006E00010B103685B6898472369043B2361236961
:1006F000E2689A42F2D108E053F8040C10B10368A2
:100700005B689847E369043BE361E369A069984249
:10071000F2D108B104F0C4FDE06808B104F0C0FDF6
:10072000206808B104F0BCFD204610BD002370B560
:1007300004460E4615460B7035B3637943B921461E
:10074000012251F8040B03689B68984708236371E2
:1007500060792179A84234BFC2B2EAB253B2C01A5A
:1007600041FA00F031789940014331706079C11A43
:1007700001238B402179D2B2013B801A0B40AA1A87
:1007800023716071D5B2D7E770BD0000F8B58268FB
:100790004368934206460D4606D00A7803B11A70A4
:1007A000736801337360F8BD04681B1B5A1C02D1C7
:1007B00016480CF0A1FC002B14BF1C460124E418C1
:1007C00001D23CB101E04FF0FF34204604F06AFD55
:1007D000074600E0274696E80C009B1ADF422A787D
:1007E00018BFFA5496E80600551A03D038462A4630
:1007F00014F0F6FD306801353D4408B104F050FDB9
:100800003C4437607560B460F8BD00BF37DF010855
:10081000838903F00703C3F108039BB2082BF7B5E4
:1008200005460E46144617D09A42174628BF1F4663
:10083000E41BE1404268C8B2FF21B94020EA01014F
:10084000DB1B01FA03F312F8011C0B4302F8013C15
:10085000AB891F44A4B2AF81E3080DD0083C02A9C4
:10086000A4B226FA04F301F8013D2846FFF78EFFF3
:10087000AB890833AB81EFE75CB1C4F1080302A98F
:100880009E4001F8016D2846FFF780FFAA891444B5
:10089000AC8103B0F0BD838903F00703C3F1080303
:1008A0009BB2082BF7B505460E46144618D09A425F
:1008B000174628BF1F46E41B426841FA04F0FF2197
:1008C000B94020EA0101C9B2DB1B01FA03F312F8B7
:1008D000011C0B4302F8013CAB891F44A4B2AF8159
:1008E000E3080DD0083C02A9A4B246FA04F301F8CB
:1008F000013D2846FFF74AFFAB890833AB81EFE79C
:100900005CB1C4F1080302A99E4001F8016D2846BC
:10091000FFF73CFFAA891444AC8103B0F0BD00008E
:100920002DE9FF41CB688D6814465D1B4FF0000236
:100930000E4600920192029204D0284604F0B2FCC6
:10094000034600E02B46B168F26800931D4402950F
:10095000551A019304D018462A4614F041FD034667
:100960005A192178B38AADF80C3033680192684681
:1009700001F007012022DD68FFF74AFF2188684661
:10098000C1F384112022FFF743FF21786846C1F3A9
:10099000C2012022FFF73CFF1E48009904F073FFBC
:1009A0006768ADB207EB0508474506D0684617F8FB
:1009B000011B0822FFF76FFFF6E704F1080704F1B7
:1009C0000B0817F8011B68460822FFF764FF47452C
:1009D000F7D1E7683D44AF4206D0684617F8011BDF
:1009E0000822FFF758FFF6E704F11005133415F855
:1009F000011B68460822FFF74EFFA542F7D130469B
:100A000000F0DAF8009808B104F04AFC04B0BDE840
:100A1000F08100BF781400202DE9F047D1F8008064
:100A200098F80C50B8F80C708CB00C460646294665
:100A300002A800F0EFF8294607A800F0EBF82046DE
:100A40000DF107010322FFF771FE9DF808309DF8B4
:100A50000720204662F302030DF1070105228DF8FD
:100A60000830FFF763FEBDF808309DF807200399B2
:100A700062F38A1320463A46ADF8083000F0B4F825
:100A8000204604A9032200F0AFF8204605993A4613
:100A900000F0AAF8204606A9032200F0A5F8BDF848
:100AA0000850DDF814A0D8F80490C5F3841550461A
:100AB00049462A4614F079FC90B906A8D8F80810DF
:100AC000032214F072FC58B9504624492A4614F007
:100AD0006CFC28B906A82149032214F066FC20B159
:100AE0009DF8082012F0300F08D007A800F0AEF8EB
:100AF00002A800F0ABF80CB0BDE8F0879DF81C3000
:100B0000089862F302038DF81C30BDF81C300222F5
:100B100065F38A13ADF81C30494662F3C5033A46C3
:100B20008DF81C3014F051FCD8F8083003991A885D
:100B30000A989B78ADF824203A468DF8263014F0B8
:100B400044FC049BADF82C3030461B0C214607AA10
:100B50008DF82E30FFF7E4FEC7E700BF31DF010854
:100B600037B505460C46084605220DF10701FFF78B
:100B7000DDFD9DF8073033B1012B08D12846214611
:100B8000FFF74AFF03E02868214600F001FB03B0AD
:100B900030BD000010B5054C204604F0C1FB2046D6
:100BA0000349044ABDE8104004F08FBB89040020CB
:100BB000315400089401002013B502A9CC23044647
:100BC00001F8013D006803680122DB68984720684E
:100BD000E268A1680368521ADB689847A368E3607B
:100BE0000023A38202B010BD006803689B68184709
:100BF00010B5054C204604F093FB20460349044AF7
:100C0000BDE8104004F061BB8A04002031540008A4
:100C10009401002038B5037803F0F8036FF3C5039F
:100C2000037003886FF38A13038000230446038153
:100C300083720382837408460D4604F04BFB6060A8
:100C4000284604F047FBE060204638BD10B5044656
:100C5000C06808B104F037FB606808B104F033FBEA
:100C6000204610BD10B5054C204604F059FB204627
:100C70000349044ABDE8104004F027BB8B04002060
:100C8000315400089401002070B50E4E346814F001
:100C9000010415D1304604F01FFB88B10A4D3046DF
:100CA0002C606C60AC60EC602C616C61AC61EC61E0
:100CB0002C6204F01DFB28460449054A04F005FB9C
:100CC000014870BD8404002060040020BD060008B7
:100CD00094010020002370B504460E4615460B8093
:100CE00035B3637943B92146012251F8040B0368F7
:100CF0009B6898470823637160792179A84234BFC3
:100D0000C2B2EAB253B2C01A41FA00F03188994037
:100D1000014331806079C11A01238B402179D2B21D
:100D2000013B801A0B40AA1A23716071D5B2D7E734
:100D300070BD37B51D46BDF8183001F108043220EA
:100D40000968009001339BB220468968023200F0A6
:100D500093FA204629460622FFF79DFD20469DF87E
:100D60001C100222FFF797FD03B030BD37B54FF0DE
:100D7000010E00258DE820400C46FFF7DAFF2046E3
:100D800003B0BDE83040FFF717BF838903F00703C6
:100D9000C3F108039BB2082BF7B505460E4614466F
:100DA00018D09A42174628BF1F46E41B426841FAF2
:100DB00004F0FF21B94020EA0101C9B2DB1B01FAAE
:100DC00003F312F8011C0B4302F8013CAB891F44EA
:100DD000A4B2AF81E3080DD0083C02A9A4B246FA40
:100DE00004F301F8013D2846FFF7D0FCAB89083336
:100DF000AB81EFE75CB1C4F1080302A99E4001F8A2
:100E0000016D2846FFF7C2FCAA891444AC8103B0E7
:100E1000F0BD00002DE9F3471D4682460F4691467E
:100E200001F10808FFF730FF064609C8181A8410B8
:100E300007D0B4F1804F01D30CF055F904F032FA29
:100E4000044696E80600521A961002D0204614F086
:100E5000C7FA1B491B4804F000FD04F0E7FB06EB52
:100E6000460301339BB200930123019350462B4666
:100E700039464A46FFF75DFF4046F1B20822FFF7C8
:100E80000AFD0025B5420DD0294640460822FFF74D
:100E9000BFFC54F82530404699881022FFF775FFB3
:100EA0000135EFE73846FFF787FE2CB1204602B048
:100EB000BDE8F04704F0F4B902B0BDE8F08700BF28
:100EC00053DF0108781400202DE9F3471D468246C0
:100ED0000F46914601F10808FFF7D6FE0369064662
:100EE000C068181A841007D0B4F1804F01D30CF0F9
:100EF000FAF804F0D7F90446F1683269521A9610EC
:100F000002D0204614F06CFA1A491B4804F0A5FCE4
:100F100004F08CFB06EB460301339BB200930123E4
:100F2000019350462B4639464A46FFF702FF40469A
:100F3000F1B20822FFF7AFFC0025B5420DD02946DB
:100F400040460822FFF764FC54F825304046998853
:100F50001022FFF71AFF0135EFE73846FFF72CFEA6
:100F60002CB1204602B0BDE8F04704F099B902B0B8
:100F7000BDE8F08760DF0108781400202DE9F34711
:100F80001D4682460F46914601F10808FFF77CFE98
:100F9000C36906468069181A841007D0B4F1804FDF
:100FA00001D30CF0A0F804F07DF90446B169F269B0
:100FB000521A961002D0204614F012FA1A491B4811
:100FC00004F04BFC04F032FB06EB460301339BB20A
:100FD00000930123019350462B4639464A46FFF7BA
:100FE000A8FE4046F1B20822FFF755FC0025B542A5
:100FF0000DD0294640460822FFF70AFC54F8253058
:101000004046D9881022FFF7C0FE0135EFE7384689
:10101000FFF7D2FD2CB1204602B0BDE8F04704F046
:101020003FB902B0BDE8F0876FDF010878140020F7
:101030002DE9F04385B00C468146904608461022C3
:101040000DF10E011F46FFF745FE1D491D4804F036
:1010500004FC04F0EBFAFFF717FE8369C269BDF8E0
:101060000E10D21AB1EBA20F04F1080612D253F8F7
:1010700021507DB12B7A00930123019348462146EC
:101080003B464246FFF755FE2B682846DB68314653
:1010900098470FE0022201238DE80C0048462146C4
:1010A00042463B46FFF745FE3046BDF80E10102283
:1010B000FFF76BFE2046FFF77FFD05B0BDE8F0832C
:1010C0007CDF01087814002073B50C4606461546EF
:1010D000084606220DF10601FFF728FB20460DF118
:1010E00007010222FFF722FB9DF80630042B2CD8C3
:1010F000DFE803F0030B131B2300304621462A468A
:101100009DF80730FFF732FE29E0304621462A4697
:101110009DF80730FFF77EFE21E0304621462A4643
:101120009DF80730FFF7D0FE19E0304621462A46E9
:101130009DF80730FFF722FF11E0304621462A468E
:101140009DF80730FFF774FF09E00649064804F0F0
:1011500084FB9DF8061004F0E1FB04F067FA02B08E
:1011600070BD00BF8BDF0108E811002010B5054CF1
:10117000204604F0D5F820460349044ABDE8104053
:1011800004F0A3B88C04002031540008940100201E
:101190002DE9FF410C460F680322064608460DF173
:1011A0000301FFF7C3FA9DF804309DF803202046A1
:1011B00062F302030DF1030108228DF80430FFF7FA
:1011C000B5FA9DF803308DF80530002B4ED020463F
:1011D0000DF106010322FFF707FD20460DF109017D
:1011E0000322FFF701FD0023ADF80C3010256379D1
:1011F00043B92146012251F8040B03689B689847C4
:10120000082363716279BDF80C0094F804E0AA42E7
:1012100034BFD3B2EBB259B2C1EB020C884001210A
:10122000DBB201FA0CF14EFA0CF80139ED1A48EA7A
:10123000000001EA0E01D21A15F0FF05ADF80C000E
:1012400021716271D3D10DF10900B968032214F044
:10125000ACF830B90DF109000649032214F0A5F8E5
:1012600020B13068214601AAFFF72EFF04B0BDE887
:10127000F08100BF31DF01082DE9F34105460F463B
:101280001446002105221E46FFF705FB28460021D3
:101290000322FFF700FB28469DF820100822FFF7E5
:1012A000FAFA07F1030817F8011B28460822FFF78E
:1012B000F2FA4745F7D1E71C14F8011B284608222B
:1012C000FFF7E9FABC42F7D1AC8904F00704C4F196
:1012D00008039BB2082B11D06868C3F11001FF22EC
:1012E0009A4046FA01F121EA020210F8011C0A4371
:1012F00000F8012CAA89083413440EE01024E308F6
:101300000DD0083C02A9A4B246FA04F301F8013D4D
:101310002846FFF73BFAAB890833AB81EFE75CB1B6
:10132000C4F1080302A99E4001F8016D2846FFF7A9
:101330002DFAAB891C44AC8102B0BDE8F0810000FD
:1013400010B5054C204603F0EBFF20460349044A44
:10135000BDE8104003F0B9BF8D04002031540008EF
:101360009401002038B500F10805044600210C2244
:10137000284614F050F8204640F8045F00F09EFC28
:10138000206010B9024803F065FC204638BD00BF5C
:10139000B5DF010810B50446006800F0ABFC20463C
:1013A00010BD70B500F1080504460E460822284617
:1013B000002114F030F82046314640F8045F00F078
:1013C000FBFC2060204670BD006800F013BD006883
:1013D00000F01EBD10B50446006800F037FD204641
:1013E00010BD000070B5049D0446059825611646A1
:1013F000124A2260A160A381AD0810B16061002390
:1014000009E0B5F1FE5F94BFA8004FF0FF3003F094
:1014100061FF0123606184F84C300023AB4205D0AA
:101420006269074942F823100133F7E704F1080025
:10143000314600F09DFB6060204670BDE8DF01088A
:10144000A52E5AE2406800F0B1BB000010B5074B72
:1014500003600446FFF7F6FF94F84C301BB1606957
:1014600008B103F030FF204610BD00BFE8DF0108DF
:1014700010B50446FFF7EAFF204603F011FF2046AF
:1014800010BD00F0A9BB70474A680B6812F0010F4D
:101490004FEA620218BF8158104418BFCB58184752
:1014A00010B5044603F0FCFE204610BD08B5103010
:1014B00003F090FA003018BF012008BDF8B50646C9
:1014C0000C4615468F18BC420CD006F1100003F0F4
:1014D00081FA0028F9D006F1640014F8011B03F02A
:1014E00047FBF0E72846F8BDF8B5044616460D461A
:1014F0008F18BD4226D004F1A4004FF0FF31FFF752
:1015000063FFD4F884301B7805F8013BD4F88C20B5
:10151000D4F88430013A934201D001330FE0D4F87B
:10152000880003F0BDFED4F890301A1DC4F8902056
:101530005B68C4F8883003F50072C4F88C20C4F8E6
:101540008430D6E73046F8BDD0F89020D0F8A030EF
:10155000D0F898109B1AD0F894209B10521A013B97
:10156000D0F8841002EB4323D0F88C20521AD342D7
:1015700014BF0120002070472DE9F041C3602F4BBC
:10158000416004469DF9181082609DF91C2040F8C6
:10159000103B002303F0CEF900250823C4F8803067
:1015A000E567C4F88450C4F88850C4F88C50C4F877
:1015B0009050C4F89450C4F89850C4F89C50C4F8A3
:1015C000A050202003F06EFED4F88060E067013E5A
:1015D0007608074600EB86084FF4007003F062FEC1
:1015E00047F82600C4F8908057F82620C4F88820D1
:1015F00002F50073C4F88C30C4F8A08057F8263088
:10160000C4F8983003F50071C4F89C10C4F8842025
:10161000C4F89430294604F1A400FFF7C2FE084B39
:101620006363084B246304F11400A56363642946D3
:10163000012203F091F82046BDE8F081F8DF0108AF
:101640007D1700088914000808B50446D4F89020D6
:10165000D4F8A030D4F898109B1AD4F894209B109A
:10166000521A013B02EB4323D4F88410D4F88C20A7
:10167000521A04F1640004491A4403F08FFA4FF43B
:101680007A70FFF7FEFEE1E710E001082DE9F04770
:10169000426A056843680F46511BA3EBA10101296B
:1016A000044656D84169561AB610013606F10108AB
:1016B000B3EB480F15D9C8EB03035B0805EB8305B3
:1016C00004328D42A2EB010203D293082FD02846A8
:1016D00004E093082BD0C2EB8600284413F080FE70
:1016E00025E0002B14BF99464FF0010902339944BD
:1016F000B9F1804F01D30BF0F6FC4FEA890003F0FB
:10170000D1FD626A61690432C8EB0905521A6D089D
:101710009308824600EB850502D0284613F060FE50
:10172000206803F0BDFDC4F800A0C4F80490656112
:101730002B68E36006F1804603F50073013E2361E8
:1017400005EB8603636255F82630E36103F5007309
:1017500023624FF40070656A03F0A4FD6860A3691A
:101760003A7803B11A70636A1A1D62625B68E361BA
:1017700003F500722262A361BDE8F08713B5044649
:1017800004F1100003F022F900B304F1640003F047
:10179000FBF9D4F89C20D4F89430013AC0B29342BB
:1017A0008DF8070007D003B11870D4F894300133D6
:1017B000C4F8943005E004F17C000DF10701FFF757
:1017C00065FF04F1A400FFF702FED9E702B010BDE7
:1017D00010B5064B036003F118024C330446426512
:1017E0008365543003F0B2F9204610BD90E2010841
:1017F000A0F15400FFF7ECBFA0F15800FFF7E8BFDD
:1018000070B50F4B044640F8A43BFFF7E3FDE36FD0
:10181000D4F89050D4F8A0605BB10436B5422B46A2
:1018200004D21868043503F03BFDF7E7E06F03F0DE
:1018300037FD04F11000FFF7CBFF204670BD00BF5D
:10184000F8DF010810B50446FFF7DAFF204603F081
:1018500027FD204610BD10B50446FFF7B9FF20460E
:1018600003F01EFD204610BDA0F15400F3E7A0F1E7
:101870005800F0E710B5054C204603F051FD204616
:101880000349044ABDE8104003F01FBD8E04002048
:101890003154000894010020436AF0B5C46A23F073
:1018A000030323445A0748BF043B4FF0807203E907
:1018B0000600A3F14005A3F14402A3F10C060027A2
:1018C00042F8047FB242FAD1C26943F8202CC378AF
:1018D0008562012B18BF024B016318BF2360F0BD66
:1018E000A52E5AE290F82020836A0AB1603300E006
:1018F00020331960704710B590F82040836A0CB10E
:10190000603300E0203383E8060010BDFEE701F0FD
:1019100077B908B101F074B9704700000449054A6D
:10192000C1F1005303F5BE339360D160704700BF2F
:1019300060280020980100200020002104460D4668
:10194000094812F03DFE13F099FB2046294600F0AD
:1019500073F8FFF7E3FF0548002100F009F900F0F4
:101960007FF812F093FE0000A94A010898010020B8
:1019700038B1830704D10378002B18BF00207047CB
:101980000020704700B5DFF80CC000DFDFF808C0AA
:1019900000DFFEE73D1B0008551B00080B4A1368DB
:1019A00030B5002433B11D89A94203D31C46491B1D
:1019B0001B68F7E789B20360018113B11D89691AB9
:1019C00019810CB1206030BD106030BD7C0F00204B
:1019D000431C11D00B4B984211D80B4B1B684FF492
:1019E0007A715A1E01FB0020B0FBF3F04FF6FE7334
:1019F000984228BF184670474FF6FF7070474FF661
:101A0000FE70704700093D0028E0010838B5084C19
:101A1000257855B900F0ACFF064B1B68FF229A7081
:101A20002846FFF776FF01232370002038BD00BF52
:101A3000780F0020C40F002010B5EFF305845CB9C7
:101A4000EFF31484E40703D4BDE81040FFF7DEBFD2
:101A5000DFF808C000DF10BD822010BD0D1A00089D
:101A600010B588B0EFF3058434BBEFF3148404F0B1
:101A70000304022C0CD0032C16D0012C1ED008AC71
:101A800084F309880F4C2478E40705D5022404E088
:101A90000C4C2478E4070BD4032484F31488BFF39C
:101AA0004F8FBFF36F8F03E0064C2478E40705D413
:101AB000DFF814C000DF02E0822000E0FF2008B061
:101AC00010BD00BF24E00108911E00082DE9F84375
:101AD0008946044650B1036843B18588EB1C9BB22C
:101AE000062B03D883680BB1C2682AB98020FFF7A0
:101AF00010FF0020BDE8F8834363C26300F11006C5
:101B000000F050FE0B4F00F1FF38291D47F8286008
:101B1000C9B22268E074C4F82C90304600F054FE3C
:101B2000304600F06FFE57F82800034A836A5A6374
:101B3000BDE8F883140D00208519000808B500F0F1
:101B40009DFE18B10138024B53F8200008BD00BFBC
:101B5000140D002008B5FFF70BFF38B1C07800F076
:101B6000CFFEFF280CBF8120002008BD802008BDCB
:101B700070B505460C46EFF3058686B9EFF314867B
:101B8000F60706D4074E36781EB9BDE87040FFF759
:101B90009DBF28462146DFF810C000DF70BD002041
:101BA00070BD00BF800F0020CD1A000810B5EFF304
:101BB00005841CB9DFF808C000DF10BD822010BD0D
:101BC000551B000808B530B1FFF702FF80B200F0E6
:101BD0005BFF402008BD08BD10B5EFF305841CB9BC
:101BE000DFF808C000DF10BD822010BDC51B000853
:101BF000830704D128B10369C1681B6803E000238F
:101C000000E003461946184670470000F8B5134B2C
:101C10001C681F460CB32389013B23812389E3B948
:101C20000F4B26681D683E6055B12B78012B07D1FC
:101C3000284600F051FB18B12846214600F050FB21
:101C40006379012B04D120466189FFF7A7FE01E0EB
:101C5000012323710EB13446E0E7F8BD7C0F00206C
:101C6000740F002010B504460846DFF80CC000DFF2
:101C700084E80300204610BDF11B000810B520B910
:101C80008020FFF746FE002010BD0468002CF7D02E
:101C90002378002BF4D1204600F0DFFB204610BD56
:101CA00010B510F0030407D130B10378032B03D132
:101CB00000F0DCFB204610BD802010BD30B504468E
:101CC000EFF305857DB9EFF31485ED0706D4074DD5
:101CD0002D781DB9BDE83040FFF7D0BF2046DFF8B2
:101CE00010C000DF30BD002030BD00BF800F0020DD
:101CF0007D1C000810B5EFF305841CB9DFF808C09F
:101D000000DF10BD822010BDA11C000838B520B92D
:101D10008020FFF7FEFD002038BD0468002CF7D0BE
:101D20002578002DF4D1B1F5803F01DB8620F0E766
:101D3000204689B200F008FC204638BD38B510F0C6
:101D4000030405460FD170B10378022B0BD108466E
:101D5000FFF73EFE81B2284600F040FC012805D086
:101D60006888013038BD4FF0FF3038BD204638BD9F
:101D700010B510F003040CD158B10278022A08D132
:101D800042884FF6FF739A4205D000F011FC2046BE
:101D900010BD802010BD812010BD10B510F00304CF
:101DA00007D130B10378022B03D100F0D3FB2046DA
:101DB00010BD802010BD000070B505460C46EFF345
:101DC000058686B9EFF31486F60706D4074E3678F3
:101DD0001EB9BDE87040FFF799BF28462146DFF8DD
:101DE00010C000DF70BD002070BD00BF800F00205C
:101DF0000D1D000810B5EFF305841CB9DFF80CC009
:101E000000DF10BD4FF0FF3010BD00003D1D000889
:101E100038B5EFF305847CB110F0030410D178B12C
:101E20000378022B0CD142884FF6FF739A4209D0F7
:101E300000F0F0FB204638BDDFF80CC000DF38BDF5
:101E4000802038BD812038BD711D000810B5EFF32A
:101E500005841CB9DFF808C000DF10BD822010BD6A
:101E60009B1D000810B5044618B1016809B140680F
:101E700020B98020FFF74DFD002010BD0378002B16
:101E8000F7D10431890089B200F0C6F9606810BD4D
:101E900038B5104D2C78D4B921460F48FFF7E2FF32
:101EA0000E4B214618600E48FFF710FE0D4B2146E1
:101EB0001860204600F0EAFC0B4A13689B6A203346
:101EC00083F30988146000F0C1FD01232B7000200A
:101ED00038BD00BF800F0020DC010020740F0020FF
:101EE000E4010020700F0020C40F00202DE9F04F06
:101EF0000C4685B08046E8B10378012B1FD1084617
:101F0000FFF766FD02A982B2404600F093F901286E
:101F100006D10020002C0246034618BF402003E0F3
:101F20000020024603461020029904460D4616463C
:101F30001F4608E0802405460646074603E00025C4
:101F400080242E462F462046294632463B4605B081
:101F5000BDE8F08F7FB5044616460846EFF30581CD
:101F6000A9B101AD00B10AB180230AE00378012BC9
:101F7000FAD102A900F0BBF9042801D0019601E0D2
:101F80001023019395E8070084E8070005E0114657
:101F9000DFF80CC000DF84E80700204604B070BD05
:101FA000ED1E00087FB50A4B03A819684FF0FF32F9
:101FB000FFF7D0FF039B102BF5D101A80499FFF781
:101FC00051FE019B002BEED002989847EBE700BF33
:101FD000740F002010B5038B42781943062A04467B
:101FE0000183438B04D101EA03029A4219D105E02F
:101FF000052A16D111EA030213D0428321EA030114
:102000002183204600F0D4F8012320466370082184
:10201000628BFFF770FC21460248BDE8104000F0DB
:1020200003B810BD9C0F002030B502788C7843684F
:10203000013AD2B22BB19D78A54202D318465B6813
:10204000F8E7022A4B60416003D803B199608860C9
:1020500030BD00238B6030BD02784368013A596877
:102060004160022A4FF0000204D809B188605A602A
:102070009A6000E05A60184670470000034B5A68A7
:102080004260002282605860704700BF9C0F0020B1
:10209000114BDA6810B50AB19A8A0CE000248A1A4A
:1020A000C460D86003619A82848210BD002CF5D090
:1020B000A38A1A4423468A42DC68F7D3C460D860F6
:1020C000C468036104B12061521A92B28282998A73
:1020D0008A1A9A8210BD00BF840F002038B5194DAE
:1020E000EB68002B2CD0AB8A013BAB82AA8A002A7A
:1020F00026D1144BDC681CB3A3683BB161685960FE
:10210000616809B18B6062600023A3600E482146BC
:10211000FFF78AFFA38AAB826378042B01BF0B4BC6
:102120001A68E38A9B1808BFA38201236370E368DF
:10213000EB60002213B103491961E2602261D5E727
:1021400038BD00BF840F00209C0F0020001000202D
:10215000836853B9084B5A68824202D142685A6078
:1021600070471346002AF6D1704742685A604268A9
:1021700002B19360704700BF9C0F002038B584689F
:10218000054624B94378012B0ED1084C03E023788F
:102190000BB9A468FBE72846FFF7DAFF204629467B
:1021A000BDE83840FFF740BF38BD00BF9C0F00209E
:1021B000036910B573B1C268DA60C2683AB1998A2E
:1021C000848A2144998213610023C36000E09A82CB
:1021D0000023036110BD000030B50E4BDD78EFF336
:1021E000108272B69A78AA4207D201329A701A788F
:1021F000541CAC4208BF00241C7062B6AA4204D230
:1022000003EBC2035860996030BD0220BDE8304046
:10221000FFF77DBB900C0020012310390370890863
:102220000023437083704360038143818381C181B4
:102230007047000070B5858904461646002D34D0DD
:1022400043891A1D013350F822200A60C2899BB2CB
:102250009A42438104BF002343814368EBB1437832
:10226000022B1AD1FFF7F8FE00210546FFF73AFBD3
:102270002389E9691A1D013344F82210E2899BB2CF
:102280009A42238108BF0023284608BF2381FFF715
:102290008FFF284600F0B6FA05E0EFF3108372B620
:1022A000013DA58162B6002070BD82B14268094B34
:1022B0001AB11968FFF7B8FE05E01B6843605A6061
:1022C0009860012343703046082100F0BDFA0120D8
:1022D00070BD00BFC40F0020C2898089101A7047EA
:1022E00008B5FFF779FFBDE8084000F0B5B983896C
:1022F00010B50446EBB14389043350F823300B602A
:102300004378022B04D10021FFF766FF00F0A4F907
:10231000EFF3108372B6A389013BA38162B6638990
:10232000E28901339BB29A42638104D10023638125
:1023300001E0184610BD042010BD0000426870B5D1
:1023400004460E46002A4AD04578022D1CD0032DA3
:102350000AD0012D5DD1FFF77FFE044610213246E1
:10236000FFF7C9FA657034E0084600F055F80546F5
:1023700000284ED02046FFF76FFE29460446FFF79F
:10238000B1FA0123637024E0FFF766FE00210546E1
:10239000FFF7A8FA2389E9691A1D44F82210EFF320
:1023A000108272B6A2890132A28162B6E28901333B
:1023B0009BB29A42238104BF002323810123284634
:1023C0006B70FFF7F5FE13482946BDE87040FFF734
:1023D0002BBE2046FFF7ECFE0E482146F5E781892B
:1023E000C089814210D223891D1D44F82560EFF376
:1023F000108572B60131A18162B601339BB283426E
:1024000014BF2381228170BD0320BDE87040FFF717
:102410007EBA70BD9C0F0020EFF3108372B6026885
:1024200003F001030AB11168016003B962B61046F6
:10243000704781420DD3436899420AD2EFF310836B
:1024400072B602680A60016013F0010003D162B63F
:10245000704701207047002070470323037000235A
:10246000437043804360836070470000438870B5C9
:1024700004464BB1836842789A70174B80681B689A
:10248000984201D0FFF77AFE656885B12046FFF7D4
:10249000E3FD00210546FFF725FA2846FFF788FEF1
:1024A00001236B700D482946FFF7BEFDECE70B4892
:1024B00043686BB1084E9A7831688B789A4207D995
:1024C000FFF7B2FD336801225A70284600F09AF9EE
:1024D0000020207070BD00BFC40F00209C0F0020A2
:1024E000034B00221A60034A1268DA80704700BF6B
:1024F000B40F002034E0010808B5104B10485A68AA
:10250000104B196891421FBF1A60DA8802F1FF313F
:1025100002681CBF52189A809A8803889A420BD18D
:10252000084B064800221A60FFF796FDBDE80840F8
:1025300001460248FFF778BD08BD00BF9C0F002090
:1025400000100020B40F002002230370002343601A
:102550004180704770B50446656885B12046FFF735
:102560007BFD00210546FFF7BDF92846FFF720FE59
:1025700001236B700C482946FFF756FDECE70A482B
:1025800043686BB1094E9A7831688B789A4207D9C3
:10259000FFF74AFD336801225A70284600F032F9ED
:1025A0000020207070BD00BF9C0F0020C40F0020D1
:1025B000426810B562B1FFF74FFD01210446FFF7F5
:1025C00091F92046FFF7F4FD204600F01BF902E0E8
:1025D000428801324280002010BD0000428810B5C0
:1025E0000C461AB1013A4280002010BD71B1416819
:1025F000074A19B11168FFF717FD03E0126842603E
:10260000516090602046072100F01EF9012010BDA6
:10261000C40F002008B50021FFF7DEFDBDE808402B
:1026200000F01AB8426810B57AB1FFF715FD0446FC
:10263000FFF7BEFD012161702046FFF753F92146E7
:102640000448BDE81040FFF7EFBC428801324280E9
:1026500010BD00BF9C0F0020054B1B7823B9054B14
:102660004FF080521A607047034B01221A70704776
:10267000C10F002004ED00E0C00F002038B5184B5A
:10268000184D186801234370FFF7F8FC6C78AA789E
:10269000144BEAB103EBC403586802781AB91989DC
:1026A000FFF798FC07E0012A03D19968FFF746FE7F
:1026B00001E0FFF7B7FFEB7801349C4208BF00242C
:1026C000EFF3108372B6AB78013BAB7062B6DEE716
:1026D0005C700548FFF7C0FCBDE8384000F08AB8E0
:1026E000C40F0020900C00209C0F0020084B1A689B
:1026F000084B1A6000225A60072243F8042C064A4D
:10270000136843F07F4313604FF0FF30704700BF02
:1027100030E0010814E000E020ED00E07047000028
:1027200008B50B4B186801234370FFF7A7FCFFF7B0
:10273000E3FE084A136801331360FFF7CFFCFFF78D
:1027400065FA0548FFF788FCBDE8084000F052B87C
:10275000C40F0020001000209C0F0020084B1B68B5
:10276000DA78012A0AD0DA6A9B6A9A4203D8126898
:10277000044B9A4202D00120FFF7C9B8704700BF4E
:10278000C40F0020A52E5AE208B50448FFF764FCE8
:10279000034B58600223437008BD00BF9C0F00200C
:1027A000C40F0020064B1A88064B0120904204D823
:1027B00053F8041F11B10130F8E70020704700BF43
:1027C00022E00108100D002030B50024012504701E
:1027D0004570817044608460C46004618482C482F6
:1027E0000483448380F820401146BDE83040FFF761
:1027F00053B80000024B586002234370704700BF7B
:10280000C40F002070B5044618B9BDE87040FFF74A
:10281000BBBF0B4DA278286883789A424FF001061F
:1028200007D9FFF72BFC2B685E7002236C60637086
:1028300070BD667021460348BDE87040FFF7F4BBE9
:10284000C40F00209C0F002038B50D46014678B11A
:102850004FF6FF739842074C02D02068FFF718FC30
:10286000236805485D70FFF7F7FB02236060437043
:1028700038BD00BFC40F00209C0F0020024B186819
:1028800000B1C078704700BFC40F002010B588B9F0
:10289000174B1B689970174843689B788B4222D965
:1028A000134C2168FFF7C0FB236801225A70FFF721
:1028B0006BFF18E0104B1B88984216D801380F4B5D
:1028C00053F820408CB10A4BA1701B689C42E2D0A7
:1028D0002046FFF753FC6378012B04D10548FFF72E
:1028E000BBFBFFF78FFF002010BDFF2010BD00BF16
:1028F000C40F00209C0F002022E00108140D0020CE
:1029000070B5184D18B12B68DB78984213D12E683A
:102910000024747000F0BFF8B062FFF71FFF2A6850
:102920001149D3782C60013B41F82340D462FFF772
:102930002BFF204670BD0D4B1B8898420FD8441EBC
:10294000094E56F8245055B12846FFF701FC284699
:10295000FFF72EFC002046F82400E86270BDFF203F
:1029600070BD00BFC40F0020140D002022E001083C
:1029700010B5284B1A880023934205D2264900201F
:1029800041F823000133F7E7244C254AFF23E37085
:10299000244B1B8863622046234BE3620021FFF730
:1029A00013FF224A0023042111705360204A117042
:1029B000D360136193821F4A1460022262701E4A20
:1029C000137053701D4B1B78D370FFF789FD1C4BA0
:1029D0001A6842F47F021A601B681B0203F07F43EF
:1029E000DB43B3FA83F3174A17481268DBB2C3F12B
:1029F0000803C2F302229A42A8BF531C6FF08071F1
:102A0000026801FA03F303F07F4122F07F430B4396
:102A1000036010BD22E00108140D0020CC0F00203F
:102A20000D1900082CE00108700D00209C0F0020FB
:102A3000840F0020C40F0020900C00202EE001081D
:102A400020ED00E00CED00E01CED00E008B5FFF724
:102A50004DFE0C4B0028186012DB00F1604000F5C1
:102A60006440FF2202701A6853119B0003F1604317
:102A700003F5614302F01F02012101FA02F21A601C
:102A800008BD00BFBC0F00200321FFF7DDBE000022
:102A900080F309887047EFF309807047684680F338
:102AA000098851480078C00714BF0220032080F332
:102AB00014887047DFF834C1EFF305831B0618BF95
:102AC0006047EFF31483DB0708BF604700DF704700
:102AD000DFF81CC1EFF305831B0618BF6047EFF357
:102AE0001483DB0708BF604700DF7047EFF30980FE
:102AF000816911F8021C79BB90E80F1010B5E0470E
:102B0000BDE81040EFF3098C8CE80700394B93E8DF
:102B10000600914208BF704771B11EF0100F0CBF44
:102B20000120002081F820002CE9F00FC1F828C016
:102B30000CB4FFF713FE0CBC1A60D2F828C0BCE836
:102B4000F00F92F82000002814BF6FF0120E6FF003
:102B5000020E8CF30988704710B5274A126891421B
:102B600009D8264C54F8214090E80F10A047EFF305
:102B7000098C8CE80F0010BD10B5FFF77FFDBDE894
:102B800010401C4B93E80600914208BF7047EFF3DA
:102B9000098C1EF0100F0CBF0120002081F82000CE
:102BA0002CE9F00FC1F828C00CB4FFF7D7FD0CBC1E
:102BB0001A60D2F828C0BCE8F00F92F82000002874
:102BC00014BF6FF0120E6FF0020E8CF3098870477D
:102BD00010B5FFF7A5FDFFF7D2BF10B5FFF79EFDBB
:102BE000FFF79EFDFFF7CBBF24E001081924000882
:102BF00033240008C40F002000000000FCFFFFFF8A
:102C000000B585B072B60521684602F035F810E0CF
:102C1000039B019A1A60962002F050F99DF900304A
:102C2000013310D0019B039A1B041360962002F01D
:102C300045F99DF900300133EAD1064806493422AE
:102C400001F0CEFFE4E703480349342201F0C8FF56
:102C5000E8E700BF38E0010850E001080F4A30B44F
:102C600093689468B4F1006F1A4604D0103030BCF9
:102C700042F8201070470A4A03F5CA7553F8044B0E
:102C800042F8044FAB42F9D14FF00052034B1030E1
:102C90009A6030BC42F82010704700BF00ED00E0A1
:102CA000FCFFFF1F70B5114C2368DA68910715D43B
:102CB000DA68520709D56FF004020D4E1A615D6A99
:102CC0003368EB1AB3F57A7F00D270BD00F022FAB8
:102CD0002368356005F57A759D6370BD6FF002025B
:102CE0001A6102F0D9F82368E2E700BFC427002088
:102CF00004100020244B30B51A6C244C42F008021A
:102D00001A641A6C83B002F008020192019A1A6ADE
:102D100042F008021A621A6A22F008021A6201F0EE
:102D200041F91B4B1B4A1B681B492160A2FB032373
:102D30009B0C0025013B4FF0FF3220466360E260B0
:102D40002561A560656100F04FFF32201349FFF750
:102D500085FF134B4FF480225A602946204600F02D
:102D6000B5FE2046042100F0B1FE23680D495A6AE1
:102D70000A6002F57A729A63DA68284642F0040221
:102D8000DA6003B030BD00BF00380240C427002025
:102D90002C02002083DE1B43000C0040A52C000801
:102DA00000E100E004100020036870B51B690021F9
:102DB000012204469847431C06460ED0236820464D
:102DC0001B690021022298472368054631461B698A
:102DD000204600229847284670BD70BD0248022157
:102DE000032201F01BBC00BF40280020084B094A09
:102DF000026010B403F58071002453F8042F82425E
:102E000008BF1C608B42F8D15DF8044B704700BFCF
:102E100004100020E0E00108F0B50E4685B0354909
:102E2000054613F06AFF20B9334B1B6863B105B048
:102E3000F0BD2846314913F060FF78B92E4B1B686E
:102E400043B1012005B0F0BD0190FFF7C7FF019825
:102E500005B0F0BDFFF7C2FF0120E8E7284628498A
:102E600013F04BFF10B3274B002402E00134402C39
:102E700021D053F8042F002AF8D12B783A2B32D0E6
:102E8000294602A801F0EEFC02A801F041FD90B134
:102E900002A801F023FD88B102A801F029FD034634
:102EA0004BB1194AE01C42F82430C0E7124B1B68B2
:102EB000ABB10220BBE74FF0FF30B8E702A801F04A
:102EC000FDFC05460028F6D0036802A89F6801F0C3
:102ED000F3FC324601462846B8470346E0E7FFF7D1
:102EE0007DFF0220A3E72846084902AA13F096FEB8
:102EF000029BD5E7C0E0010848110020D0E001089E
:102F0000C8E00108041000200810002004E10108B6
:102F100002280ADDC31E074A52F82300002142F8A6
:102F2000231020B103685B681847002070474FF0FA
:102F3000FF30704708100020022812DC0E4B1B687F
:102F400070B50C4616460BB9FFF748FFA51936B108
:102F500014F8011B094801F065FCAC42F8D1304679
:102F600070BD0338064B53F8200010B103681B688E
:102F700018474FF0FF3070474811002040280020CC
:102F80000810002002280DDC0C4B1B6810B50C4605
:102F90000BB9FFF723FF0A4801F038FC012320702A
:102FA000184610BD0338074B53F8200010B10368D2
:102FB0009B6818474FF0FF331846704748110020B0
:102FC0004028002008100020022807DD0338064BA7
:102FD00053F8200020B10368DB68184701207047D0
:102FE0004FF0FF30704700BF08100020022807DDB7
:102FF0000338064B53F8200020B103681B691847BB
:10300000002070474FF0FF30704700BF08100020CD
:10301000022808B504D84FF400534B60002008BDC7
:1030200011F02EFB092303604FF0FF3008BD00BFF5
:1030300008B5012011F02AFB074A13681844EFF382
:103040000881884202D2106018467047034B0C2258
:103050001A604FF0FF307047280200205C280020E3
:10306000074C08B523680546986811F02BFC2368C7
:10307000D86811F027FC05B9FEE7FFF7C1FDFBE7B3
:1030800014030020002113F0CDBC00BF11F058BC88
:10309000DFF830D0002103E00B4B5B584350043184
:1030A0000A480B4B42189A42F6D30A4A02E0002320
:1030B00042F8043B084B9A42F9D301F053F8FDF76C
:1030C00097F8704700800120880C020894010020C6
:1030D000000400200004002060280020FEE700001B
:1030E00008B50B4B1A6842F400721A601A6842F471
:1030F00080621A601A6842F480721A60032000F03D
:1031000017F80F20FFF7F6FD00F012F9002008BDB8
:10311000003C0240024A136801331360704700BF4D
:1031200008110020014B1868704700BF08110020EB
:10313000074AD1684FF6FF030B4043F0BF6300F02E
:10314000070043F4003343EA0023D360704700BF15
:1031500000ED00E02DE9F04FDFF8D0C1D1F800E03C
:103160006D4F83B000234FF0010803E00133102BB3
:1031700000F0858008FA03F202EA0E049442F5D1C9
:103180004D6825F0100ABAF1020F7BD04FEA4309CF
:103190000322D0F800B002FA09F2D24305F0030688
:1031A00002EA0B0B06FA09F60AF1FF3A4BEA0606A9
:1031B000BAF1010F066040F28B80C66832408E681B
:1031C00006FA09F61643EA00C660CFD5DCF84420BB
:1031D00042F48042CCF84420DCF8446023F003023F
:1031E00006F48046019602F1804203F003064FEA9E
:1031F000860B02F59C320F2606FA0BFA474EDDF8D5
:103200000490D2F80890B04229EA0A0974D006F571
:103210008066B04272D0424EB04272D0414EB0424F
:1032200074D0414EB0420CBF4FF0040A4FF0050A73
:103230000AFA0BF646EA090696603A68E64315F480
:10324000803F14BF224332403A607A6815F4003F51
:1032500014BF224332407A60BA6815F4801F14BF4D
:1032600022433240BA60FA68AD0203F1010354BF51
:1032700006EA02041443102BFC607FF47BAF03B01A
:10328000BDE8F08F4FEAD30900EB890903F0070688
:10329000D9F82020B6004FF00F0A0AFA06FB22EAFE
:1032A0000B0A0A69B2404AEA0202C9F820204FEA32
:1032B00043090322D0F800A002FA09F2D24305F034
:1032C000030602EA0A0A06FA09F64AEA0606066050
:1032D000866802EA060ACE6806FA09F64AEA06068F
:1032E0008660D0F804A0C5F300162AEA040A9E40BE
:1032F0004AEA0606466060E700269BE708FA0BF6F6
:1033000098E74FF0020A0AFA0BF693E74FF0030A28
:103310000AFA0BF68EE700BF003C014000000240B5
:1033200000080240000C0240001002400038024039
:10333000704700BFF0B50368DE0783B0044633D59D
:103340009F498A6802F00C02042A00F0EA808A6829
:1033500002F00C02082A00F0E0809A4B984D0022FF
:103360001A70FFF7DFFE064605E0FFF7DBFE801B65
:10337000C82800F2C1802B689903F6D4914B2279BA
:103380001A706368002B00F00881FFF7CBFE8C4DAC
:10339000064605E0FFF7C6FE801BC82800F2AC8099
:1033A0002B689A03F6D523689F072ED5844A916827
:1033B00011F00C0F00F0A780916801F00C010829B2
:1033C00000F09D80E368002B00F0D6807E4B7C4DA2
:1033D00001221A60FFF7A6FE064605E0FFF7A2FEEF
:1033E000801B642800F288802B68754A9807F5D501
:1033F0001168F82090FAA0F02369B0FA80F021F06B
:10340000F80183400B43136023681A0720D459073F
:1034100034D4A369CBB16A4DAA6802F00C02082A21
:1034200078D0022B694B4FF000021A6000F0C38085
:10343000FFF778FE2C46054604E0FFF773FE401BBD
:10344000642859D823689B01F7D4002003B0F0BD4D
:103450006369002B6FD05E4B594D01221A60FFF754
:1034600061FE064604E0FFF75DFE801B642843D83A
:103470006B6F9F07F7D523685907CAD5504B554D39
:103480001A6C42F080521A641B6C03F08053019353
:10349000019B2B6843F480732B60FFF743FE0646C5
:1034A00004E0FFF73FFE801B642825D82B68DA056F
:1034B000F7D5494B424D00221A70FFF733FE0646FE
:1034C00004E0FFF72FFE801B642815D82B6F9B07A5
:1034D000F7D4414B227A1A70A368002B00F0BE800B
:1034E000FFF720FE364D06462B6F9F0791D4FFF75E
:1034F00019FE801B6428F7D9032003B0F0BD526881
:1035000056023FF55FAF2E4A1268950723D5E26851
:10351000012A20D0012003B0F0BD4A6855027FF592
:103520001CAF274A126890037FF53EAF6268002AFD
:103530007FF43AAFEEE7264A214D1360FFF7F2FD24
:10354000064604E0FFF7EEFD801B6428D4D86B6FBD
:103550009807F7D48FE71A4DF820296890FAA0F061
:103560002269B0FA80F021F0F80182400A432A6013
:103570001A077FF54CAF6BE7134A114D1360FFF745
:10358000D1FD064604E0FFF7CDFD801B6428B3D8CB
:103590002B689907F7D4236837E7FFF7C3FD084D79
:1035A000064604E0FFF7BEFD801BC828A4D82B68A0
:1035B0009B03F7D4F7E6FFF7B5FD064613E000BF1F
:1035C0000038024002380240000047426000474293
:1035D000800E47420070004070380240FFF7A2FDA5
:1035E000801B642888D82B68234A9901F6D447F6B3
:1035F000C07797FAA7F74FF44036B7FA87F796FAED
:10360000A6F64FF07060B6FA86F690FAA0F0A36ABC
:10361000656AD4F820C0D4F81CE0E16AB0FA80F002
:103620005B0805FA07F4013B4CEA0E052C43B34056
:103630008140234311480B4301215360016014462C
:10364000FFF770FD054605E0FFF76CFD401B6428A1
:103650003FF652AF23689A01F6D5F6E6FFF762FD12
:10366000054D06462B6F98077FF5D3AEFFF75AFD41
:10367000801B6428F6D93FE70038024060004742CB
:103680007C4A136803F00F038B422DE9F0410C468E
:10369000054609D2CBB21370136803F00F038B42B7
:1036A00058D00120BDE8F08103689A0706D572481A
:1036B000AA68816821F0F0010A438260DF0727D5FC
:1036C0006B68012B79D09A1E012A6B4A126840F26E
:1036D00087809107E5D5684EB26822F00302134354
:1036E000B360FFF71FFD6B68012B07467CD0022BF0
:1036F00000F08880032B65D041F2883804E0FFF7A2
:1037000011FDC01B404565D8B36813F00C0FF6D10E
:10371000584BE2B21A701B6803F00F03A342C0D1EA
:103720002B685A0706D55448EA68816821F4E051AD
:103730000A4382601B0707D54F4A2969936823F41F
:10374000604343EAC10393600F20FFF7D3FA0020E0
:10375000BDE8F08103689F0706D54748AA688168DD
:1037600021F0F0010A438260DE07DAD56B68012B95
:1037700056D09A1E012A404A12682ED9910790D538
:103780003D4CA26822F003021343A360FFF7CAFC7A
:103790006B68012B064648D0022B54D0032B60D017
:1037A00041F2883704E0FFF7BDFC801BB84211D816
:1037B000A36813F00C0FF6D1B2E72F4A12689603F4
:1037C00089D46EE741F28834B368FFF7ABFCC01BC5
:1037D000A042F9D90320BDE8F0819001D0D460E780
:1037E00090013FF578AF5CE741F2883804E0FFF7DD
:1037F00099FCC01B4045EDD8B36803F00C03042BC3
:10380000F5D185E741F2883804E0FFF78BFCC01B57
:103810004045DFD8B36803F00C03082BF5D177E7F8
:10382000154A12689403ABD43BE741F2883704E0B1
:10383000FFF778FC801BB842CCD8A36803F00C03D8
:10384000042BF5D16CE741F2883704E0FFF76AFCFE
:10385000801BB842BED8A36803F00C03082BF5D137
:103860005EE741F28835A368FFF75CFC801BA84245
:10387000F9D9AFE7003C0240003802401C498B6890
:1038800003F00C03042B31D0082B2DD14A6830B43F
:103890004D6802F03F0447F6C0734A68690293FA24
:1038A000A3F347F6C07000EA02004ABF1149124A6A
:1038B000B1FBF4F20E49B3FA83F320FA03F058BFD8
:1038C000B2FBF4F202FB00F34FF44032486892FA84
:1038D000A2F200F44030B2FA82F2D040013040004F
:1038E00030BCB3FBF0F070470348704701487047A5
:1038F0000038024000127A000024F40010B5FFF7EF
:10390000BDFF084BF0229B6892FAA2F203F0F0038D
:10391000B2FA82F2044C0549D340E35CD840086017
:1039200010BD00BF0038024014E101082C02002045
:1039300008B5FFF7E3FF074B4FF4E0529B6892FA9C
:10394000A2F203F4E053B2FA82F20349D340CB5C13
:10395000D84008BD0038024014E1010808B5FFF75F
:10396000CDFF074B4FF460429B6892FAA2F203F43A
:103970006043B2FA82F20349D340CB5CD84008BD21
:103980000038024014E101080E4B0F2202609A68D1
:1039900002F0030242609A6802F0F00282609A68C4
:1039A00002F4E052C2609B6803F4604310B4DB0889
:1039B000054C036123685DF8044B03F00F030B60B3
:1039C000704700BF00380240003C0240036A8A682A
:1039D00023F00103F0B40C680362036A104E4768D9
:1039E000856923F0020325F07305B04243EA020320
:1039F00045EA040206D0496847608261F0BC416331
:103A000003627047CD688E694C6923F0080327F480
:103A100040772B43344323F004032743EBE700BFF5
:103A200000000140026A22F48072F0B48E680C68D3
:103A30000262036A114D4768C26923F4007322F0E1
:103A40007302A84243EA062342EA040206D0496808
:103A50004760C261F0BCC16303627047CE684D69C4
:103A60008C6927F4405723F4006343EA062347EAAE
:103A7000051523F4806345EA0417E8E700000140D8
:103A8000F0B4046A8F680E680E4D24F4805404620A
:103A9000036A4468C26923F4005322F4E642A84250
:103AA00043EA073342EA062206D049684460C2610D
:103AB000F0BC0164036270474D6924F4804444EA19
:103AC0008514F2E700000140704700BF036801223F
:103AD000186A8A4020EA020010B41862196A094C78
:103AE0000A43A3421A6207D01A685DF8044B42F0F9
:103AF000010200201A6070475A6C42F400425A6476
:103B0000F2E700BF00000140704700BF03680122D8
:103B1000186A8A4020EA020010B41862196A094C37
:103B20000A43A3421A6207D01A685DF8044B42F0B8
:103B3000010200201A6070475A6C42F400425A6435
:103B4000F2E700BF00000140264A0368904270B4CB
:103B500034D0B0F1804F20D0A2F57C4290421CD0EE
:103B600002F58062904218D002F58062904214D033
:103B700002F59A32904214D002F58062904210D041
:103B800002F5806290420CD08C680A6803600123C1
:103B9000C462826270BC436170474A6823F070035C
:103BA0001343CA688C68096823F4407313430360A5
:103BB0000123C462816270BC436170474A68CC686B
:103BC0008E680D68096923F07003134323F4407372
:103BD000234303600123C6628562016370BC4361B5
:103BE000704700BF00000140C0B190F8393010B5F7
:103BF00003F0FF02044663B12146022351F8040B8F
:103C000084F83930FFF7A0FF012384F83930002011
:103C100010BD80F83820FFF757FFEDE7012070470F
:103C2000C0B190F8393010B503F0FF02044663B11B
:103C30002146022351F8040B84F83930FFF784FF42
:103C4000012384F83930002010BD80F83820FFF7B8
:103C50005BFFEDE701207047F0B5046AD1F808E09A
:103C60000E68134D24F010040462036A47688269E9
:103C700023F0200322F4E642A84243EA0E1342EA6C
:103C8000062205D049684760826181630362F0BD06
:103C9000CE684D698C6927F4406723F0800343EABE
:103CA000061347EA850523F0400345EA8407E9E760
:103CB0000000014038B590F83830012B2BD00D466C
:103CC00002230121044680F8381080F839300C2A8C
:103CD0001AD8DFE802F03519191907191919471907
:103CE0001919220000682946FFF7B6FF23682869E2
:103CF000996941F400619961996921F48061996140
:103D00009A6942EA00229A610123002084F839303E
:103D100084F8380038BD022038BD00682946FFF716
:103D2000AFFE23682869D96941F40061D961D96976
:103D300021F48061D961DA6942EA0022DA61E3E7BD
:103D400029460068FFF742FE23682A69996941F015
:103D500008019961996921F00401996199690A43FF
:103D60009A61D1E729460068FFF75CFE23682A695B
:103D7000D96941F00801D961D96921F00401D961FB
:103D8000D9690A43DA61BFE703680422186A8A40E6
:103D900020EA02001862196A0A431A625A6C42F455
:103DA00000425A641A6842F001021A60002070470B
:103DB0002DE9F0410468C7682369C569D0F810C0CF
:103DC0008268416923F4405E4EEA0707064680692F
:103DD0002761E3684CEA020223F416430A4323F006
:103DE0000C032A431343E360636923F440730343E2
:103DF000B5F5004F6361514B39D09C4200F0818092
:103E000003F580639C427CD0FFF792FD75684C4FB0
:103E100000EB800000EB8000AD00B0FBF5F5FFF794
:103E200087FDA7FB053572686D0900EB800000EB8C
:103E3000800092002D01B0FBF2F8FFF779FD716868
:103E400000EB800000EB80008900B0FBF1F1A7FBE4
:103E500001314909642202FB118212013232A7FBAF
:103E60000223C3F343132B43A360BDE8F0819C42BC
:103E700025D003F580639C4221D0FFF759FD75687A
:103E80002F4F00EB800000EB80006D00B0FBF5F5DC
:103E9000FFF74EFD726800EB800000EB80005200DF
:103EA000B0FBF2F8FFF744FDA7FB053571686D091B
:103EB00000EB80002D0100EB80004900C5E7FFF713
:103EC0004DFD75681E4F00EB800000EB80006D001B
:103ED000B0FBF5F5FFF742FD726800EB800000EBE8
:103EE00080005200B0FBF2F8FFF738FDA7FB053564
:103EF00071686D0900EB80002D0100EB8000490026
:103F0000A3E7FFF72BFD75680D4F00EB800000EB7A
:103F10008000AD00B0FBF5F5FFF720FDA7FB0535F0
:103F200072686D0900EB800092002D0100EB8000AB
:103F3000B0FBF2F8FFF712FD81E700BF001001406F
:103F40001F85EB51704700BF50B338B590F839303A
:103F5000044603F0FF02F3B12268022384F83930EB
:103F6000D36823F40053D3602046FFF721FF236872
:103F70001A6922F490421A615A6922F02A025A619F
:103F8000DA68002142F400520125DA600846E16354
:103F900084F8395038BD80F83820FFF7D3FFDBE7CD
:103FA000012070471848836803F00C03042B29D0C4
:103FB000082B0AD0154B144A154892681549C2F3CC
:103FC0000312825CD3400B6070474368416813F46E
:103FD000800F436818BF104801F03F020CBF0B4927
:103FE000B0FBF2F1C3F3881308BFB1FBF2F101FBA0
:103FF00003F2054B5B68C3F3014301335B00B2FB83
:10400000F3F3D8E7044BD6E7003802400024F4006D
:1040100024E101082C02002000127A00214B224AE0
:10402000196C70B541F0805119641B6C94B003F0A9
:1040300080530193019B136823F4404343F40043EE
:104040001360136803F4404302930123029A089318
:1040500000B1052309934FF4A87107230422022419
:104060004FF48006082508A813930E940F96109518
:1040700011911292FFF75EF9034610B1002014B0BF
:1040800070BD4FF4805221460F2503A80494059378
:10409000079303950692FFF7F3FAB0FA80F0400910
:1040A00014B070BD0038024000700040234B244A19
:1040B000196CF0B541F0805119641B6C95B003F098
:1040C00080530193019B136823F4404343F400435E
:1040D0001360136803F4404302934FF0030E102360
:1040E000002404210722012702254FF4A87608A8FE
:1040F0000C931093DDF808C0CDF820E00B970994DD
:104100000F940E95119612911392FFF713F903462F
:1041100010B1204615B0F0BD4FF4805229460F244F
:1041200003A804950593079303940692FFF7A8FA52
:10413000B0FA80F0400915B0F0BD00BF0038024071
:104140000070004008B50120FFF768FF00B108BD0E
:10415000FFF764FF0028FAD1FFF7A8FF0028F6D187
:10416000FEE700BF174A1848D2F8883070B543F40C
:104170007003164CC2F888302368154E154D002187
:1041800043F001032360A160236823F0847323F4C8
:1041900080332360666023684FF0006623F4802339
:1041A0002360E16096600560FEF79AFFFFF7CAFFA3
:1041B000236A43F008032362236A23F0080323627F
:1041C00070BD00BF00ED00E02C020020003802406E
:1041D000103000240024F40030B507EE101A2C4BE8
:1041E00002681A60B5EEC07AF1EE10FA89B00446A2
:1041F0004BD4F7EE007AB4EE677AF1EE10FAC8BF4E
:10420000B0EE677AD4ED027A217CF8EE677A00226C
:1042100067EE877A6020FCEEE77A0139C4ED037A15
:10422000CDED027A019003920492059206920792D4
:10423000032910D8DFE801F00227251100251448D2
:1042400001A92A46FFF736FD78B9637C1048294654
:104250009BB1FFF799FD09B030BD0C250C4801A9B1
:104260002A46FFF727FD0028EFD00A4800F0F2FCAD
:10427000637C07482946002BEBD1FFF747FC09B0C8
:1042800030BD0825DBE70425D9E79FED037AB9E7C0
:104290000C11002034E1010800000000F0B5826834
:1042A000444D03682B6087B004460F46002A58D05F
:1042B00007EE902AB8EE677AD0ED037AF8EE677AC7
:1042C000F7EE006AC7EE877AF4EEE67AF1EE10FABE
:1042D000D4BF17EE906A16EE906A196A41F2111275
:1042E0000A402AB9196A40F244420A40002A3AD0E8
:1042F00001A86946FFF748FB23682F4A934242D042
:1043000036D92E4A934207D04ED92D4A934203D034
:1043100002F58062934222D1FFF720FB059A0090BC
:104320007B1EEB60234B002A36D1264AA2FB0020DD
:10433000800C0138586000231E482B61AB60FFF7EA
:104340006FFC10B1204800F085FC31462046FFF795
:1043500043FF2A68A760136843F00103136007B0A6
:10436000F0BD0026B9E71A6822F001021A60BFE723
:10437000A2F50062934206D002F58062934202D019
:10438000B3F1804FEBD1FFF7D3FA049A00907B1E74
:10439000EB60084B002AC8D00A4A4000A2FB00206C
:1043A000800C01385860C6E7A2F580429342B3D032
:1043B000D5E700BF0C110020000C00400040014078
:1043C0000044014083DE1B4334E1010870B50E4612
:1043D000044688B04F49304600F0A6FC206001300A
:1043E0007DD030464B4900F0BBFC431C05467CD0D9
:1043F0002368494AC5F3C3219342C5F3C0352174EC
:10440000657444D0B3F1804F1BD0444A93424AD1E3
:1044100002F50D32116C41F002011164126C02F0D0
:1044200002020292029A3E4A93424AD13D4B5A6C92
:1044300042F400325A645B6C03F400330693069B2B
:1044400016E0384A116C41F001011164126C02F05F
:1044500001020192019A344A9342E4D1314B5A6CE1
:1044600042F480325A645B6C03F480330593059BFD
:104470002849304600F024FC00232671A360E36045
:10448000204644F62061FFF709FF08B070BD02F531
:104490009C32516C41F001015164526C02F00102F6
:1044A0000092009AD7E7214A934224D102F50C32B8
:1044B000116C41F004011164126C02F004020392C9
:1044C000039A1B4A9342D3D1164B5A6C42F4802272
:1044D0005A645B6C03F480230793079BC8E7154875
:1044E00015492D2200F07CFB7BE71448124931224C
:1044F00000F076FB7CE7124A9342ACD1094B1A6C70
:1045000042F008021A641B6C03F008030493049B36
:10451000AEE700BF80E40108000001400004004055
:1045200000440140003802400040014000080040C3
:10453000004801404CE1010864E10108CCE10108B8
:10454000000C0040F8B590F91920124B01688768FB
:10455000C66805694469196001324FF000015F6067
:104560009E60DD601C61996110D090F918200132C5
:104570000CBF04220C225A610648FFF7E5FC00B983
:10458000F8BD0548BDE8F84000F064BB08225A6158
:10459000F2E700BF00280020E8E1010870B5134DE4
:1045A000134C55F8213020600E462BB1026852069C
:1045B0000ED403689B0600D470BD0E4B55F8260040
:1045C0001B680021984723686FF020021A6070BDB5
:1045D000084A184601211368984720686FF0400385
:1045E000036003689B06E7D5E7E700BF4C11002096
:1045F000002800206C11002001480021FFF7CEBFE9
:104600000010014001480121FFF7C8BF00440040ED
:1046100001480521FFF7C2BF00140140F0B5044670
:1046200085B008460E463C49154600F07DFB3B49E7
:104630000746284600F078FB0146384600F062FB4A
:10464000411C206061D0364B984247D003F580630F
:10465000984236D0A3F55043984225D030462E4993
:1046600000F02EFB28462D4900F02AFB721C03D0D7
:104670003046012100F01EFD6B1C03D028460121AD
:1046800000F018FD00234FF41652A260E36023618E
:104690006361267665762046FFF754FF214B22683A
:1046A0009A4228D005B0F0BD1F4B1A6C42F400327C
:1046B0001A641B6C03F4003302930123029A6360B3
:1046C000CCE7194B5A6C42F020025A645B6C03F041
:1046D00020030393039B05236360BFE7124B5A6CCF
:1046E00042F010025A645B6C03F010030193002344
:1046F000019A6360B2E70D4B0D4821461C2201244C
:104700001C6010F062FE05B0F0BD0A480A49532251
:1047100000F066FA206896E7E8E5010838E4010849
:1047200000100140004400400038024048110020C1
:104730004028002000E201081CE2010810B4044BEC
:1047400044680448196040F824205DF8044B704721
:104750006C1100204C11002038B503682548264C08
:104760008342236041D000F5806083423AD0A0F5B7
:104770005040834215D000200446B2B1DA6869BBCC
:1047800042F02002DA6065B201462846FEF766FA7A
:104790006D0904F007040123184AA34042F82530AC
:1047A00038BD17482624002AE8D1DA6879B922F002
:1047B0002002DA60DB681A061AD46309203304F099
:1047C000070401220D49A24041F8232038BD22F000
:1047D0008002DA60DB689B06EFD538BD42F040020C
:1047E000DA60D0E707484724C7E707482524C4E72D
:1047F00038BD00BF001001400028002000E100E0AB
:104800000546000811460008F945000802681368CB
:104810009B06FCD5024B50681A60C0F30800704735
:1048200000280020026813681B06FCD5024BC1F368
:10483000080151601A607047002800200368034A8D
:1048400018681360C0F34010704700BF00280020B4
:104850000368034A18681360C0F3C010704700BFB4
:104860000028002038B50023036043600A782F2A0F
:10487000044601D0204638BD4A78002AFAD0481CA8
:1048800020604D782F2D13D085B1034600E06AB12A
:104890005D1A013323601A782F2AF8D12946013393
:1048A000236000F0B7FC6060204638BD2946F8E779
:1048B00019460346F3E700BF00687047436843B1F9
:1048C00010B50446184600F0C3FC012803D1606807
:1048D00010BD00207047002010BD00BF406830B1FF
:1048E00008B500F0B5FCB0FA80F0400908BD70478B
:1048F00043684BB110B50446184600F0A9FC28B92E
:10490000606818B1043810BD00207047002010BD49
:104910004068003018BF0120704700BF00F05EB84B
:10492000A0F15400FFF7FABF00F05CB8A0F154000A
:10493000FFF7FABF38B504461D4600F023F82946B4
:1049400004F1540000F0E0F8054B03F1080103F115
:104950002002543321606265A365204638BD00BF44
:1049600088E2010801EB4101C90043185A6B1B6A38
:104970002AB11BB101442431184610477047002B5F
:10498000FCD0184738B504460E4B0360251D0023A4
:104990004FF41650206563602846A360E3602361EE
:1049A0006361A3612377637723626363A363E36433
:1049B000FFF734FE284622460349FFF7BFFE204694
:1049C00038BD00BFF0E20108654900080430FFF778
:1049D00035BF00BF0430FFF73BBF00BF0430FFF717
:1049E00015BF00BF10B504300C46FFF71BFF204673
:1049F00010BD00BF4368416910B50446194400F07A
:104A00001FF9E36A3BB1A06920B104F11C01BDE8C4
:104A10001040184710BDA369002BFBD0BDE8104023
:104A2000184700BF10B5064B0360044600F00EF9AE
:104A30000023A361E362204600F0F6F8204610BD93
:104A400000E3010810B5084B0360044600F0FEF8CF
:104A50000023A361E362204600F0E6F8204600F060
:104A60001FFC204610BD00BF00E3010810B504463E
:104A700000F0ECF80023A361E36210BD38B50546F1
:104A80000C4600F0E3F86C61286900F0FDF90119AB
:104A90002846BDE8384000F0D3B800BF002070477A
:104AA000F8B58E18B1420F460ED005460C4601E00F
:104AB000A64207D02B6814F8011B5B6A284698476A
:104AC0000130F5D1E01BF8BD0C46FBE7F8B58E18B8
:104AD000B1420F460ED005460C4603E004F8010B28
:104AE000A64205D02B6828469B6A9847431CF5D1FF
:104AF000E01BF8BD0C46FBE7002070470020704724
:104B0000002070470020704710B584B0044600F0C4
:104B1000A1FB0B4B0B4903F1080000223C3384E856
:104B20000900626101A8224612F054F8064901A862
:104B300010F046F86061FEF7A5FA204604B010BDFB
:104B400010E3010804E1010854E3010810B5074B24
:104B500003F108023C33044680E80C0040690FF082
:104B6000FBFD204600F08AFB204610BD10E3010843
:104B700038B504460D4640690FF0A4FE2846616929
:104B8000BDE8384010F04AB810B5044640690FF04F
:104B900099FE6069BDE81040FEF778BA0EB430B5F2
:104BA00082B005AB044653F8045B406901930FF0F3
:104BB00089FE29466069019A10F000FE02B0BDE846
:104BC000304003B0704700BFC36A014623B180691B
:104BD00008B11C31184770478369002BFBD0184778
:104BE00010B40C4613460146224602485DF8044BB9
:104BF00000F030B86CE3010803689B68184700BFF9
:104C0000074B10B50360002343608360C360044614
:104C100000F03EF90349206100F0BEF8204610BDC7
:104C2000A8E30108F94B000810B5044B03600446E3
:104C3000211D006900F004F9204610BDA8E3010819
:104C400003460A460069191D00F0D6B8011D006927
:104C500000F0F6B80FB400B5064B83B004AA1B6889
:104C600052F8041BD868019210F0A8FD01200FF043
:104C70000DFD00BF1403002038B50D46044600F0BA
:104C80003BF9013511D094F9003001330ED063683F
:104C9000E2681B0420461360012100F047F920461A
:104CA0000021BDE8384000F03DB938BD0248034955
:104CB0003422FFF795FFEAE738E0010850E00108E9
:104CC000431C10B5044619D091F90030581C04D18A
:104CD0000FE011F90C3F5A1C0BD09C42F9D1204631
:104CE000896800F0B9F920460021BDE8104000F0C5
:104CF000E1B90348BDE81040FFF7ACBF10BD00BFED
:104D0000B4E3010888420AD0421C09D0013106D020
:104D100008B50448FFF79EFF4FF0FF3008BD70470D
:104D200008467047C8E30108421C0FD008B591F946
:104D300000305A1C04D10AE011F90C3F5A1C06D06D
:104D40009842F9D14868411C01D008BD704703481A
:104D5000FFF780FF4FF0FF30F7E700BFDCE301080B
:104D6000421C0FD008B591F900305A1C04D10AE05A
:104D700011F90C3F5A1C06D09842F9D18868411CA1
:104D800001D008BD70470348FFF764FF4FF0FF30C4
:104D9000F7E700BFFCE3010838B5036804461B6869
:104DA0000D46984763681D6038BD00BF036870B545
:104DB000DB68054698476B685B6883B12A681C68A6
:104DC00053689847201A00286A680DDC50681168FB
:104DD000836853600029F0D040688847EBE72B6870
:104DE000BDE870409B6818472B6852681B691068C3
:104DF000BDE87040184700BF30B583B072B6446854
:104E00000A6065684B608DB12B68D31A002B05DAF8
:104E10000CE01C68141B002C03DB1D46AB68002B48
:104E2000F7D1A9608B6062B603B030BD03686160E2
:104E30001B690191104698472B460199F2E700BF84
:104E400008B572B643685A688A4211D04AB193686D
:104E50008B4208D02BB19A688A4205D01346002BAA
:104E6000F9D162B608BD13468A689A6062B608BD79
:104E700092685A60036822B110681B69984762B64D
:104E800008BD9B689847ECE703685B68184700BF5C
:104E90000048704730E401080148FFF787BF00BFB2
:104EA00030E4010838B5054600F03AF9044600F050
:104EB00037F9001BA842FAD338BD00BF4FF47A730C
:104EC00003FB00F0FFF7EEBF431C10B5044608D00B
:104ED0002046002100F0C0F804F00F040120A0409B
:104EE00010BD034803492722FFF77AFEF0E700BF11
:104EF00030E6010844E6010870B505464B1C0C4637
:104F000029700DD0C1F3031000F030F8064620469A
:104F1000FFF7DAFF06F1100318366860AB60EE6049
:104F200070BD00BF90F9000000F0C4B838B5054668
:104F300090F90000431C0C460BD0012C04D000213A
:104F4000BDE8384000F088B82146BDE8384000F0A0
:104F500083B8044804494622FFF742FE95F9000051
:104F6000EBE700BF38E0010844E6010800B587B070
:104F7000072859D8DFE800F012202E3C4A58580480
:104F80002D4B2E481A6B42F080021A631B6B03F004
:104F900080030593059B07B05DF804FB264B28486A
:104FA0001A6B42F001021A631B6B03F001030093BA
:104FB000009B07B05DF804FB1F4B22481A6B42F0C0
:104FC00002021A631B6B03F002030193019B07B0FB
:104FD0005DF804FB184B1C481A6B42F004021A637C
:104FE0001B6B03F004030293029B07B05DF804FB04
:104FF000114B16481A6B42F008021A631B6B03F040
:1050000008030393039B07B05DF804FB0A4B1048A9
:105010001A6B42F010021A631B6B03F01003049327
:10502000049B07B05DF804FB0A48FFF713FE00205D
:1050300007B05DF804FB00BF00380240001C0240CE
:10504000000002400004024000080240000C024040
:1050500000100240E0E6010830B5431C87B0054669
:105060000C461BD0C5F30310FFF780FF05F00F05BA
:1050700004F00F010C4A0123AB40019352F8215078
:105080000295C4F302120323C4F3C31401A90392CB
:1050900005940493FEF75EF807B030BD0348044959
:1050A0008122FFF79DFDDDE7ACE6010830E601084F
:1050B00004E7010838B5431C04460D4614D0C4F378
:1050C0000310FFF753FF04F00F04C26864000323CA
:1050D000A34022EA0303C360022DC3688CBF0025EE
:1050E000A5401D43C56038BD02480349A622FFF70D
:1050F00077FDE4E730E6010804E70108054B18688E
:1051000000B17047044A0549116001221A60FDF799
:10511000F1BD00BFB411002078110020000C004048
:1051200008B5064B186830B9054A064911600122D6
:105130001A60FDF7DFFD034B586A08BDB41100206B
:1051400078110020000C0040034B1B685863DA689C
:1051500042F00202DA60704778110020034B1A68AF
:10516000D36823F00203D360704700BF781100209A
:10517000024B1B686FF002021A6170477811002021
:105180008368094A026053B1084B1A68824201D110
:1051900006E01A4653688342FBD143685360704768
:1051A00042681A60704700BF70E70108B81100201C
:1051B00083680C4A10B50446026053B10A4B1A6862
:1051C000904201D10AE01A4653689C42FBD16368C1
:1051D0005360204600F064F8204610BD42681A6013
:1051E000F7E700BF70E70108B811002010B40023F2
:1051F000064C027381600460436019B1044B1A6865
:10520000426018605DF8044B704700BF70E701080A
:10521000B81100200D4B70B51C6806460D4614B938
:1052200012E0646884B1A36831462A461846002B10
:10523000F7D012F025FA0028F3D1A06812F018FA7E
:10524000A842EED1204670BD002070BDB8110020EC
:10525000007B704710B5074B0446002240F8043B22
:10526000FFF7C4FF044B03F10802343384E80C0059
:10527000204610BDE0E0010878E7010810B5074BB3
:10528000044603F108023433226040F8043FFFF77C
:1052900077FF2046FDF7AAFD204610BD78E70108FC
:1052A00010F020B810B5002814BF04460124204691
:1052B00010F010F830B900F01FF808B90FF079F9C4
:1052C0008047F4E710BDFFF7EBBF034608461946D9
:1052D0000FF0C8B9FFF7E6BF0368DB0706D44378D1
:1052E00003B1FFDE0123437018467047002070476A
:1052F0000123036070470000024B1868BFF35F8F03
:10530000704700BFBC1100204B6843604B680160D0
:105310001860486070470368426813605A607047BD
:105320002DE9F843314D2B685A1C80462A60002B2A
:1053300058D12F4C2F4B3048304FDFF8F090304E83
:1053400001221A702368996806F070FA23682D48C4
:10535000596806F06BFA23682B48D96806F066FA9C
:105360003846254900F09CF82649484606F02CFCB2
:105370003046254900F094F82349244800F090F87D
:105380003369776743F4005333612368C9F8787051
:1053900099681F481F4E204F06F058FA23681F488F
:1053A000596806F053FA23681D48D9681D4C06F069
:1053B0004DFA1749304600F065F91849384606F0AD
:1053C0006DFC1749204600F05DF91748144900F0BC
:1053D00059F92369BE6743F4005323612B6866675C
:1053E00001332B604046BDE8F88300BF281700203A
:1053F0001403002030020020001700207814002041
:10540000E811002094150020501400204C160020B4
:10541000281400207412002004130020C011002062
:10542000D8160020BC150020981300200415002079
:105430000D4A1368591E022B10B50446116011D194
:105440000A4800F080F80A4800F07DF8094800F0AA
:105450007AF8094800F069F9084800F066F9084848
:1054600000F063F9204610BD2817002078140020B2
:10547000E81100204C16002074120020BC150020FA
:10548000981300200B6810B50446036053F80C0C09
:105490004B6823501146204400F0E8FC204610BD24
:1054A00070B5051D044628460E4600F0ABFC054BC2
:1054B0002360143328466360314600F0D7FC204651
:1054C00070BD00BFCCE7010838B504460D4609B9E8
:1054D000136800E00C4B236015B953F80C3C00E056
:1054E000042323440DB9526800E0084A1A60AA0751
:1054F00002D5201D00F024FCEB0702D52046FFF763
:10550000CFFE204638BD00BFCCE70108E0E7010828
:1055100002210022FFF7D8BF036853F80C3C18445F
:10552000F6E710B50446FFF7F3FF2046FFF7B8FE95
:10553000204610BD036853F80C3C1844F1E70A46B6
:105540000021FFF7C1BF036853F80C3C034410B5BA
:105550000446986F50B100F01FFB013006D123685C
:1055600053F80C0C0121204400F020FC204610BD13
:1055700038B5002303700B6853F80C3C05460B4408
:105580006960186F0C4608B15B6963B1236853F812
:105590000C0C2044436913B901232B7006E004214D
:1055A00000F004FC02E0FFF7CEFFEFE7284638BD2D
:1055B00038B54468236853F80C3C1C440546E3683E
:1055C0009B0410D508F06FFB68B9A06F58B100F0CC
:1055D000E3FA013007D16B681A6852F80C0C01210C
:1055E000184400F0E3FB284638BD37B504460D46A5
:1055F00068462146FFF7BCFF9DF8003083B1236861
:1056000053F80C3C23442946986F00F0DDFA013032
:1056100006D1236853F80C0C0121204400F0C6FB8E
:105620006846FFF7C5FF204603B030BD38B50368B4
:1056300053F80C3C03440546DC6F0CB907F056FDEB
:10564000237F13B194F8271008E0204606F077FA7C
:1056500023680A219B692046984701462846FFF7A0
:10566000C4FFFFF770FF38BD0B6810B50446036038
:1056700053F80C0C4B6823501146204400F059FCA1
:10568000204610BD70B5051D044628460E4600F0A4
:105690001BFC054B2360143328466360314600F041
:1056A00048FC204670BD00BFFCE7010838B5044641
:1056B0000D4609B9136800E00C4B236015B953F887
:1056C0000C3C00E0042323440DB9526800E0084A72
:1056D0001A60AA0702D5201D00F03CFBEB0702D59B
:1056E0002046FFF7DDFD204638BD00BFFCE701087E
:1056F00010E8010802210022FFF7D8BF036853F821
:105700000C3C1844F6E710B50446FFF7F3FF2046BB
:10571000FFF7C6FD204610BD036853F80C3C184443
:10572000F1E70A460021FFF7C1BF036853F80C3CBC
:10573000034410B50446D86F50B100F06BFA013045
:1057400006D1236853F80C0C0121204400F0B6FB6D
:10575000204610BD036870B5044653F80C0C204475
:105760000D4600F03EFB0646002D14DD236853F87D
:105770000C3C23443146986F00F026FA013008D1E2
:10578000236853F80C0C01212044BDE8704000F060
:105790000DBB013DE8E770BD38B5036853F80C3C1C
:1057A00003440446986F154600F01EFAA84208D03C
:1057B000236853F80C0C01212044BDE8384000F068
:1057C000F5BA38BD2DE9F3410446884668462146BE
:1057D0001646FFF7CDFE9DF80030002B36D023682B
:1057E00053F80C3C23449F68B7421EDDDD6805F08A
:1057F000B005A5F120035D425D411DB92046B91BEE
:10580000FFF7A8FF236853F80C3C23445B698BB96E
:10581000204641463246FFF7BFFF5DB1236853F88B
:105820000C3C23445B6963B104E0204641463246A8
:10583000FFF7B2FF236853F80C3C234400229A6020
:1058400004E02046B91BFFF785FFF3E76846FFF742
:10585000AFFE204602B0BDE8F08138B504460D46E3
:1058600039B9036853F80C0C0121204400F09EFA6A
:1058700007E0084611F0FCFE294602462046FFF7E5
:10588000A1FF204638BD08B5FFF7E7FF08BD0B684C
:1058900053F80C3C19448B6F0360B3FA83F35B0934
:1058A000037170472DE9F04104468AB0884604A888
:1058B0002146FFF75DFE9DF8103043B3236853F88F
:1058C0000C3C2344D3F880700FB907F00FFC06AEF0
:1058D00021463046FFF7DBFF236853F80C5C254474
:1058E000284600F07EFA00950190CDF8088096E8F1
:1058F0000C0008A8394608F0AFFF9DF8243033B1FA
:10590000236853F80C0C0121204400F04FFA04A83E
:10591000FFF74EFE20460AB0BDE8F08108B5FFF75C
:10592000C1FF08BD7047704730B500224FF0FF340B
:105930004FF0FF35C0E900458260C26030BD82B0E3
:105940008DE80C004FF0FF334FF0FF32C0E9002329
:1059500000238360C36002B07047002070470020BE
:1059600070474FF0FF307047036810B55B6A04461C
:105970009847431C1EBFA36813F8010BA36010BD1A
:105980004FF0FF3070474FF0FF307047704770475F
:1059900030B500224FF0FF344FF0FF35C0E900452D
:1059A0008260C26030BD82B08DE80C004FF0FF33E2
:1059B0004FF0FF32C0E9002300238360C36002B0D0
:1059C000704700207047002070474FF0FF3070474D
:1059D0004FF0FF3070474FF0FF30704710B5044B69
:1059E000044640F81C3B06F0EDFE204610BD00BF0B
:1059F00080E8010810B5044B044640F81C3B06F053
:105A0000E1FE204610BD00BFC0E8010810B5044605
:105A1000FFF7E4FF2046FFF743FC204610BD10B51A
:105A20000446FFF7E7FF2046FFF73AFC204610BD8B
:105A30002DE9F04106460F469046002545451DDA02
:105A40007069B469241A0FD0C5EB08039C42A8BF43
:105A50001C46394622460FF0B8FC7369254427449A
:105A600045451C447461E9DA336839785B6B30462C
:105A70009847013002D001350137DFE72846BDE8FD
:105A8000F0812DE9F04106460F4690460025454538
:105A90001FDA7069B469241AA41010D0C5EB08038A
:105AA0009C42A8BF1C463946224613F079FF736911
:105AB0002544A400274445451C447461E7DA336853
:105AC00039685B6B30469847013002D001350437A6
:105AD000DDE72846BDE8F081036810B55B6A04463F
