:020000040800F2
:10000000008001201D3000086930000869300008B8
:1000100069300008693000086930000800000000FD
:10002000000000000000000000000000792A000825
:100030006930000800000000052B00085D2B000857
:10004000693000086930000869300008693000082C
:10005000693000086930000869300008693000081C
:10006000693000086930000869300008693000080C
:1000700069300008693000086930000869300008FC
:10008000693000086930000869300008000000008D
:1000900000000000000000000000000069300008BF
:1000A00069300008693000086930000869300008CC
:1000B00069300008693000086930000869300008BC
:1000C00069300008693000086930000869300008AC
:1000D000693000086930000869300008000000003D
:1000E000693000086930000869300008000000002D
:1000F000000000000000000000000000693000085F
:10010000000000006930000869300008693000080C
:1001100000000000000000000000000000000000DF
:10012000693000086930000869300008693000084B
:10013000693000080000000000000000000000001E
:10014000000000000000000000000000693000080E
:10015000693000086930000869300008693000081B
:10016000693000086930000800000000000000004D
:10017000000000000000000000000000000000007F
:1001800000000000693000080000000000000000CE
:100190006930000810B5054C237833B9044B13B10E
:1001A0000448AFF300800123237010BD0004002039
:1001B000000000008C020208084B10B51BB1084873
:1001C0000849AFF300800848036803B910BD074B26
:1001D000002BFBD0BDE81040184700BF0000000016
:1001E0008C02020804040020FC0300200000000030
:1001F000154B002B08BF134B9D46A3F5803A0021F9
:100200008B460F461348144A121A14F04EFD0F4B3A
:10021000002B00D098470E4B002B00D098470020B1
:10022000002104000D000D48002802D00C4813F0F6
:1002300011FE14F06DFB2000290000F045F913F0C9
:100240006FFE00BF000008000080012000000000D9
:10025000811700080004002024280020553E0108D2
:100260003D430108024BDA685B681B04136070476A
:100270004C04002010B5054B0360044604F07EF8E2
:10028000204604F043F9204610BD00BFA0DA010863
:10029000064B0748DA685B681360064B83610023EE
:1002A000C36247F2305104F071B800BF4C04002023
:1002B0001C0400206502000810B50446FFF7DAFFB1
:1002C000204604F043FC204610BD000010B50D4C44
:1002D00010222046002114F0E8FC20460A4C05219B
:1002E00004F03CF9204604F0FDF80023A361E3622A
:1002F000064B236020460649064ABDE8104004F03C
:100300003ABC00BF4C0400201C04002000DB0108A4
:10031000750200089401002070B590E86000044662
:10032000B54206D0286810B103685B689847083565
:10033000F6E704F1440000F073FF206808B104F010
:1003400005FC204670BD70B505468AB001A8E96875
:100350004FF0FF3201F07CFD019B102BF6D1FFF72F
:1003600097FF029E00243368049305F1400004A91E
:100370008DF81540069407940894ADF8244000F0D9
:1003800069FB069834710028E0D004F0DFFBDDE75C
:10039000F7B5054695E89000BC421AD0206803687E
:1003A0001B69984798B126798EB9206803680DF1CA
:1003B00007019B68012298479DF80730CC2B06D196
:1003C00001232371E8682146324601F021FD0834FB
:1003D000E2E7282000F09BFFDCE7000010B5054CA9
:1003E000204604F0E7FB20460349044ABDE81040DC
:1003F00004F0C1BB5C040020C54C0008940100203F
:10040000FFF7C6BFF8B5436804681C1BE41014BFAF
:10041000234601231C1907460D4602D2B4F1005FA2
:100420002AD36FF06044E00004F092FB064697E8A0
:1004300003000B1A16EB030E1FBF2A68F2502B792C
:100440008EF80430324603468B4207D01AB11D683D
:1004500015601D79157108320833F5E71D1A25F06E
:1004600007050835354408B104F070FB06EBC404F9
:100470003E607D60BC60F8BD002CD4D12646D6E736
:1004800038B543688568AB4202460C4607D01BB1BD
:1004900009681960217919710833536038BDFFF775
:1004A000B1FF38BD10B5054C204604F083FB204653
:1004B0000349044ABDE8104004F05DBB5D04002020
:1004C000C54C00089401002030B50424ADB0FFF7FE
:1004D000DFFE8C2000F01BFF013CF8D11CAD214653
:1004E0002022284616941794189414F0DEFB2CA8AA
:1004F000042340F8483D21461B9501F06BFC199000
:1005000010B9264804F018F82CAB24AA43F81C2D87
:1005100027A8269300F06CFEB42004F019FB0922F2
:100520000A238DE80C0004461D4A1E49062300F0EC
:1005300069FF02A9029416A800248DF80C40FFF769
:100540009FFFB42004F004FB022103238DE80A007E
:10055000154A14490623054600F054FF16A802A9BF
:1005600002958DF80C40FFF78BFF4FF400630F49A5
:1005700016AA8DE8180002A8234600F079FE16A8F6
:10058000FFF7E1FE02A800F0A3FE02A800F0A4FE1F
:1005900016A8FFF7C1FE20462DB030BDADD701082B
:1005A000A4D70108A7D70108D2D701080104000881
:1005B00010B5044694E80C009A4212D053F8040C8B
:1005C00010B103685B6898476368043B6360F1E7B8
:1005D00053F8040C10B103685B6898472369043B27
:1005E00023612369E2689A42F2D108E053F8040CCF
:1005F00010B103685B689847E369043BE361E36912
:10060000A0699842F2D108B104F0A0FAE06808B1FC
:1006100004F09CFA206808B104F098FA204610BD56
:10062000002370B504460E4615460B7035B363794A
:1006300043B92146012251F8040B03689B6898478F
:100640000823637160792179A84234BFC2B2EAB24B
:1006500053B2C01A41FA00F0317899400143317029
:100660006079C11A01238B402179D2B2013B801AF3
:100670000B40AA1A23716071D5B2D7E770BD000094
:10068000F8B582684368934206460D4606D00A785C
:1006900003B11A70736801337360F8BD04681B1BE3
:1006A0005A1C02D116480CF071F9002B14BF1C46DD
:1006B0000124E41801D23CB101E04FF0FF342046A0
:1006C00004F046FA074600E0274696E80C009B1A1D
:1006D000DF422A7818BFFA5496E80600551A03D06C
:1006E00038462A4614F0C6FA306801353D4408B150
:1006F00004F02CFA3C4437607560B460F8BD00BF6C
:10070000DBD70108838903F00703C3F108039BB219
:10071000082BF7B505460E46144617D09A421746E1
:1007200028BF1F46E41BE1404268C8B2FF21B94020
:1007300020EA0101DB1B01FA03F312F8011C0B4351
:1007400002F8013CAB891F44A4B2AF81E3080DD08D
:10075000083C02A9A4B226FA04F301F8013D284698
:10076000FFF78EFFAB890833AB81EFE75CB1C4F1D3
:10077000080302A99E4001F8016D2846FFF780FF9B
:10078000AA891444AC8103B0F0BD838903F0070348
:10079000C3F108039BB2082BF7B505460E46144675
:1007A00018D09A42174628BF1F46E41B426841FAF8
:1007B00004F0FF21B94020EA0101C9B2DB1B01FAB4
:1007C00003F312F8011C0B4302F8013CAB891F44F0
:1007D000A4B2AF81E3080DD0083C02A9A4B246FA46
:1007E00004F301F8013D2846FFF74AFFAB890833BF
:1007F000AB81EFE75CB1C4F1080302A99E4001F8A8
:10080000016D2846FFF73CFFAA891444AC8103B070
:10081000F0BD00002DE9FF41CB688D6814465D1BDB
:100820004FF000020E4600920192029204D0284638
:1008300004F08EF9034600E02B46B168F26800939D
:100840001D440295551A019304D018462A4614F007
:1008500011FA03465A192178B38AADF80C3033687F
:100860000192684601F007012022DD68FFF74AFF88
:1008700021886846C1F384112022FFF743FF2178C5
:100880006846C1F3C2012022FFF73CFF1E480099D1
:1008900004F043FC6768ADB207EB0508474506D096
:1008A000684617F8011B0822FFF76FFFF6E704F10F
:1008B000080704F10B0817F8011B68460822FFF728
:1008C00064FF4745F7D1E7683D44AF4206D068462C
:1008D00017F8011B0822FFF758FFF6E704F110058F
:1008E000133415F8011B68460822FFF74EFFA54296
:1008F000F7D1304600F0DAF8009808B104F026F994
:1009000004B0BDE8F08100BF3C1400202DE9F047A1
:10091000D1F8008098F80C50B8F80C708CB00C46E8
:100920000646294602A800F0E5F8294607A800F087
:10093000E1F820460DF107010322FFF771FE9DF853
:1009400008309DF80720204662F302030DF10701ED
:1009500005228DF80830FFF763FEBDF808309DF8DA
:100960000720039962F38A1320463A46ADF808300F
:1009700000F0AAF8204604A9032200F0A5F82046BA
:1009800005993A4600F0A0F8204606A9032200F097
:100990009BF8BDF80850DDF814A0D8F80490C5F312
:1009A0008415504649462A4614F049F990B906A8DC
:1009B000D8F80810032214F042F958B950462449D7
:1009C0002A4614F03CF928B906A82149032214F05C
:1009D00036F920B19DF8082012F0300F08D007A892
:1009E00000F0A4F802A800F0A1F80CB0BDE8F08770
:1009F0009DF81C30089862F302038DF81C30BDF896
:100A00001C30022265F38A13ADF81C30494662F3AC
:100A1000C5033A468DF81C3014F021F9D8F8083097
:100A200003991A880A989B78ADF824203A468DF8E5
:100A3000263014F014F9049BADF82C3030461B0C12
:100A4000214607AA8DF82E30FFF7E4FEC7E700BF66
:100A5000D5D7010837B505460C46084605220DF1E5
:100A60000701FFF7DDFD9DF8073033B1012B08D1F9
:100A700028462146FFF74AFF03E02868214600F098
:100A8000CDFA03B030BD000010B5054C204604F08F
:100A900091F820460349044ABDE8104004F06BB8C1
:100AA0005E040020C54C00089401002010B50446E7
:100AB0000068E2680368A168DB68521A9847A36877
:100AC000E3600023A38210BD006803689B68184799
:100AD00010B5054C204604F06DF820460349044A41
:100AE000BDE8104004F047B85F040020C54C000882
:100AF0009401002038B5037803F0F8036FF3C503C1
:100B0000037003886FF38A13038000230446038174
:100B100083720382837408460D4604F031F86060E6
:100B2000284604F02DF8E060204638BD10B5044694
:100B3000C06808B104F01DF8606808B104F019F845
:100B4000204610BD10B5054C204604F033F8204671
:100B50000349044ABDE8104004F00DB860040020C9
:100B6000C54C00089401002070B50E4E346814F096
:100B7000010415D1304604F005F888B10A4D30461D
:100B80002C606C60AC60EC602C616C61AC61EC6101
:100B90002C6204F003F828460449054A03F0EBFFF1
:100BA000014870BD8804002064040020B1050008DD
:100BB00094010020002370B504460E4615460B80B4
:100BC00035B3637943B92146012251F8040B036818
:100BD0009B6898470823637160792179A84234BFE4
:100BE000C2B2EAB253B2C01A41FA00F03188994059
:100BF000014331806079C11A01238B402179D2B23F
:100C0000013B801A0B40AA1A23716071D5B2D7E755
:100C100070BD37B51D46BDF8183001F1080432200B
:100C20000968009001339BB220468968023200F0C7
:100C300069FA204629460622FFF7A7FD20469DF8BF
:100C40001C100222FFF7A1FD03B030BD37B54FF0F5
:100C5000010E00258DE820400C46FFF7DAFF204604
:100C600003B0BDE83040FFF721BF838903F00703DD
:100C7000C3F108039BB2082BF7B505460E46144690
:100C800018D09A42174628BF1F46E41B426841FA13
:100C900004F0FF21B94020EA0101C9B2DB1B01FACF
:100CA00003F312F8011C0B4302F8013CAB891F440B
:100CB000A4B2AF81E3080DD0083C02A9A4B246FA61
:100CC00004F301F8013D2846FFF7DAFCAB8908334D
:100CD000AB81EFE75CB1C4F1080302A99E4001F8C3
:100CE000016D2846FFF7CCFCAA891444AC8103B0FF
:100CF000F0BD2DE9F3471D4682460F46914601F1AE
:100D00000808FFF731FF064609C8181A841007D0F3
:100D1000B4F1804F01D30BF030FE03F019FF04460D
:100D200096E80600521A961002D0204613F0A2FF51
:100D300006EB460301339BB2009301230193504617
:100D40002B4639464A46FFF764FF4046F1B2082277
:100D5000FFF71BFD0025B5420DD02946404608226D
:100D6000FFF7D0FC54F82530404699881022FFF751
:100D70007CFF0135EFE73846FFF798FE2CB120469F
:100D800002B0BDE8F04703F0E1BE02B0BDE8F08775
:100D90002DE9F3471D4682460F46914601F10808AA
:100DA000FFF7E2FE03690646C068181A841007D0F0
:100DB000B4F1804F01D30BF0E0FD03F0C9FE04460F
:100DC000F1683269521A961002D0204613F052FF91
:100DD00006EB460301339BB2009301230193504677
:100DE0002B4639464A46FFF714FF4046F1B2082227
:100DF000FFF7CBFC0025B5420DD02946404608221E
:100E0000FFF780FC54F82530404699881022FFF700
:100E10002CFF0135EFE73846FFF748FE2CB120469E
:100E200002B0BDE8F04703F091BE02B0BDE8F08724
:100E30002DE9F3471D4682460F46914601F1080809
:100E4000FFF792FEC36906468069181A841007D01E
:100E5000B4F1804F01D30BF090FD03F079FE04460E
:100E6000B169F269521A961002D0204613F002FFBF
:100E700006EB460301339BB20093012301935046D6
:100E80002B4639464A46FFF7C4FE4046F1B20822D7
:100E9000FFF77BFC0025B5420DD0294640460822CD
:100EA000FFF730FC54F825304046D9881022FFF770
:100EB000DCFE0135EFE73846FFF7F8FD2CB12046A0
:100EC00002B0BDE8F04703F041BE02B0BDE8F087D4
:100ED0002DE9F04385B00C46814690460846102225
:100EE0000DF10E011F46FFF765FEFFF73DFE83691A
:100EF000C269BDF80E10D21AB1EBA20F04F10806B8
:100F000012D253F821507DB12B7A00930123019323
:100F1000484621463B464246FFF77BFE2B68284663
:100F2000DB68314698470FE0022201238DE80C0070
:100F30004846214642463B46FFF76BFE3046BDF829
:100F40000E101022FFF791FE2046FFF7AFFD05B00F
:100F5000BDE8F08373B50C460646154608460622E2
:100F60000DF10601FFF75CFB20460DF1070102229F
:100F7000FFF756FB9DF80630042B2CD8DFE803F072
:100F8000030B131B2300304621462A469DF80730E9
:100F9000FFF75CFE29E0304621462A469DF80730DF
:100FA000FFF7A7FE21E0304621462A469DF807308C
:100FB000FFF7EEFE19E0304621462A469DF807303D
:100FC000FFF736FF11E0304621462A469DF80730EC
:100FD000FFF77EFF09E00649064804F088F89DF80F
:100FE000061004F0E5F803F06BFF02B070BD00BF1F
:100FF000F7D70108AC11002010B5054C204603F0CE
:10100000D9FD20460349044ABDE8104003F0B3BDB2
:101010008C040020C54C0008940100202DE9FF41FC
:101020000C460F680322064608460DF10301FFF740
:10103000F7FA9DF804309DF80320204662F302037E
:101040000DF1030108228DF80430FFF7E9FA9DF84D
:1010500003308DF80530002B4ED020460DF10601EF
:101060000322FFF731FD20460DF109010322FFF7AE
:101070002BFD0023ADF80C301025637943B92146D0
:10108000012251F8040B03689B6898470823637199
:101090006279BDF80C0094F804E0AA4234BFD3B2E0
:1010A000EBB259B2C1EB020C88400121DBB201FA6C
:1010B0000CF14EFA0CF80139ED1A48EA000001EA89
:1010C0000E01D21A15F0FF05ADF80C002171627106
:1010D000D3D10DF10900B968032213F0B0FD30B986
:1010E0000DF109000649032213F0A9FD20B1306873
:1010F000214601AAFFF72EFF04B0BDE8F08100BF32
:10110000D5D701082DE9F34105460F4614460021C5
:1011100005221E46FFF739FB284600210322FFF770
:1011200034FB28469DF820100822FFF72EFB07F11C
:10113000030817F8011B28460822FFF726FB47453E
:10114000F7D1E71C14F8011B28460822FFF71DFB06
:10115000BC42F7D1AC8904F00704C4F108039BB288
:10116000082B11D06868C3F11001FF229A4046FA9B
:1011700001F121EA020210F8011C0A4300F8012CD7
:10118000AA89083413440EE01024E3080DD0083C6B
:1011900002A9A4B246FA04F301F8013D2846FFF77C
:1011A0006FFAAB890833AB81EFE75CB1C4F1080398
:1011B00002A99E4001F8016D2846FFF761FAAB894C
:1011C0001C44AC8102B0BDE8F081000010B5054CB4
:1011D000204603F0EFFC20460349044ABDE81040D6
:1011E00003F0C9BC8D040020C54C00089401002008
:1011F00038B500F10805044600210C22284613F0FA
:1012000054FD204640F8045F00F07CFC206010B9DB
:10121000024803F091F9204638BD00BF21D80108EB
:1012200010B50446006800F089FC204610BD70B57A
:1012300000F1080504460E4608222846002113F056
:1012400034FD2046314640F8045F00F0D9FC2060B0
:10125000204670BD006800F0F1BC006800F0FCBCE6
:1012600010B50446006800F015FD204610BD0000D2
:1012700070B5049D0446059825611646124A226001
:10128000A160A381AD0810B16061002309E0B5F150
:10129000FE5F94BFA8004FF0FF3003F071FC012304
:1012A000606184F84C300023AB4205D06269074985
:1012B00042F823100133F7E704F10800314600F04B
:1012C0007BFB6060204670BD50D80108A52E5AE215
:1012D000406800F08FBB000010B5074B0360044668
:1012E000FFF7F6FF94F84C301BB1606908B103F0CA
:1012F00040FC204610BD00BF50D8010810B5044680
:10130000FFF7EAFF204603F021FC204610BD00F065
:1013100087BB7047D0F89020D0F8A030D0F8981054
:101320009B1AD0F894209B10521A013BD0F88410DD
:1013300002EB4323D0F88C20521AD34214BF012071
:10134000002070474A680B6812F0010F4FEA6202F2
:1013500018BF8158104418BFCB58184710B5044621
:1013600003F0F4FB204610BD08B5103002F0BAFFC0
:10137000003018BF012008BDF8B506460C461546DA
:101380008F18BC420CD006F1100002F0ABFF002811
:10139000F9D006F1640014F8011B03F071F8F0E7CE
:1013A0002846F8BDF8B5044616460D468F18BD42CE
:1013B00026D004F1A4004FF0FF31FFF74BFFD4F823
:1013C00084301B7805F8013BD4F88C20D4F88430A5
:1013D000013A934201D001330FE0D4F8880003F0C2
:1013E000B5FBD4F890301A1DC4F890205B68C4F89F
:1013F000883003F50072C4F88C20C4F88430D6E736
:101400003046F8BD2DE9F041C3602F4B41600446E2
:101410009DF9181082609DF91C2040F8103B0023B4
:1014200002F010FF00250823C4F88030E567C4F8F7
:101430008450C4F88850C4F88C50C4F89050C4F854
:101440009450C4F89850C4F89C50C4F8A050202080
:1014500003F07EFBD4F88060E067013E7608074623
:1014600000EB86084FF4007003F072FB47F826008B
:10147000C4F8908057F82620C4F8882002F500733D
:10148000C4F88C30C4F8A08057F82630C4F89830DF
:1014900003F50071C4F89C10C4F88420C4F894309B
:1014A000294604F1A400FFF7C2FE084B6363084B12
:1014B000246304F11400A56363642946012202F049
:1014C000D3FD2046BDE8F08160D80108C5150008AD
:1014D000451300082DE9F047426A056843680F4646
:1014E000511BA3EBA1010129044656D84169561AA4
:1014F000B610013606F10108B3EB480F15D9C8EB59
:1015000003035B0805EB830504328D42A2EB010265
:1015100003D293082FD0284604E093082BD0C2EBC7
:101520008600284413F0A6FB25E0002B14BF994643
:101530004FF0010902339944B9F1804F01D30BF008
:101540001CFA4FEA890003F003FB626A6169043206
:10155000C8EB0905521A6D089308824600EB850511
:1015600002D0284613F086FB206803F0EFFAC4F897
:1015700000A0C4F8049065612B68E36006F1804622
:1015800003F50073013E236105EB8603636255F8A2
:101590002630E36103F5007323624FF40070656A3F
:1015A00003F0D6FA6860A3693A7803B11A70636AE7
:1015B0001A1D62625B68E36103F500722262A36137
:1015C000BDE8F08713B5044604F1100002F086FE72
:1015D00000B304F1640002F05FFFD4F89C20D4F85B
:1015E0009430013AC0B293428DF8070007D003B19E
:1015F0001870D4F894300133C4F8943005E004F145
:101600007C000DF10701FFF765FF04F1A400FFF76F
:1016100024FED9E702B010BD10B5064B036003F1FC
:1016200018024C33044642658365543002F016FFBD
:10163000204610BD30DA0108A0F15400FFF7ECBFDE
:10164000A0F15800FFF7E8BF70B50F4B044640F813
:10165000A43BFFF705FEE36FD4F89050D4F8A060E8
:101660005BB10436B5422B4604D21868043503F04A
:101670006DFAF7E7E06F03F069FA04F11000FFF785
:10168000CBFF204670BD00BF60D8010810B50446EE
:10169000FFF7DAFF204603F059FA204610BD10B5D7
:1016A0000446FFF7B9FF204603F050FA204610BD6C
:1016B000A0F15400F3E7A0F15800F0E710B5054C95
:1016C000204603F077FA20460349044ABDE810405B
:1016D00003F051BA8E040020C54C0008940100208C
:1016E000436AF0B5C46A23F0030323445A0748BF92
:1016F000043B4FF0807203E90600A3F14005A3F11B
:101700004402A3F10C06002742F8047FB242FAD14A
:10171000C26943F8202CC3788562012B18BF024BA5
:10172000016318BF2360F0BDA52E5AE290F8202077
:10173000836A0AB1603300E020331960704710B546
:1017400090F82040836A0CB1603300E0203383E8D6
:10175000060010BDFEE701F019BA08B101F016BA93
:10176000704700000449054AC1F1005303F5BE3338
:101770009360D160704700BF2428002098010020AA
:101780000020002104460D46094812F063FB13F0C7
:10179000BFF82046294600F073F8FFF7E3FF05483D
:1017A000002100F009F900F07FF812F0B9FB000009
:1017B0003D4301089801002038B1830704D1037824
:1017C000002B18BF002070470020704700B5DFF8DD
:1017D0000CC000DFDFF808C000DFFEE78519000855
:1017E0009D1900080B4A136830B5002433B11D89D8
:1017F000A94203D31C46491B1B68F7E789B2036063
:10180000018113B11D89691A19810CB1206030BDA5
:10181000106030BD7C0F0020431C11D00B4B984250
:1018200011D80B4B1B684FF47A715A1E01FB002034
:10183000B0FBF3F04FF6FE73984228BF184670478E
:101840004FF6FF7070474FF6FE70704700093D007D
:101850007CD8010838B5084C257855B901F04EF808
:10186000064B1B68FF229A702846FFF776FF01237C
:101870002370002038BD00BF780F0020C40F002067
:1018800010B5EFF305845CB9EFF31484E40703D4D7
:10189000BDE81040FFF7DEBFDFF808C000DF10BD75
:1018A000822010BD5518000810B588B0EFF30584EC
:1018B00034BBEFF3148404F00304022C0CD0032C8B
:1018C00016D0012C1ED008AC84F309880F4C247864
:1018D000E40705D5022404E00C4C2478E4070BD47B
:1018E000032484F31488BFF34F8FBFF36F8F03E09B
:1018F000064C2478E40705D4DFF814C000DF02E0CA
:10190000822000E0FF2008B010BD00BF7AD8010897
:10191000D91C00082DE9F8438946044650B10368F4
:1019200043B18588EB1C9BB2062B03D883680BB1AF
:10193000C2682AB98020FFF710FF0020BDE8F883B5
:101940004363C26300F1100600F0F2FE0B4F00F19A
:10195000FF38291D47F82860C9B22268E074C4F82E
:101960002C90304600F0F6FE304600F011FF57F89C
:101970002800034A836A5A63BDE8F883140D0020E7
:10198000CD17000808B500F03FFF18B10138024B31
:1019900053F8200008BD00BF140D002008B5FFF764
:1019A0000BFF38B1C07800F071FFFF280CBF812019
:1019B000002008BD802008BD70B505460C46EFF339
:1019C000058686B9EFF31486F60706D4074E3678F7
:1019D0001EB9BDE87040FFF79DBF28462146DFF8DD
:1019E00010C000DF70BD002070BD00BF800F002060
:1019F0001519000810B5EFF305841CB9DFF808C00D
:101A000000DF10BD822010BD9D19000808B530B15F
:101A1000FFF702FF80B200F0FDFF402008BD08BDC7
:101A200010B5EFF305841CB9DFF808C000DF10BD66
:101A3000822010BD0D1A0008830704D128B1036964
:101A4000C1681B6803E0002300E0034619461846FE
:101A500070470000F8B5134B1C681F460CB3238970
:101A6000013B23812389E3B90F4B26681D683E6043
:101A700055B12B78012B07D1284600F0F3FB18B1A4
:101A80002846214600F0F2FB6379012B04D1204661
:101A90006189FFF7A7FE01E0012323710EB13446EF
:101AA000E0E7F8BD7C0F0020740F002010B504465D
:101AB0000846DFF80CC000DF84E80300204610BDB4
:101AC000391A000810B520B98020FFF746FE002023
:101AD00010BD0468002CF7D02378002BF4D12046E9
:101AE00000F081FC204610BD10B510F0030407D1B2
:101AF00030B10378032B03D100F07EFC204610BDEB
:101B0000802010BD30B50446EFF305857DB9EFF3B5
:101B10001485ED0706D4074D2D781DB9BDE830407A
:101B2000FFF7D0BF2046DFF810C000DF30BD002037
:101B300030BD00BF800F0020C51A000810B5EFF3BC
:101B400005841CB9DFF808C000DF10BD822010BD7D
:101B5000E91A000838B520B98020FFF7FEFD002003
:101B600038BD0468002CF7D02578002DF4D1B1F5EC
:101B7000803F01DB8620F0E7204689B200F0AAFC16
:101B8000204638BD38B510F0030405460FD170B1BA
:101B90000378022B0BD10846FFF73EFE81B22846A0
:101BA00000F0E2FC012805D06888013038BD4FF014
:101BB000FF3038BD204638BD10B510F003040CD1FD
:101BC00058B10278022A08D142884FF6FF739A4230
:101BD00005D000F0B3FC204610BD802010BD812050
:101BE00010BD10B510F0030407D130B10378022BFB
:101BF00003D100F075FC204610BD802010BD000010
:101C000070B505460C46EFF3058686B9EFF31486EA
:101C1000F60706D4074E36781EB9BDE87040FFF7C8
:101C200099BF28462146DFF810C000DF70BD0020B4
:101C300070BD00BF800F0020551B000810B5EFF3EA
:101C400005841CB9DFF80CC000DF10BD4FF0FF3079
:101C500010BD0000851B000838B5EFF305847CB18A
:101C600010F0030410D178B10378022B0CD1428814
:101C70004FF6FF739A4209D000F092FC204638BD1F
:101C8000DFF80CC000DF38BD802038BD812038BDB2
:101C9000B91B000810B5EFF305841CB9DFF808C0C4
:101CA00000DF10BD822010BDE31B000810B5044604
:101CB00018B1016809B1406820B98020FFF74DFDD7
:101CC000002010BD0378002BF7D10431890089B2C0
:101CD00000F020FA606810BD38B5104D2C78D4B9EA
:101CE00021460F48FFF7E2FF0E4B214618600E48D1
:101CF000FFF710FE0D4B21461860204600F08CFDCA
:101D00000B4A13689B6A203383F30988146000F040
:101D100063FE01232B70002038BD00BF800F002020
:101D2000DC010020740F0020E4010020700F00206F
:101D3000C40F002070B50E461546044688B10378DE
:101D4000012B0ED11046FFF767FD314682B22046C7
:101D500000F0EEF9012806D1002D14BFC12081202A
:101D600070BD802070BD002070BD2DE9F04F0C4685
:101D700085B08046E8B10378012B1FD10846FFF7F4
:101D80004BFD02A982B2404600F01AFA012806D1A2
:101D90000020002C0246034618BF402003E000202C
:101DA000024603461020029904460D4616461F4679
:101DB00008E0802405460646074603E00025802407
:101DC0002E462F462046294632463B4605B0BDE802
:101DD000F08F000070B505460C46EFF3058686B916
:101DE000EFF31486F60706D4074E36781EB9BDE821
:101DF0007040FFF75BBF28462146DFF810C000DFC8
:101E000070BD002070BD00BF800F0020AD1C000819
:101E1000F8B505460E461446EFF305876FB180B15D
:101E20007AB90378012B0CD100F01CFA58B128467E
:101E3000314600F01BFA2046F8BDDFF810C000DF85
:101E4000F8BD8020F8BD8120F8BD0000351D0008D8
:101E50007FB5044616460846EFF30581A9B101ADEA
:101E600000B10AB180230AE00378012BFAD102A95C
:101E700000F003FA042801D0019601E01023019339
:101E800095E8070084E8070005E01146DFF80CC07C
:101E900000DF84E80700204604B070BD6B1D000819
:101EA0007FB50A4B03A819684FF0FF32FFF7D0FF48
:101EB000039B102BF5D101A80499FFF7F7FD019BB7
:101EC000002BEED002989847EBE700BF740F00207C
:101ED00010B5038B42781943062A04460183438BCD
:101EE00004D101EA03029A4219D105E0052A16D16C
:101EF00011EA030213D0428321EA03012183204621
:101F000000F0D4F80123204663700821628BFFF7AC
:101F100016FC21460248BDE8104000F003B810BD91
:101F20009C0F002030B502788C784368013AD2B219
:101F30002BB19D78A54202D318465B68F8E7022AC8
:101F40004B60416003D803B19960886030BD0023C5
:101F50008B6030BD02784368013A59684160022ABB
:101F60004FF0000204D809B188605A609A6000E01E
:101F70005A60184670470000034B5A6842600022BE
:101F800082605860704700BF9C0F0020114BDA68D8
:101F900010B50AB19A8A0CE000248A1AC460D8608D
:101FA00003619A82848210BD002CF5D0A38A1A4462
:101FB00023468A42DC68F7D3C460D860C4680361F2
:101FC00004B12061521A92B28282998A8A1A9A8244
:101FD00010BD00BF840F002038B5194DEB68002BF1
:101FE0002CD0AB8A013BAB82AA8A002A26D1144BA3
:101FF000DC681CB3A3683BB161685960616809B1D2
:102000008B6062600023A3600E482146FFF78AFFC1
:10201000A38AAB826378042B01BF0B4B1A68E38A57
:102020009B1808BFA38201236370E368EB60002262
:1020300013B103491961E2602261D5E738BD00BFE1
:10204000840F00209C0F002000100020836853B9EB
:10205000084B5A68824202D142685A607047134660
:10206000002AF6D1704742685A60426802B1936014
:10207000704700BF9C0F002038B58468054624B91E
:102080004378012B0ED1084C03E023780BB9A468E8
:10209000FBE72846FFF7DAFF20462946BDE838402F
:1020A000FFF740BF38BD00BF9C0F0020036910B58B
:1020B00073B1C268DA60C2683AB1998A848A2144ED
:1020C000998213610023C36000E09A8200230361B8
:1020D00010BD000030B50E4BDD78EFF3108272B604
:1020E0009A78AA4207D201329A701A78541CAC42EC
:1020F00008BF00241C7062B6AA4204D203EBC203DC
:102100005860996030BD0220BDE83040FFF723BB26
:10211000900C0020012310390370890800234370BC
:1021200083704360038143818381C18170470000D4
:10213000F8B5466803460C4617468EB14278012A28
:102140000ED1FFF707FF102105462246FFF7F7FAE9
:102150002846FFF7ABFF284600F01AFB0020F8BD29
:102160009989D889814214D137B3144D26B11846C4
:102170002968FFF7D7FE05E02968596002224E6002
:102180008B605A702B683846DC61082100F022FB16
:1021900012E01A89151D43F82540EFF3108472B63A
:1021A0000131998162B6013292B282424FF0000051
:1021B00014BF1A811881F8BD0120F8BDC40F00209A
:1021C00070B5858904461646002D34D043891A1D02
:1021D000013350F822200A60C2899BB29A4243819F
:1021E00004BF002343814368EBB14378022B1AD12B
:1021F000FFF7B0FE00210546FFF798FA2389E96949
:102200001A1D013344F82210E2899BB29A422381BD
:1022100008BF0023284608BF2381FFF747FF284651
:1022200000F0B6FA05E0EFF3108372B6013DA58128
:1022300062B6002070BD82B14268094B1AB11968BC
:10224000FFF770FE05E01B6843605A609860012349
:1022500043703046082100F0BDFA012070BD00BF78
:10226000C40F0020C2898089101A704708B5FFF793
:1022700031FFBDE8084000F0B5B9838910B50446C8
:10228000EBB14389043350F823300B604378022BC1
:1022900004D10021FFF71EFF00F0A4F9EFF3108333
:1022A00072B6A389013BA38162B66389E2890133D7
:1022B0009BB29A42638104D10023638101E01846F6
:1022C00010BD042010BD0000426870B504460E46E3
:1022D000002A4AD04578022D1CD0032D0AD0012DAA
:1022E0005DD1FFF737FE044610213246FFF727FA8B
:1022F000657034E0084600F055F8054600284ED0D9
:102300002046FFF727FE29460446FFF70FFA012370
:10231000637024E0FFF71EFE00210546FFF706FA72
:102320002389E9691A1D44F82210EFF3108272B66E
:10233000A2890132A28162B6E28901339BB29A423C
:10234000238104BF00232381012328466B70FFF7FC
:10235000ADFE13482946BDE87040FFF7E3BD2046B7
:10236000FFF7A4FE0E482146F5E78189C089814226
:1023700010D223891D1D44F82560EFF3108572B635
:102380000131A18162B601339BB2834214BF238124
:10239000228170BD0320BDE87040FFF7DCB970BD3D
:1023A0009C0F0020EFF3108372B6026803F0010364
:1023B0000AB11168016003B962B6104670478142E4
:1023C0000DD3436899420AD2EFF3108372B60268C4
:1023D0000A60016013F0010003D162B6704701206A
:1023E000704700207047032303700023437043802D
:1023F0004360836070470000438870B504464BB16A
:10240000836842789A70174B80681B68984201D0A5
:10241000FFF732FE656885B12046FFF79BFD00217E
:102420000546FFF783F92846FFF740FE01236B704E
:102430000D482946FFF776FDECE70B4843686BB182
:10244000084E9A7831688B789A4207D9FFF76AFD6F
:10245000336801225A70284600F09AF90020207053
:1024600070BD00BFC40F00209C0F0020034B002252
:102470001A60034A1268DA80704700BFB40F002068
:1024800088D8010808B5104B10485A68104B1968D5
:1024900091421FBF1A60DA8802F1FF3102681CBF47
:1024A00052189A809A8803889A420BD1084B0648A2
:1024B00000221A60FFF74EFDBDE8084001460248C1
:1024C000FFF730BD08BD00BF9C0F002000100020AA
:1024D000B40F002002230370002343604180704743
:1024E00070B50446656885B12046FFF733FD0021CD
:1024F0000546FFF71BF92846FFF7D8FD01236B704F
:102500000C482946FFF70EFDECE70A4843686BB11B
:10251000094E9A7831688B789A4207D9FFF702FD05
:10252000336801225A70284600F032F900202070EA
:1025300070BD00BF9C0F0020C40F0020426810B582
:1025400062B1FFF707FD01210446FFF7EFF82046CF
:10255000FFF7ACFD204600F01BF902E04288013293
:102560004280002010BD0000428810B50C461AB110
:10257000013A4280002010BD71B14168074A19B18B
:102580001168FFF7CFFC03E0126842605160906071
:102590002046072100F01EF9012010BDC40F0020C5
:1025A00008B50021FFF796FDBDE8084000F01AB815
:1025B000426810B57AB1FFF7CDFC0446FFF776FD0F
:1025C000012161702046FFF7B1F821460448BDE8BB
:1025D0001040FFF7A7BC42880132428010BD00BF07
:1025E0009C0F0020054B1B7823B9054B4FF0805200
:1025F0001A607047034B01221A707047C10F002008
:1026000004ED00E0C00F002038B5184B184D1868D5
:1026100001234370FFF7B0FC6C78AA78144BEAB141
:1026200003EBC403586802781AB91989FFF750FC04
:1026300007E0012A03D19968FFF746FE01E0FFF7A2
:10264000B7FFEB7801349C4208BF0024EFF31083FE
:1026500072B6AB78013BAB7062B6DEE75C700548E2
:10266000FFF778FCBDE8384000F08AB8C40F0020BE
:10267000900C00209C0F0020084B1A68084B1A6031
:1026800000225A60072243F8042C064A136843F0DC
:102690007F4313604FF0FF30704700BF84D80108BC
:1026A00014E000E020ED00E07047000008B50B4B9F
:1026B000186801234370FFF75FFCFFF7E3FE084A49
:1026C000136801331360FFF787FCFFF7C3F9054870
:1026D000FFF740FCBDE8084000F052B8C40F0020EE
:1026E000001000209C0F0020084B1B68DA78012A9C
:1026F0000AD0DA6A9B6A9A4203D81268044B9A425B
:1027000002D00120FFF727B8704700BFC40F002098
:10271000A52E5AE208B50448FFF71CFC034B58608D
:102720000223437008BD00BF9C0F0020C40F00208F
:10273000064B1A88064B0120904204D853F8041F18
:1027400011B10130F8E70020704700BF78D80108C8
:10275000100D002030B500240125047045708170F3
:1027600044608460C46004618482C48204834483BE
:1027700080F820401146BDE83040FEF7B1BF0000B0
:10278000024B586002234370704700BFC40F002003
:1027900070B5044618B9BDE87040FFF7BBBF0B4DDC
:1027A000A278286883789A424FF0010607D9FFF78C
:1027B000E3FB2B685E7002236C60637070BD667013
:1027C00021460348BDE87040FFF7ACBBC40F0020B2
:1027D0009C0F002038B50D46014678B14FF6FF73C7
:1027E0009842074C02D02068FFF7D0FB23680548C9
:1027F0005D70FFF7AFFB02236060437038BD00BF20
:10280000C40F00209C0F0020024B186800B1C07854
:10281000704700BFC40F002010B588B9174B1B6864
:102820009970174843689B788B4222D9134C2168D2
:10283000FFF778FB236801225A70FFF76BFF18E05F
:10284000104B1B88984216D801380F4B53F8204084
:102850008CB10A4BA1701B689C42E2D02046FFF766
:102860000BFC6378012B04D10548FFF773FBFFF7DE
:102870008FFF002010BDFF2010BD00BFC40F00203F
:102880009C0F002078D80108140D002070B5184D59
:1028900018B12B68DB78984213D12E68002474702D
:1028A00000F0BFF8B062FFF71FFF2A681149D37824
:1028B0002C60013B41F82340D462FFF72BFF2046F8
:1028C00070BD0D4B1B8898420FD8441E094E56F818
:1028D000245055B12846FFF7B9FB2846FFF7E6FB21
:1028E000002046F82400E86270BDFF2070BD00BFE4
:1028F000C40F0020140D002078D8010810B5284B13
:102900001A880023934205D22649002041F823006B
:102910000133F7E7244C254AFF23E370244B1B883F
:1029200063622046234BE3620021FFF713FF224A34
:102930000023042111705360204A1170D360136189
:1029400093821F4A1460022262701E4A13705370F1
:102950001D4B1B78D370FFF789FD1C4B1A6842F49E
:102960007F021A601B681B0203F07F43DB43B3FA4C
:1029700083F3174A17481268DBB2C3F10803C2F3A6
:1029800002229A42A8BF531C6FF08071026801FABC
:1029900003F303F07F4122F07F430B43036010BD3C
:1029A00078D80108140D0020CC0F0020551700081E
:1029B00080D80108700D00209C0F0020840F00209B
:1029C000C40F0020900C002082D8010820ED00E008
:1029D0000CED00E01CED00E008B5FFF74DFE0C4BE0
:1029E0000028186012DB00F1604000F56440FF220F
:1029F00002701A6853119B0003F1604303F56143B1
:102A000002F01F02012101FA02F21A6008BD00BFA4
:102A1000BC0F00200321FFF7DDBE000080F3098812
:102A20007047EFF309807047684680F30988514882
:102A30000078C00714BF0220032080F31488704779
:102A4000DFF834C1EFF305831B0618BF6047EFF3CF
:102A50001483DB0708BF604700DF7047DFF81CC145
:102A6000EFF305831B0618BF6047EFF31483DB0702
:102A700008BF604700DF7047EFF30980816911F8F4
:102A8000021C79BB90E80F1010B5E047BDE810407C
:102A9000EFF3098C8CE80700394B93E8060091426C
:102AA00008BF704771B11EF0100F0CBF012000204D
:102AB00081F820002CE9F00FC1F828C00CB4FFF712
:102AC00013FE0CBC1A60D2F828C0BCE8F00F92F8D4
:102AD0002000002814BF6FF0120E6FF0020E8CF36E
:102AE0000988704710B5274A1268914209D8264CC8
:102AF00054F8214090E80F10A047EFF3098C8CE8C0
:102B00000F0010BD10B5FFF77FFDBDE810401C4B56
:102B100093E80600914208BF7047EFF3098C1EF05E
:102B2000100F0CBF0120002081F820002CE9F00FCD
:102B3000C1F828C00CB4FFF7D7FD0CBC1A60D2F85E
:102B400028C0BCE8F00F92F82000002814BF6FF0F6
:102B5000120E6FF0020E8CF30988704710B5FFF764
:102B6000A5FDFFF7D2BF10B5FFF79EFDFFF79EFD55
:102B7000FFF7CBBF7AD80108A5230008BF230008C0
:102B8000C40F002000000000FCFFFFFF00B585B06F
:102B900072B60521684601F0E1FC10E0039B019A42
:102BA0001A60962001F0E0FD9DF90030013310D04D
:102BB000019B039A1B041360962001F0D5FD9DF93B
:102BC00000300133EAD106480649342201F07AFC8C
:102BD000E4E703480349342201F074FCE8E700BF4E
:102BE0008CD80108A4D801080F4A30B493689468BF
:102BF000B4F1006F1A4604D0103030BC42F82010F7
:102C000070470A4A03F5CA7553F8044B42F8044F5B
:102C1000AB42F9D14FF00052034B10309A6030BCF8
:102C200042F82010704700BF00ED00E0FCFFFF1FDE
:102C300070B5114C2368DA68910715D4DA68520729
:102C400009D56FF004020D4E1A615D6A3368EB1A04
:102C5000B3F57A7F00D270BD00F022FA23683560A8
:102C600005F57A759D6370BD6FF002021A6101F07F
:102C700069FD2368E2E700BF8827002004100020D8
:102C8000244B30B51A6C244C42F008021A641A6CBA
:102C900083B002F008020192019A1A6A42F0080217
:102CA0001A621A6A22F008021A6200F0B9FF1B4B7E
:102CB0001B4A1B681B492160A2FB03239B0C0025B8
:102CC000013B4FF0FF3220466360E2602561A56062
:102CD000656100F08FFE32201349FFF785FF134B2B
:102CE0004FF480225A602946204600F015FE204607
:102CF000042100F011FE23680D495A6A0A6002F5AA
:102D00007A729A63DA68284642F00402DA6003B005
:102D100030BD00BF00380240882700202C02002070
:102D200083DE1B43000C0040312C000800E100E072
:102D300004100020036870B51B69002101220446BD
:102D40009847431C06460ED0236820461B69002185
:102D5000022298472368054631461B692046002217
:102D60009847284670BD70BD02480221032201F039
:102D7000DDB800BF04280020084B094A026010B4E7
:102D800003F58071002453F8042F824208BF1C60B1
:102D90008B42F8D15DF8044B704700BF041000204F
:102DA00038D90108F0B50E4685B03549054613F00F
:102DB000EEFB20B9334B1B6863B105B0F0BD28466C
:102DC000314913F0E4FB78B92E4B1B6843B1012065
:102DD00005B0F0BD0190FFF7C7FF019805B0F0BD49
:102DE000FFF7C2FF0120E8E72846284913F0CFFB90
:102DF00010B3274B002402E00134402C21D053F8BB
:102E0000042F002AF8D12B783A2B32D0294602A879
:102E100001F0B0F902A801F003FA90B102A801F0A4
:102E2000E5F988B102A801F0EBF903464BB1194A64
:102E3000E01C42F82430C0E7124B1B68ABB1022003
:102E4000BBE74FF0FF30B8E702A801F0BFF9054635
:102E50000028F6D0036802A89F6801F0B5F9324651
:102E600001462846B8470346E0E7FFF77DFF02200A
:102E7000A3E72846084902AA13F01AFB029BD5E7EC
:102E800014D901080C11002024D901081CD901080B
:102E900004100020081000205CD9010802280ADD77
:102EA000C31E074A52F82300002142F8231020B124
:102EB00003685B681847002070474FF0FF30704789
:102EC00008100020022812DC0E4B1B6870B50C465F
:102ED00016460BB9FFF748FFA51936B114F8011BC8
:102EE000094801F027F9AC42F8D1304670BD0338EB
:102EF000064B53F8200010B103681B6818474FF0C9
:102F0000FF3070470C11002004280020081000201A
:102F100002280DDC0C4B1B6810B50C460BB9FFF7F3
:102F200023FF0A4801F0FAF801232070184610BD6B
:102F30000338074B53F8200010B103689B6818470B
:102F40004FF0FF33184670470C1100200428002072
:102F500008100020022807DD0338064B53F8200034
:102F600020B10368DB681847012070474FF0FF303D
:102F7000704700BF08100020022807DD0338064B09
:102F800053F8200020B103681B69184700207047E0
:102F90004FF0FF30704700BF08100020022808B52E
:102FA00004D84FF400534B60002008BD10F0B2FF6E
:102FB000092303604FF0FF3008BD00BF08B50120B2
:102FC00010F0AEFF074A13681844EFF308818842F7
:102FD00002D2106018467047034B0C221A604FF063
:102FE000FF3070472802002020280020074C08B539
:102FF00023680546986811F0AFF82368D86811F087
:10300000ABF805B9FEE7FFF7C1FDFBE714030020AD
:10301000002113F051B900BF11F0DCB8DFF830D057
:10302000002103E00B4B5B58435004310A480B4B23
:1030300042189A42F6D30A4A02E0002342F8043BBF
:10304000084B9A42F9D300F0CBFEFDF7D1F8704758
:1030500000800120C002020894010020000400202A
:103060000004002024280020FEE7000008B50B4BD8
:103070001A6842F400721A601A6842F480621A6098
:103080001A6842F480721A60032000F017F80F20CB
:10309000FFF7F6FD00F012F9002008BD003C0240E9
:1030A000024A136801331360704700BF0811002003
:1030B000014B1868704700BF08110020074AD1680B
:1030C0004FF6FF030B4043F0BF6300F0070043F4EB
:1030D000003343EA0023D360704700BF00ED00E0F7
:1030E0002DE9F04FDFF8D0C1D1F800E06D4F83B08B
:1030F00000234FF0010803E00133102B00F085801E
:1031000008FA03F202EA0E049442F5D14D6825F064
:10311000100ABAF1020F7BD04FEA43090322D0F81C
:1031200000B002FA09F2D24305F0030602EA0B0BE3
:1031300006FA09F60AF1FF3A4BEA0606BAF1010F60
:10314000066040F28B80C66832408E6806FA09F647
:103150001643EA00C660CFD5DCF8442042F4804232
:10316000CCF84420DCF8446023F0030206F48046E7
:10317000019602F1804203F003064FEA860B02F546
:103180009C320F2606FA0BFA474EDDF80490D2F86F
:103190000890B04229EA0A0974D006F58066B04268
:1031A00072D0424EB04272D0414EB04274D0414EC5
:1031B000B0420CBF4FF0040A4FF0050A0AFA0BF6B2
:1031C00046EA090696603A68E64315F4803F14BF64
:1031D000224332403A607A6815F4003F14BF22431C
:1031E00032407A60BA6815F4801F14BF224332401F
:1031F000BA60FA68AD0203F1010354BF06EA0204A3
:103200001443102BFC607FF47BAF03B0BDE8F08F5C
:103210004FEAD30900EB890903F00706D9F820200B
:10322000B6004FF00F0A0AFA06FB22EA0B0A0A69F7
:10323000B2404AEA0202C9F820204FEA43090322B9
:10324000D0F800A002FA09F2D24305F0030602EA20
:103250000A0A06FA09F64AEA06060660866802EADB
:10326000060ACE6806FA09F64AEA06068660D0F82B
:1032700004A0C5F300162AEA040A9E404AEA06069C
:10328000466060E700269BE708FA0BF698E74FF0E8
:10329000020A0AFA0BF693E74FF0030A0AFA0BF652
:1032A0008EE700BF003C01400000024000080240E1
:1032B000000C02400010024000380240704700BF7E
:1032C000F0B50368DE0783B0044633D59F498A68AA
:1032D00002F00C02042A00F0EA808A6802F00C0274
:1032E000082A00F0E0809A4B984D00221A70FFF7F0
:1032F000DFFE064605E0FFF7DBFE801BC82800F274
:10330000C1802B689903F6D4914B22791A706368B7
:10331000002B00F00881FFF7CBFE8C4D064605E040
:10332000FFF7C6FE801BC82800F2AC802B689A030A
:10333000F6D523689F072ED5844A916811F00C0FAB
:1033400000F0A780916801F00C01082900F09D8031
:10335000E368002B00F0D6807E4B7C4D01221A6082
:10336000FFF7A6FE064605E0FFF7A2FE801B6428D5
:1033700000F288802B68754A9807F5D51168F82007
:1033800090FAA0F02369B0FA80F021F0F8018340B0
:103390000B43136023681A0720D4590734D4A36958
:1033A000CBB16A4DAA6802F00C02082A78D0022B31
:1033B000694B4FF000021A6000F0C380FFF778FEFF
:1033C0002C46054604E0FFF773FE401B642859D8DD
:1033D00023689B01F7D4002003B0F0BD6369002B84
:1033E0006FD05E4B594D01221A60FFF761FE064611
:1033F00004E0FFF75DFE801B642843D86B6F9F07D6
:10340000F7D523685907CAD5504B554D1A6C42F071
:1034100080521A641B6C03F080530193019B2B684C
:1034200043F480732B60FFF743FE064604E0FFF78A
:103430003FFE801B642825D82B68DA05F7D5494B59
:10344000424D00221A70FFF733FE064604E0FFF7F4
:103450002FFE801B642815D82B6F9B07F7D4414B98
:10346000227A1A70A368002B00F0BE80FFF720FEBE
:10347000364D06462B6F9F0791D4FFF719FE801B30
:103480006428F7D9032003B0F0BD526856023FF517
:103490005FAF2E4A1268950723D5E268012A20D033
:1034A000012003B0F0BD4A6855027FF51CAF274AE2
:1034B000126890037FF53EAF6268002A7FF43AAF4E
:1034C000EEE7264A214D1360FFF7F2FD064604E0C1
:1034D000FFF7EEFD801B6428D4D86B6F9807F7D4F4
:1034E0008FE71A4DF820296890FAA0F02269B0FA07
:1034F00080F021F0F80182400A432A601A077FF524
:103500004CAF6BE7134A114D1360FFF7D1FD064630
:1035100004E0FFF7CDFD801B6428B3D82B68990722
:10352000F7D4236837E7FFF7C3FD084D064604E0EC
:10353000FFF7BEFD801BC828A4D82B689B03F7D4D7
:10354000F7E6FFF7B5FD064613E000BF003802407E
:10355000023802400000474260004742800E474266
:103560000070004070380240FFF7A2FD801B642805
:1035700088D82B68234A9901F6D447F6C07797FA82
:10358000A7F74FF44036B7FA87F796FAA6F64FF04A
:103590007060B6FA86F690FAA0F0A36A656AD4F86D
:1035A00020C0D4F81CE0E16AB0FA80F05B0805FAAC
:1035B00007F4013B4CEA0E052C43B3408140234302
:1035C00011480B430121536001601446FFF770FD61
:1035D000054605E0FFF76CFD401B64283FF652AF3F
:1035E00023689A01F6D5F6E6FFF762FD054D06461B
:1035F0002B6F98077FF5D3AEFFF75AFD801B642829
:10360000F6D93FE700380240600047427C4A136821
:1036100003F00F038B422DE9F0410C46054609D219
:10362000CBB21370136803F00F038B4258D0012004
:10363000BDE8F08103689A0706D57248AA688168D8
:1036400021F0F0010A438260DF0727D56B68012B68
:1036500079D09A1E012A6B4A126840F2878091073E
:10366000E5D5684EB26822F003021343B360FFF75A
:103670001FFD6B68012B07467CD0022B00F0888071
:10368000032B65D041F2883804E0FFF711FDC01B21
:10369000404565D8B36813F00C0FF6D1584BE2B231
:1036A0001A701B6803F00F03A342C0D12B685A079E
:1036B00006D55448EA68816821F4E0510A438260E3
:1036C0001B0707D54F4A2969936823F4604343EAEF
:1036D000C10393600F20FFF7D3FA0020BDE8F0810B
:1036E00003689F0706D54748AA68816821F0F00162
:1036F0000A438260DE07DAD56B68012B56D09A1E2A
:10370000012A404A12682ED9910790D53D4CA268F3
:1037100022F003021343A360FFF7CAFC6B68012B7E
:10372000064648D0022B54D0032B60D041F2883794
:1037300004E0FFF7BDFC801BB84211D8A36813F06A
:103740000C0FF6D1B2E72F4A1268960389D46EE7C0
:1037500041F28834B368FFF7ABFCC01BA042F9D933
:103760000320BDE8F0819001D0D460E790013FF5DF
:1037700078AF5CE741F2883804E0FFF799FCC01BA2
:103780004045EDD8B36803F00C03042BF5D185E771
:1037900041F2883804E0FFF78BFCC01B4045DFD8BE
:1037A000B36803F00C03082BF5D177E7154A1268CC
:1037B0009403ABD43BE741F2883704E0FFF778FC91
:1037C000801BB842CCD8A36803F00C03042BF5D1BE
:1037D0006CE741F2883704E0FFF76AFC801BB842CF
:1037E000BED8A36803F00C03082BF5D15EE741F2C5
:1037F0008835A368FFF75CFC801BA842F9D9AFE7C6
:10380000003C0240003802401C498B6803F00C0366
:10381000042B31D0082B2DD14A6830B44D6802F00A
:103820003F0447F6C0734A68690293FAA3F347F668
:10383000C07000EA02004ABF1149124AB1FBF4F21B
:103840000E49B3FA83F320FA03F058BFB2FBF4F247
:1038500002FB00F34FF44032486892FAA2F200F4FF
:103860004030B2FA82F2D0400130400030BCB3FBAD
:10387000F0F0704703487047014870470038024035
:1038800000127A000024F40010B5FFF7BDFF084BCA
:10389000F0229B6892FAA2F203F0F003B2FA82F2ED
:1038A000044C0549D340E35CD840086010BD00BF1C
:1038B000003802406CD901082C02002008B5FFF73F
:1038C000E3FF074B4FF4E0529B6892FAA2F203F435
:1038D000E053B2FA82F20349D340CB5CD84008BD32
:1038E000003802406CD9010808B5FFF7CDFF074B3F
:1038F0004FF460429B6892FAA2F203F46043B2FA7A
:1039000082F20349D340CB5CD84008BD0038024066
:103910006CD90108704700BF03680122186A8A4009
:1039200020EA020010B41862196A094C0A43A34243
:103930001A6207D01A685DF8044B42F001020020B9
:103940001A6070475A6C42F400425A64F2E700BFB2
:1039500000000140264A0368904270B434D0B0F1B0
:10396000804F20D0A2F57C4290421CD002F58062AC
:10397000904218D002F58062904214D002F59A323B
:10398000904214D002F58062904210D002F580621D
:1039900090420CD08C680A6803600123C462826282
:1039A00070BC436170474A6823F070031343CA68D0
:1039B0008C68096823F44073134303600123C462D5
:1039C000816270BC436170474A68CC688E680D683C
:1039D000096923F07003134323F440732343036006
:1039E0000123C6628562016370BC4361704700BFFA
:1039F00000000140C0B190F8393010B503F0FF026B
:103A0000044663B12146022351F8040B84F839308F
:103A1000FFF7A0FF012384F83930002010BD80F8A3
:103A20003820FFF777FFEDE7012070472DE9F041DF
:103A30000468C7682369C569D0F810C08268416905
:103A400023F4405E4EEA0707064680692761E36873
:103A50004CEA020223F416430A4323F00C032A43E0
:103A60001343E360636923F440730343B5F5004FE8
:103A70006361514B39D09C4200F0818003F5806333
:103A80009C427CD0FFF71AFF75684C4F00EB80001A
:103A900000EB8000AD00B0FBF5F5FFF70FFFA7FBD3
:103AA000053572686D0900EB800000EB8000920024
:103AB0002D01B0FBF2F8FFF701FF716800EB800009
:103AC00000EB80008900B0FBF1F1A7FB013149094F
:103AD000642202FB118212013232A7FB0223C3F3DC
:103AE00043132B43A360BDE8F0819C4225D003F52E
:103AF00080639C4221D0FFF7E1FE75682F4F00EBF9
:103B0000800000EB80006D00B0FBF5F5FFF7D6FEFE
:103B1000726800EB800000EB80005200B0FBF2F80E
:103B2000FFF7CCFEA7FB053571686D0900EB80003F
:103B30002D0100EB80004900C5E7FFF7D5FE756851
:103B40001E4F00EB800000EB80006D00B0FBF5F530
:103B5000FFF7CAFE726800EB800000EB80005200A5
:103B6000B0FBF2F8FFF7C0FEA7FB053571686D09E1
:103B700000EB80002D0100EB80004900A3E7FFF778
:103B8000B3FE75680D4F00EB800000EB8000AD00C8
:103B9000B0FBF5F5FFF7A8FEA7FB053572686D09C8
:103BA00000EB800092002D0100EB8000B0FBF2F8EA
:103BB000FFF79AFE81E700BF001001401F85EB511F
:103BC000704700BF50B338B590F83930044603F061
:103BD000FF02F3B12268022384F83930D36823F45A
:103BE0000053D3602046FFF721FF23681A6922F4AF
:103BF00090421A615A6922F02A025A61DA68002159
:103C000042F400520125DA600846E16384F8395035
:103C100038BD80F83820FFF7D3FFDBE7012070477D
:103C20001848836803F00C03042B29D0082B0AD012
:103C3000154B144A154892681549C2F30312825C69
:103C4000D3400B6070474368416813F4800F4368AA
:103C500018BF104801F03F020CBF0B49B0FBF2F156
:103C6000C3F3881308BFB1FBF2F101FB03F2054B6C
:103C70005B68C3F3014301335B00B2FBF3F3D8E7A6
:103C8000044BD6E7003802400024F4007CD9010838
:103C90002C02002000127A00214B224A196C70B5C8
:103CA00041F0805119641B6C94B003F08053019370
:103CB000019B136823F4404343F4004313601368EB
:103CC00003F4404302930123029A089300B10523B1
:103CD00009934FF4A8710723042202244FF48006AD
:103CE000082508A813930E940F961095119112921F
:103CF000FFF7E6FA034610B1002014B070BD4FF490
:103D0000805221460F2503A8049405930793039539
:103D10000692FFF77BFCB0FA80F0400914B070BD4A
:103D20000038024000700040234B244A196CF0B563
:103D300041F0805119641B6C95B003F080530193DE
:103D4000019B136823F4404343F40043136013685A
:103D500003F4404302934FF0030E10230024042188
:103D60000722012702254FF4A87608A80C93109388
:103D7000DDF808C0CDF820E00B9709940F940E955C
:103D8000119612911392FFF79BFA034610B1204649
:103D900015B0F0BD4FF4805229460F2403A80495B6
:103DA0000593079303940692FFF730FCB0FA80F076
:103DB000400915B0F0BD00BF00380240007000405F
:103DC00008B50120FFF768FF00B108BDFFF764FFE9
:103DD0000028FAD1FFF7A8FF0028F6D1FEE700BFC0
:103DE000174A1848D2F8883070B543F47003164C5F
:103DF000C2F888302368154E154D002143F00103A9
:103E00002360A160236823F0847323F4803323604C
:103E1000666023684FF0006623F480232360E1602E
:103E200096600560FFF722F9FFF7CAFF236A43F0A7
:103E300008032362236A23F00803236270BD00BFD6
:103E400000ED00E02C020020003802401030002479
:103E50000024F400F8B590F91920124B0168876826
:103E6000C66805694469196001324FF000015F605E
:103E70009E60DD601C61996110D090F918200132BC
:103E80000CBF04220C225A610648FFF79BFE00B9C2
:103E9000F8BD0548BDE8F84000F04EBB08225A6165
:103EA000F2E700BFC42700208CD9010870B5134D7C
:103EB000134C55F8213020600E462BB10268520693
:103EC0000ED403689B0600D470BD0E4B55F8260037
:103ED0001B680021984723686FF020021A6070BDAC
:103EE000084A184601211368984720686FF040037C
:103EF000036003689B06E7D5E7E700BF10110020C9
:103F0000C42700203011002001480021FFF7CEBF58
:103F10000010014001480121FFF7C8BF00440040E4
:103F200001480521FFF7C2BF00140140F0B5044667
:103F300085B008460E463C49154600F067FB3B49F4
:103F40000746284600F062FB0146384600F04CFB6D
:103F5000411C206061D0364B984247D003F5806306
:103F6000984236D0A3F55043984225D030462E498A
:103F700000F018FB28462D4900F014FB721C03D0FA
:103F80003046012100F0ECFC6B1C03D028460121D7
:103F900000F0E6FC00234FF41652A260E3602361B8
:103FA0006361267665762046FFF754FF214B226831
:103FB0009A4228D005B0F0BD1F4B1A6C42F4003273
:103FC0001A641B6C03F4003302930123029A6360AA
:103FD000CCE7194B5A6C42F020025A645B6C03F038
:103FE00020030393039B05236360BFE7124B5A6CC6
:103FF00042F010025A645B6C03F01003019300233B
:10400000019A6360B2E70D4B0D4821461C22012442
:104010001C6010F024FE05B0F0BD0A480A49532286
:1040200000F050FA206896E720DC0108D8DB010890
:104030000010014000440040003802400C110020F4
:1040400004280020A4D90108C0D9010810B4044BE9
:1040500044680448196040F824205DF8044B704718
:10406000301100201011002038B503682548264C77
:104070008342236041D000F5806083423AD0A0F5AE
:104080005040834215D000200446B2B1DA6869BBC3
:1040900042F02002DA6065B201462846FEF7A4FD30
:1040A0006D0904F007040123184AA34042F82530A3
:1040B00038BD17482624002AE8D1DA6879B922F0F9
:1040C0002002DA60DB681A061AD46309203304F090
:1040D000070401220D49A24041F8232038BD22F0F7
:1040E0008002DA60DB689B06EFD538BD42F0400203
:1040F000DA60D0E707484724C7E707482524C4E724
:1041000038BD00BF00100140C427002000E100E0DE
:10411000153F0008213F0008093F000802681368A6
:104120009B06FCD5024B50681A60C0F3080070472C
:10413000C4270020026813681B06FCD5024BC1F39C
:10414000080151601A607047C42700200368034AC1
:1041500018681360C0F34010704700BFC4270020E8
:104160000368034A18681360C0F3C010704700BFAB
:10417000C427002038B50023036043600A782F2A43
:10418000044601D0204638BD4A78002AFAD0481C9F
:1041900020604D782F2D13D085B1034600E06AB121
:1041A0005D1A013323601A782F2AF8D1294601338A
:1041B000236000F085FC6060204638BD2946F8E7A2
:1041C00019460346F3E700BF00687047436843B1F0
:1041D00010B50446184600F091FC012803D1606830
:1041E00010BD00207047002010BD00BF406830B1F6
:1041F00008B500F083FCB0FA80F0400908BD7047B4
:1042000043684BB110B50446184600F077FC28B956
:10421000606818B1043810BD00207047002010BD40
:104220004068003018BF0120704700BF00F05EB842
:10423000A0F15400FFF7FABF00F05CB8A0F1540001
:10424000FFF7FABF38B504461D4600F023F82946AB
:1042500004F1540000F0E0F8054B03F1080103F10C
:104260002002543321606265A365204638BD00BF3B
:1042700028DA010801EB4101C90043185A6B1B6A97
:104280002AB11BB101442431184610477047002B56
:10429000FCD0184738B504460E4B0360251D00239B
:1042A0004FF41650206563602846A360E3602361E5
:1042B0006361A3612377637723626363A363E3642A
:1042C000FFF734FE284622460349FFF7BFFE20468B
:1042D00038BD00BF90DA0108754200080430FFF7CE
:1042E00035BF00BF0430FFF73BBF00BF0430FFF70E
:1042F00015BF00BF10B504300C46FFF71BFF20466A
:1043000010BD00BF4368416910B50446194400F070
:1043100009F9E36A3BB1A06920B104F11C01BDE8D1
:104320001040184710BDA369002BFBD0BDE810401A
:10433000184700BF10B5064B0360044600F0F8F8BC
:104340000023A361E362204600F0E0F8204610BDA0
:10435000A0DA010810B5084B0360044600F0E8F845
:104360000023A361E362204600F0D0F8204600F06D
:10437000EDFB204610BD00BFA0DA010810B50446D1
:1043800000F0D6F80023A361E36210BD38B50546FE
:104390000C4600F0CDF86C61286900F0CBF90119EA
:1043A0002846BDE8384000F0BDB800BF0020704787
:1043B000F8B58E18B1420F460ED005460C4601E006
:1043C000A64207D02B6814F8011B5B6A2846984761
:1043D0000130F5D1E01BF8BD0C46FBE7F8B58E18AF
:1043E000B1420F460ED005460C4603E004F8010B1F
:1043F000A64205D02B6828469B6A9847431CF5D1F6
:10440000E01BF8BD0C46FBE700207047002070471A
:10441000002070470020704710B584B0044600F0BB
:104420006FFB0B4B0B4903F1080000223C3384E87F
:104430000900626101A8224612F016F8064901A897
:1044400010F008F86061FEF7E3FD204604B010BDEF
:10445000B0DA01085CD90108F4DA010810B5074B9D
:1044600003F108023C33044680E80C0040690FF079
:10447000BDFD204600F058FB204610BDB0DA010813
:1044800038B504460D4640690FF066FE284661695E
:10449000BDE8384010F00CB810B5044640690FF084
:1044A0005BFE6069BDE81040FEF7B6BDC36A014619
:1044B00023B1806908B11C31184770478369002B0C
:1044C000FBD0184710B40C4613460146224602485A
:1044D0005DF8044B00F030B80CDB010803689B6802
:1044E000184700BF074B10B503600023436083608B
:1044F000C360044600F022F90349206100F0A2F8ED
:10450000204610BD48DB0108DD44000810B5044B0F
:1045100003600446211D006900F0E8F8204610BD44
:1045200048DB010803460A460069191D00F0BAB8C5
:10453000011D006900F0DAB80FB400B5064B83B076
:1045400004AA1B6852F8041BD868019210F080FD81
:1045500001200FF0E5FC00BF1403002038B50D4624
:10456000044600F01FF9013511D094F900300133F1
:104570000ED06368E2681B0420461360012100F03E
:104580002BF920460021BDE8384000F021B938BDA4
:10459000024803493422FFF795FFEAE78CD8010867
:1045A000A4D80108431C10B5044619D091F9003075
:1045B000581C04D10FE011F90C3F5A1C0BD09C423F
:1045C000F9D12046896800F09DF920460021BDE818
:1045D000104000F0C5B90348BDE81040FFF7ACBF7C
:1045E00010BD00BF54DB010888420AD0421C09D02C
:1045F000013106D008B50448FFF79EFF4FF0FF30A9
:1046000008BD70470846704768DB0108421C0FD0A0
:1046100008B591F900305A1C04D10AE011F90C3F99
:104620005A1C06D09842F9D14868411C01D008BDF7
:1046300070470348FFF780FF4FF0FF30F7E700BFF8
:104640007CDB010838B5036804461B680D469847B3
:1046500063681D6038BD00BF036870B5DB68054640
:1046600098476B685B6883B12A681C6853689847F1
:10467000201A00286A680DDC50681168836853604E
:104680000029F0D040688847EBE72B68BDE8704010
:104690009B6818472B6852681B691068BDE870401A
:1046A000184700BF30B583B072B644680A606568C9
:1046B0004B608DB12B68D31A002B05DA0CE01C6817
:1046C000141B002C03DB1D46AB68002BF7D1A9603F
:1046D0008B6062B603B030BD036861601B690191F5
:1046E000104698472B460199F2E700BF08B572B60D
:1046F00043685A688A4211D04AB193688B4208D005
:104700002BB19A688A4205D01346002BF9D162B6C4
:1047100008BD13468A689A6062B608BD92685A60FE
:10472000036822B110681B69984762B608BD9B6890
:104730009847ECE703685B68184700BF004870477C
:10474000D0DB01080148FFF787BF00BFD0DB0108BD
:1047500038B5054600F03AF9044600F037F9001B79
:10476000A842FAD338BD00BF4FF47A7303FB00F0C0
:10477000FFF7EEBF431C10B5044608D020460021C9
:1047800000F0C0F804F00F040120A04010BD034861
:1047900003492722FFF796FEF0E700BF68DC010817
:1047A0007CDC010870B505464B1C0C4629700DD009
:1047B000C1F3031000F030F806462046FFF7DAFF99
:1047C00006F1100318366860AB60EE6070BD00BF84
:1047D00090F9000000F0C4B838B5054690F9000023
:1047E000431C0C460BD0012C04D00021BDE83840FE
:1047F00000F088B82146BDE8384000F083B804488E
:1048000004494622FFF75EFE95F90000EBE700BF82
:104810008CD801087CDC010800B587B0072859D87E
:10482000DFE800F012202E3C4A5858042D4B2E4849
:104830001A6B42F080021A631B6B03F0800305932E
:10484000059B07B05DF804FB264B28481A6B42F025
:1048500001021A631B6B03F001030093009B07B076
:104860005DF804FB1F4B22481A6B42F002021A63E8
:104870001B6B03F002030193019B07B05DF804FB7F
:10488000184B1C481A6B42F004021A631B6B03F0AE
:1048900004030293029B07B05DF804FB114B16481A
:1048A0001A6B42F008021A631B6B03F008030393B0
:1048B000039B07B05DF804FB0A4B10481A6B42F0EB
:1048C00010021A631B6B03F010030493049B07B0E0
:1048D0005DF804FB0A48FFF72FFE002007B05DF8E3
:1048E00004FB00BF00380240001C024000000240F0
:1048F0000004024000080240000C02400010024088
:1049000018DD010830B5431C87B005460C461BD0A6
:10491000C5F30310FFF780FF05F00F0504F00F014A
:104920000C4A0123AB40019352F821500295C4F385
:1049300002120323C4F3C31401A903920594049340
:10494000FEF7CEFB07B030BD034804498122FFF7D4
:10495000B9FDDDE7E4DC010868DC01083CDD0108A5
:1049600038B5431C04460D4614D0C4F30310FFF7BA
:1049700053FF04F00F04C26864000323A34022EA3B
:104980000303C360022DC3688CBF0025A5401D43EF
:10499000C56038BD02480349A622FFF793FDE4E74E
:1049A00068DC01083CDD0108054B186800B1704760
:1049B000044A0549116001221A60FEF761B900BF7F
:1049C000781100203C110020000C004008B5064B77
:1049D000186830B9054A0649116001221A60FEF7CD
:1049E0004FF9034B586A08BD781100203C11002094
:1049F000000C0040034B1B685863DA6842F0020267
:104A0000DA6070473C110020034B1A68D36823F02A
:104A10000203D360704700BF3C110020024B1B68AB
:104A20006FF002021A6170473C1100208368094A46
:104A3000026053B1084B1A68824201D106E01A465F
:104A400053688342FBD143685360704742681A60E1
:104A5000704700BFA8DD01087C11002083680C4A64
:104A600010B50446026053B10A4B1A68904201D156
:104A70000AE01A4653689C42FBD1636853602046A3
:104A800000F064F8204610BD42681A60F7E700BFE6
:104A9000A8DD01087C11002010B40023064C02732D
:104AA00081600460436019B1044B1A684260186069
:104AB0005DF8044B704700BFA8DD01087C110020A1
:104AC0000D4B70B51C6806460D4614B912E06468BB
:104AD00084B1A36831462A461846002BF7D012F05D
:104AE00019FA0028F3D1A06812F00CFAA842EED10E
:104AF000204670BD002070BD7C110020007B7047F7
:104B000010B5074B0446002240F8043BFFF7C4FFF2
:104B1000044B03F10802343384E80C00204610BD36
:104B200038D90108B0DD010810B5074B044603F180
:104B300008023433226040F8043FFFF777FF204635
:104B4000FEF71AF9204610BDB0DD010810F014B8C8
:104B500010B5002814BF04460124204610F004F8C4
:104B600030B900F01FF808B90FF06DF98047F4E78D
:104B700010BDFFF7EBBF0346084619460FF0BCB95E
:104B8000FFF7E6BF0368DB0706D4437803B1FFDE17
:104B900001234370184670470020704701230360CB
:104BA00070470000024B1868BFF35F8F704700BF6B
:104BB000801100202DE9F843314D2B685A1C8046A6
:104BC0002A60002B58D12F4C2F4B3048304FDFF844
:104BD000F090304E01221A702368996806F070FA3E
:104BE00023682D48596806F06BFA23682B48D9686A
:104BF00006F066FA3846254900F09CF826494846F2
:104C000006F02CFC3046254900F094F8234924484E
:104C100000F090F83369776743F4005333612368F9
:104C2000C9F8787099681F481F4E204F06F058FA4F
:104C300023681F48596806F053FA23681D48D9684D
:104C40001D4C06F04DFA1749304600F065F9184939
:104C5000384606F06DFC1749204600F05DF917480C
:104C6000144900F059F92369BE6743F400532361E6
:104C70002B68666701332B604046BDE8F88300BFB0
:104C8000EC1600201403002030020020C41600207F
:104C90003C140020AC1100205815002014140020F2
:104CA00010160020EC13002038120020C81200203B
:104CB000841100209C160020801500205C13002029
:104CC000C81400200D4A1368591E022B10B5044663
:104CD000116011D10A4800F080F80A4800F07DF810
:104CE000094800F07AF8094800F069F9084800F02E
:104CF00066F9084800F063F9204610BDEC16002064
:104D00003C140020AC1100201016002038120020A6
:104D1000801500205C1300200B6810B5044603606A
:104D200053F80C0C4B6823501146204400F0E8FC6B
:104D3000204610BD70B5051D044628460E4600F0FD
:104D4000ABFC054B2360143328466360314600F00A
:104D5000D7FC204670BD00BF04DE010838B504460C
:104D60000D4609B9136800E00C4B236015B953F8E0
:104D70000C3C00E0042323440DB9526800E0084ACB
:104D80001A60AA0702D5201D00F024FCEB0702D50B
:104D90002046FFF7DBFE204638BD00BF04DE0108D9
:104DA00018DE010802210022FFF7D8BF036853F87C
:104DB0000C3C1844F6E710B50446FFF7F3FF204615
:104DC000FFF7C4FE204610BD036853F80C3C18449E
:104DD000F1E70A460021FFF7C1BF036853F80C3C16
:104DE000034410B50446986F50B100F01FFB01302A
:104DF00006D1236853F80C0C0121204400F020FC5C
:104E0000204610BD38B5002303700B6853F80C3CE6
:104E100005460B446960186F0C4608B15B6963B1C5
:104E2000236853F80C0C2044436913B901232B70F9
:104E300006E0042100F004FC02E0FFF7CEFFEFE7FC
:104E4000284638BD38B54468236853F80C3C1C44E8
:104E50000546E3689B0410D508F06FFB68B9A06FA6
:104E600058B100F0E3FA013007D16B681A6852F8C4
:104E70000C0C0121184400F0E3FB284638BD37B57F
:104E800004460D4668462146FFF7BCFF9DF80030FA
:104E900083B1236853F80C3C23442946986F00F0F3
:104EA000DDFA013006D1236853F80C0C01212044AF
:104EB00000F0C6FB6846FFF7C5FF204603B030BDD3
:104EC00038B5036853F80C3C03440546DC6F0CB955
:104ED00007F056FD237F13B194F8271008E0204611
:104EE00006F077FA23680A219B6920469847014615
:104EF0002846FFF7C4FFFFF770FF38BD0B6810B5F9
:104F00000446036053F80C0C4B68235011462044B0
:104F100000F059FC204610BD70B5051D044628461A
:104F20000E4600F01BFC054B2360143328466360DB
:104F3000314600F048FC204670BD00BF34DE010859
:104F400038B504460D4609B9136800E00C4B2360E0
:104F500015B953F80C3C00E0042323440DB9526802
:104F600000E0084A1A60AA0702D5201D00F03CFBA9
:104F7000EB0702D52046FFF7E9FD204638BD00BF0C
:104F800034DE010848DE010802210022FFF7D8BF05
:104F9000036853F80C3C1844F6E710B50446FFF7D5
:104FA000F3FF2046FFF7D2FD204610BD036853F8FB
:104FB0000C3C1844F1E70A460021FFF7C1BF036823
:104FC00053F80C3C034410B50446D86F50B100F0C0
:104FD0006BFA013006D1236853F80C0C01212044F0
:104FE00000F0B6FB204610BD036870B5044653F8C8
:104FF0000C0C20440D4600F03EFB0646002D14DD4F
:10500000236853F80C3C23443146986F00F026FA8D
:10501000013008D1236853F80C0C01212044BDE86D
:10502000704000F00DBB013DE8E770BD38B5036886
:1050300053F80C3C03440446986F154600F01EFAE2
:10504000A84208D0236853F80C0C01212044BDE885
:10505000384000F0F5BA38BD2DE9F34104468846E2
:10506000684621461646FFF7CDFE9DF80030002B1E
:1050700036D0236853F80C3C23449F68B7421EDDAA
:10508000DD6805F0B005A5F120035D425D411DB965
:105090002046B91BFFF7A8FF236853F80C3C2344B4
:1050A0005B698BB9204641463246FFF7BFFF5DB1D1
:1050B000236853F80C3C23445B6963B104E0204649
:1050C00041463246FFF7B2FF236853F80C3C2344B5
:1050D00000229A6004E02046B91BFFF785FFF3E742
:1050E0006846FFF7AFFE204602B0BDE8F08138B554
:1050F00004460D4639B9036853F80C0C01212044CD
:1051000000F09EFA07E0084611F0FCFE2946024630
:105110002046FFF7A1FF204638BD08B5FFF7E7FF9F
:1051200008BD0B6853F80C3C19448B6F0360B3FA4D
:1051300083F35B09037170472DE9F04104468AB09F
:10514000884604A82146FFF75DFE9DF8103043B362
:10515000236853F80C3C2344D3F880700FB907F050
:105160000FFC06AE21463046FFF7DBFF236853F8FD
:105170000C5C2544284600F07EFA00950190CDF89D
:10518000088096E80C0008A8394608F0AFFF9DF8A3
:10519000243033B1236853F80C0C0121204400F073
:1051A0004FFA04A8FFF74EFE20460AB0BDE8F08192
:1051B00008B5FFF7C1FF08BD7047704730B5002242
:1051C0004FF0FF344FF0FF35C0E900458260C26008
:1051D00030BD82B08DE80C004FF0FF334FF0FF324E
:1051E000C0E9002300238360C36002B07047002041
:1051F0007047002070474FF0FF307047036810B5CC
:105200005B6A04469847431C1EBFA36813F8010B52
:10521000A36010BD4FF0FF3070474FF0FF30704774
:105220007047704730B500224FF0FF344FF0FF3524
:10523000C0E900458260C26030BD82B08DE80C00DC
:105240004FF0FF334FF0FF32C0E9002300238360AB
:10525000C36002B0704700207047002070474FF0D5
:10526000FF3070474FF0FF3070474FF0FF3070470E
:1052700010B5044B044640F81C3B06F0EDFE2046FA
:1052800010BD00BFB8DE010810B5044B044640F85D
:105290001C3B06F0E1FE204610BD00BFF8DE010811
:1052A00010B50446FFF7E4FF2046FFF74FFC204609
:1052B00010BD10B50446FFF7E7FF2046FFF746FC98
:1052C000204610BD2DE9F04106460F4690460025C8
:1052D00045451DDA7069B469241A0FD0C5EB08037F
:1052E0009C42A8BF1C46394622460FF0B8FC7369A1
:1052F0002544274445451C447461E9DA336839780C
:105300005B6B30469847013002D001350137DFE74B
:105310002846BDE8F0812DE9F04106460F4690464B
:10532000002545451FDA7069B469241AA41010D00D
:10533000C5EB08039C42A8BF1C463946224613F021
:1053400077FF73692544A400274445451C447461D4
:10535000E7DA336839685B6B30469847013002D032
:1053600001350437DDE72846BDE8F081036810B554
:105370005B6A04469847431C1EBFA36853F8040B9E
:10538000A36010BD2DE9F04106460F46904600256A
:1053900045451DDAB168F468641A0FD0C5EB0803FF
:1053A0009C42A8BF1C46384622460FF058FCB36802
:1053B0002544274445451C44B460E9DA3368304647
:1053C0009B6A9847431C03D0387001350137DFE7EB
:1053D0002846BDE8F0812DE9F04106460F4690468B
:1053E000002545451FDAB168F468641AA41010D08E
:1053F000C5EB08039C42A8BF1C463846224613F062
:1054000017FFB3682544A400274445451C44B460F5
:10541000E7DA336830469B6A9847431C03D038600C
:1054200001350437DDE72846BDE8F08103689B6954
:1054300018478368C1688B42024602D303689B6A9F
:10544000184713F8010B936070478268C1688A425D
:1054500002D303685B6A18471078704730B5426919
:105460008569AA4204D30368BDE830405B6B1847E6
:105470001170426901324261084630BD03681B6BFE
:105480001847000010B5074B036000230446436033
:105490008360C3600361436183611C300EF0BAF81E
:1054A000204610BDB8DE010803689B691847836871
:1054B000C1688B42024602D303689B6A184753F8BF
:1054C000040B936070478268C1688A4202D3036804
:1054D0005B6A18471068704703681B6B1847000029
:1054E00010B5074B03600023044643608360C3602C
:1054F0000361436183611C300EF08CF8204610BDBF
:10550000F8DE0108104B10B5044603600023436029
:105510008360C360036143618361C361036200F11F
:10552000240204F16C012C30002340F8083C40F8C0
:10553000043C08308842F7D108236366A2660EF067
:1055400069F8204610BD00BFB8DF010870B5846956
:1055500005460E4634B16368A2683046294698472E
:105560002468F7E770BD38B50446806910B9002398
:10557000A36138BDC3685A1EC260002BF7D105680D
:10558000FFF7E4FA2846F1E70C4B10B5002104467A
:105590000360FFF7DBFF2046FFF7E5FFA06E04F195
:1055A0002403984204D008B1FFF7E3FA0023A3666E
:1055B00004F16C0006F050FD204610BDB8DF010874
:1055C00010B50446FFF7E0FF2046FFF7BFFA20467C
:1055D00010BD000010B5034B03600446FFF7D4FF75
:1055E000204610BDC8DF010810B5034B0360044618
:1055F000FFF7CAFF204610BDD8DF010810B50446EA
:10560000FFF7E8FF2046FFF7A1FA204610BD10B5CE
:105610000446FFF7E9FF2046FFF798FA204610BD41
:1056200008B5836F0BB941F001014161426903691B
:105630001A4202D0014807F0CBF908BD32E0010858
:1056400008B543691943FFF7EBFF08BD70B5C46F98
:105650000D460CB907F094F9237F4BB9204605F0AD
:10566000B8FE2368204629469B69BDE8704018476C
:105670000C44607F70BD90F8753010B504463BB99E
:105680002021FFF7E3FF012384F8740084F87530CC
:1056900094F8740010BD000010B50446FFF732FF07
:1056A000074B2360002384F87430236784F8753037
:1056B000A367E367C4F88030C4F88430204610BD87
:1056C000C8DF010838B5044608460D4609F016F94A
:1056D00010B1284608F0F0FDE067284609F02CF9E3
:1056E00010B1284608F0D8FEC4F88000284609F01A
:1056F00041F910B1284608F0EDFEC4F8840038BD29
:1057000038B504460D4600F074F804F16C012046EB
:10571000FFF7D8FFB5FA85F10023490984F8743002
:1057200084F8753023672361A567616138BD000087
:1057300008B5C36F0BB941F00101416142690369CA
:105740001A4202D0014807F043F908BD32E00108CF
:1057500008B543691943FFF7EBFF08BD10B50446D0
:10576000FFF7D0FE074B236000232367636784F8AD
:105770007830E367C4F88030C4F88430C4F88830E7
:10578000204610BDD8DF010838B5044608460D464E
:1057900000F04AFE10B1284600F074FDC4F8800005
:1057A000284600F05FFE10B1284600F0A7FDC4F8BF
:1057B0008400284600F074FE10B1284600F0BCFDBD
:1057C000C4F8880038BD38B504460D4600F011F81D
:1057D00004F16C012046FFF7D7FFB5FA85F10023ED
:1057E0004909636784F8783023672361E56761615D
:1057F00038BD13B5062343600023836041F20203E2
:10580000C360044601A80DF005FF01A904F16C0076
:1058100006F029FC01A806F01FFC02B010BD836849
:10582000586970478368986970478368586B7047F8
:1058300083689B6B0020DAB262F30700C3F3072290
:1058400062F30F20C3F3074262F317401B0E63F3AA
:105850001F6082B002B070478368DB6B0020DAB251
:1058600062F30700C3F3072262F30F20C3F307427A
:1058700062F317401B0E63F31F6082B002B07047E3
:105880008368586970478368986970478368586B64
:10589000704783689B6B0020DAB262F30700C3F3A2
:1058A000072262F30F20C3F3074262F317401B0E77
:1058B00063F31F6082B002B070478368DB6B002027
:1058C000DAB262F30700C3F3072262F30F20C3F3D7
:1058D000074262F317401B0E63F31F6082B002B0F1
:1058E00070478368586A70478368986A70470020D9
:1058F00070470020704770470020914204D251F851
:10590000043B03EB7060F8E7704713B58B6801AA9E
:105910009968044607F010F8204602B010BD13B590
:105920008B6801AA9968044607F006F8204602B081
:1059300010BD13B58B6801AA9968044606F0FCFFF8
:10594000204602B010BD13B58B6801AAD969044680
:1059500007F098FB204602B010BD13B58B6801AA72
:10596000596A044607F08EFB204602B010BD13B5FD
:105970008B6801AAD96A044607F084FB204602B06E
:1059800010BD13B58B6801AAD969044607F07AFBEC
:10599000204602B010BD13B58B6801AA596A0446AF
:1059A00007F070FB204602B010BD13B58B6801AA4A
:1059B000D96A044607F066FB204602B010BD13B555
:1059C0008B6801AA5969044607F05CFB204602B0C7
:1059D00010BD13B58B6801AAD969044607F052FBC4
:1059E000204602B010BD00000D4B10B5036090F8CA
:1059F0006C3004467BB1806808B1FFF7BAF8E06903
:105A000008B1FFF7B6F8606A08B1FFF7B2F8E06ACC
:105A100008B1FFF7AEF8204606F0A9FA204610BDFF
:105A200020E301080D4B10B5036090F86C3004467C
:105A30007BB1806808B1FFF79CF8E06908B1FFF717
:105A400098F8606A08B1FFF794F8E06A08B1FFF7C8
:105A500090F8204606F08BFA204610BD30E301088E
:105A600010B5034B0360044606F081FA204610BDD2
:105A7000B0E2010810B5034B0360044606F077FA64
:105A8000204610BDC8E201080B4B10B5036090F82A
:105A9000243104465BB1806808B1FFF76AF8606999
:105AA00008B1FFF766F8E06908B1FFF762F8204631
:105AB00006F05DFA204610BD40E3010810B5034B27
:105AC0000360044606F053FA204610BD60E1010869
:105AD00010B5034B0360044606F049FA204610BD9A
