:020000040800F2
:100000000080012005280008512800085128000818
:10001000512800085128000851280008000000005D
:100020000000000000000000000000006122000845
:100030005128000800000000ED22000845230008B8
:1000400051280008512800085128000851280008AC
:10005000512800085128000851280008512800089C
:10006000512800085128000851280008512800088C
:10007000512800085128000851280008512800087C
:1000800051280008512800085128000800000000ED
:1000900000000000000000000000000051280008DF
:1000A000512800085128000851280008512800084C
:1000B000512800085128000851280008512800083C
:1000C000512800085128000851280008512800082C
:1000D000512800085128000851280008000000009D
:1000E000512800085128000851280008000000008D
:1000F000000000000000000000000000512800087F
:10010000000000005128000851280008512800086C
:1001100000000000000000000000000000000000DF
:1001200051280008512800085128000851280008CB
:10013000512800080000000000000000000000003E
:10014000000000000000000000000000512800082E
:10015000512800085128000851280008512800089B
:10016000512800085128000800000000000000008D
:10017000000000000000000000000000000000007F
:1001800000000000512800080000000000000000EE
:100190005128000810B5054C237833B9044B13B12E
:1001A0000448AFF300800123237010BDFC0300203E
:1001B000000000001CFA0108084B10B51BB10848EC
:1001C0000849AFF300800848036803B910BD074B26
:1001D000002BFBD0BDE81040184700BF0000000016
:1001E0001CFA010800040020F803002000000000B1
:1001F000154B002B08BF134B9D46A3F5803A0021F9
:100200008B460F461348144A121A14F0B4F80F4BD9
:10021000002B00D098470E4B002B00D098470020B1
:10022000002104000D000D48002802D00C4813F0F6
:1002300077F913F0D3FE2000290000F043F913F002
:10024000D5F900BF00000800008001200000000078
:10025000F5130008FC0300202028002021350108A8
:10026000093A0108024BDA685B681B0413607047A7
:100270004804002010B5054B0360044603F0D8FB8A
:10028000204603F09DFC204610BD00BF30D201087F
:10029000064B0748DA685B681360064B83610023EE
:1002A000C36247F2305103F0CBBB00BF48040020CB
:1002B000180400206502000810B50446FFF7DAFFB5
:1002C000204603F09DFF204610BD000010B50D4CE8
:1002D00010222046002114F04EF820460A4C052139
:1002E00003F096FC204603F057FC0023A361E36271
:1002F000064B236020460649064ABDE8104003F03D
:1003000094BF00BF480400201804002090D20108C8
:10031000750200089401002070B590E86000044662
:10032000B54206D0286810B103685B689847083565
:10033000F6E7E06804F10C03984204D0056803F086
:100340005FFF2846F6E7206808B103F059FF204612
:1003500070BDF0B5054687B0EA6805F10C039A4216
:100360001ED0FFF795FFEB689E680024336800936A
:10037000694605F11C008DF805400294039404942D
:10038000ADF8144000F048FBEF68384603F073FF07
:10039000384603F035FF0298347108B103F030FF9E
:1003A000642000F056FFD7E7F8B5054695E89000C1
:1003B000BC4208D0206803681B69984708B12679B9
:1003C0002EB10834F4E7282000F043FFEEE70123C4
:1003D00023710C2003F016FF05F10C010660466046
:1003E000846003F041FFECE710B5054C204603F0B4
:1003F00047FF20460349044ABDE8104003F015BFFB
:1004000058040020914300089401002010B50446D0
:10041000034815F005FA2046BDE81040FFF7C4BFB9
:100420007ACF0108F8B5436804681C1BE41014BFB8
:10043000234601231C1907460D4602D2B4F1005F82
:100440002AD36FF06044E00003F0DCFE064697E834
:1004500003000B1A16EB030E1FBF2A68F2502B790C
:100460008EF80430324603468B4207D01AB11D681D
:1004700015601D79157108320833F5E71D1A25F04E
:1004800007050835354408B103F0BAFE06EBC4048D
:100490003E607D60BC60F8BD002CD4D12646D6E716
:1004A00010B5054C204603F0EBFE20460349044AF4
:1004B000BDE8104003F0B9BE590400209143000884
:1004C0009401002030B504249FB0FFF7E1FE8C209A
:1004D00003F0A4FC013CF8D105AB059306931EABD9
:1004E00007AA43F8582D7C2009930294039404949E
:1004F00003F088FE1B4B43601B4B83600623C360E5
:100500001A4B0546032240F8103B0221234603F014
:10051000F3F9039B049A0A9593428DF82C4005D079
:100520000BB11D601C710833039303E002A80AA9F4
:10053000FFF778FF00244FF400630D4902AA8DE80D
:1005400018000AA8234600F035FE02A8FFF701FFB5
:100550000AA800F063FE02A8FFF7DEFE20461FB0E7
:1005600030BD00BF74CF010886CF0108F0CF01086D
:100570000D04000810B5044694E80C009A4212D00D
:1005800053F8040C10B103685B6898476368043B38
:100590006360F1E753F8040C10B103685B68984797
:1005A0002369043B23612369E2689A42F2D108E09F
:1005B00053F8040C10B103685B689847E369043B87
:1005C000E361E369A0699842F2D108B103F018FE33
:1005D000E06808B103F014FE206808B103F010FED3
:1005E000204610BD002370B504460E4615460B701C
:1005F00035B3637943B92146012251F8040B0368EE
:100600009B6898470823637160792179A84234BFB9
:10061000C2B2EAB253B2C01A41FA00F0317899403E
:10062000014331706079C11A01238B402179D2B224
:10063000013B801A0B40AA1A23716071D5B2D7E72B
:1006400070BD0000F8B582684368934206460D46C7
:1006500006D00A7803B11A70736801337360F8BD6D
:1006600004681B1B5A1C02D116480BF0F5FC002B2A
:1006700014BF1C460124E41801D23CB101E04FF044
:10068000FF34204603F0BEFD074600E0274696E80B
:100690000C009B1ADF422A7818BFFA5496E806002D
:1006A000551A03D038462A4613F04AFE3068013501
:1006B0003D4408B103F0A4FD3C4437607560B4606C
:1006C000F8BD00BF8FCF0108838903F00703C3F192
:1006D00008039BB2082BF7B505460E46144617D003
:1006E0009A42174628BF1F46E41BE1404268C8B241
:1006F000FF21B94020EA0101DB1B01FA03F312F8E4
:10070000011C0B4302F8013CAB891F44A4B2AF812A
:10071000E3080DD0083C02A9A4B226FA04F301F8BC
:10072000013D2846FFF78EFFAB890833AB81EFE729
:100730005CB1C4F1080302A99E4001F8016D28468E
:10074000FFF780FFAA891444AC8103B0F0BD838910
:1007500003F00703C3F108039BB2082BF7B5054666
:100760000E46144618D09A42174628BF1F46E41B6F
:10077000426841FA04F0FF21B94020EA0101C9B200
:10078000DB1B01FA03F312F8011C0B4302F8013CD6
:10079000AB891F44A4B2AF81E3080DD0083C02A985
:1007A000A4B246FA04F301F8013D2846FFF74AFFD8
:1007B000AB890833AB81EFE75CB1C4F1080302A950
:1007C0009E4001F8016D2846FFF73CFFAA891444BA
:1007D000AC8103B0F0BD00002DE9FF41CB688D680E
:1007E00014465D1B4FF000020E46009201920292E9
:1007F00004D0284603F006FD034600E02B46B1680E
:10080000F26800931D440295551A019304D01846CE
:100810002A4613F095FD03465A192178B38AADF89C
:100820000C3033680192684601F007012022DD6830
:10083000FFF74AFF21886846C1F384112022FFF7A1
:1008400043FF21786846C1F3C2012022FFF73CFF35
:100850001E48009903F0C7FF6768ADB207EB0508B3
:10086000474506D0684617F8011B0822FFF76FFFBF
:10087000F6E704F1080704F10B0817F8011B6846B6
:100880000822FFF764FF4745F7D1E7683D44AF42D0
:1008900006D0684617F8011B0822FFF758FFF6E755
:1008A00004F11005133415F8011B68460822FFF700
:1008B0004EFFA542F7D1304600F0DAF8009808B1B3
:1008C00003F09EFC04B0BDE8F08100BF38140020A6
:1008D0002DE9F047D1F8008098F80C50B8F80C706A
:1008E0008CB00C460646294602A800F0E5F82946D9
:1008F00007A800F0E1F820460DF107010322FFF7F9
:1009000071FE9DF808309DF80720204662F302032F
:100910000DF1070105228DF80830FFF763FEBDF8E1
:1009200008309DF80720039962F38A1320463A465F
:10093000ADF8083000F0AAF8204604A9032200F020
:10094000A5F8204605993A4600F0A0F8204606A9E9
:10095000032200F09BF8BDF80850DDF814A0D8F889
:100960000490C5F38415504649462A4613F0CDFC41
:1009700090B906A8D8F80810032213F0C6FC58B99D
:10098000504624492A4613F0C0FC28B906A821493C
:10099000032213F0BAFC20B19DF8082012F0300FAA
:1009A00008D007A800F0A4F802A800F0A1F80CB045
:1009B000BDE8F0879DF81C30089862F302038DF8BB
:1009C0001C30BDF81C30022265F38A13ADF81C30D0
:1009D000494662F3C5033A468DF81C3013F0A5FC76
:1009E000D8F8083003991A880A989B78ADF8242023
:1009F0003A468DF8263013F098FC049BADF82C3065
:100A000030461B0C214607AA8DF82E30FFF7E4FE76
:100A1000C7E700BF89CF010837B505460C46084631
:100A200005220DF10701FFF7DDFD9DF8073033B119
:100A3000012B08D128462146FFF74AFF03E028682A
:100A4000214600F0CDFA03B030BD000010B5054CD2
:100A5000204603F015FC20460349044ABDE8104037
:100A600003F0E3BB5A0400209143000894010020E6
:100A700010B504460068E2680368A168DB68521A92
:100A80009847A368E3600023A38210BD0068036851
:100A90009B68184710B5054C204603F0F1FB204633
:100AA0000349044ABDE8104003F0BFBB5B040020CB
:100AB000914300089401002038B5037803F0F8034F
:100AC0006FF3C503037003886FF38A130380002359
:100AD0000446038183720382837408460D4603F043
:100AE000A9FB6060284603F0A5FBE060204638BD06
:100AF00010B50446C06808B103F095FB606808B102
:100B000003F091FB204610BD10B5054C204603F0C4
:100B1000B7FB20460349044ABDE8104003F085BBFB
:100B20005C040020914300089401002070B50E4E33
:100B3000346814F0010415D1304603F07DFB88B110
:100B40000A4D30462C606C60AC60EC602C616C61CE
:100B5000AC61EC612C6203F07BFB28460449054A3A
:100B600003F063FB014870BD840400206004002092
:100B70007505000894010020002370B504460E4658
:100B800015460B8035B3637943B92146012251F8EC
:100B9000040B03689B689847082363716079217987
:100BA000A84234BFC2B2EAB253B2C01A41FA00F04E
:100BB00031889940014331806079C11A01238B400B
:100BC0002179D2B2013B801A0B40AA1A23716071BD
:100BD000D5B2D7E770BD37B51D46BDF8183001F165
:100BE000080432200968009001339BB220468968CE
:100BF000023200F069FA204629460622FFF7A7FDD7
:100C000020469DF81C100222FFF7A1FD03B030BD65
:100C100037B54FF0010E00258DE820400C46FFF758
:100C2000DAFF204603B0BDE83040FFF721BF8389DB
:100C300003F00703C3F108039BB2082BF7B5054681
:100C40000E46144618D09A42174628BF1F46E41B8A
:100C5000426841FA04F0FF21B94020EA0101C9B21B
:100C6000DB1B01FA03F312F8011C0B4302F8013CF1
:100C7000AB891F44A4B2AF81E3080DD0083C02A9A0
:100C8000A4B246FA04F301F8013D2846FFF7DAFC66
:100C9000AB890833AB81EFE75CB1C4F1080302A96B
:100CA0009E4001F8016D2846FFF7CCFCAA89144448
:100CB000AC8103B0F0BD2DE9F3471D4682460F46D7
:100CC000914601F10808FFF731FF064609C8181AD6
:100CD000841007D0B4F1804F01D30BF0B4F903F0C6
:100CE00091FA044696E80600521A961002D0204661
:100CF00013F026FB06EB460301339BB2009301235E
:100D0000019350462B4639464A46FFF764FF40465A
:100D1000F1B20822FFF71BFD0025B5420DD0294690
:100D200040460822FFF7D0FC54F825304046998809
:100D30001022FFF77CFF0135EFE73846FFF798FEFA
:100D40002CB1204602B0BDE8F04703F059BA02B01A
:100D5000BDE8F0872DE9F3471D4682460F469146D0
:100D600001F10808FFF7E2FE03690646C068181A99
:100D7000841007D0B4F1804F01D30BF064F903F075
:100D800041FA0446F1683269521A961002D02046A0
:100D900013F0D6FA06EB460301339BB2009301230E
:100DA000019350462B4639464A46FFF714FF40460A
:100DB000F1B20822FFF7CBFC0025B5420DD0294641
:100DC00040460822FFF780FC54F8253040469988B9
:100DD0001022FFF72CFF0135EFE73846FFF748FEFA
:100DE0002CB1204602B0BDE8F04703F009BA02B0CA
:100DF000BDE8F0872DE9F3471D4682460F46914630
:100E000001F10808FFF792FEC36906468069181AC7
:100E1000841007D0B4F1804F01D30BF014F903F024
:100E2000F1F90446B169F269521A961002D02046CF
:100E300013F086FA06EB460301339BB200930123BD
:100E4000019350462B4639464A46FFF7C4FE4046BA
:100E5000F1B20822FFF77BFC0025B5420DD02946F0
:100E600040460822FFF730FC54F825304046D98828
:100E70001022FFF7DCFE0135EFE73846FFF7F8FDFB
:100E80002CB1204602B0BDE8F04703F0B9B902B07A
:100E9000BDE8F0872DE9F04385B00C4681469046C9
:100EA000084610220DF10E011F46FFF765FEFFF701
:100EB0003DFE8369C269BDF80E10D21AB1EBA20FD4
:100EC00004F1080612D253F821507DB12B7A009319
:100ED00001230193484621463B464246FFF77BFEED
:100EE0002B682846DB68314698470FE00222012331
:100EF0008DE80C004846214642463B46FFF76BFE14
:100F00003046BDF80E101022FFF791FE2046FFF785
:100F1000AFFD05B0BDE8F08373B50C460646154637
:100F2000084606220DF10601FFF75CFB20460DF195
:100F300007010222FFF756FB9DF80630042B2CD840
:100F4000DFE803F0030B131B2300304621462A463B
:100F50009DF80730FFF75CFE29E0304621462A461F
:100F60009DF80730FFF7A7FE21E0304621462A46CC
:100F70009DF80730FFF7EEFE19E0304621462A467D
:100F80009DF80730FFF736FF11E0304621462A462C
:100F90009DF80730FFF77EFF09E00649064803F099
:100FA0000CFC9DF8061003F069FC03F0EFFA02B0A8
:100FB00070BD00BFABCF0108A811002010B5054CD3
:100FC000204603F05DF920460349044ABDE810407D
:100FD00003F02BB9880400209143000894010020FD
:100FE0002DE9FF410C460F680322064608460DF125
:100FF0000301FFF7F7FA9DF804309DF8032020461F
:1010000062F302030DF1030108228DF80430FFF7AB
:10101000E9FA9DF803308DF80530002B4ED02046BC
:101020000DF106010322FFF731FD20460DF1090104
:101030000322FFF72BFD0023ADF80C301025637958
:1010400043B92146012251F8040B03689B68984775
:10105000082363716279BDF80C0094F804E0AA4299
:1010600034BFD3B2EBB259B2C1EB020C88400121BC
:10107000DBB201FA0CF14EFA0CF80139ED1A48EA2C
:10108000000001EA0E01D21A15F0FF05ADF80C00C0
:1010900021716271D3D10DF10900B968032213F0F7
:1010A00034F930B90DF109000649032213F02DF986
:1010B00020B13068214601AAFFF72EFF04B0BDE839
:1010C000F08100BF89CF01082DE9F34105460F46A5
:1010D0001446002105221E46FFF739FB2846002151
:1010E0000322FFF734FB28469DF820100822FFF763
:1010F0002EFB07F1030817F8011B28460822FFF70B
:1011000026FB4745F7D1E71C14F8011B28460822A7
:10111000FFF71DFBBC42F7D1AC8904F00704C4F112
:1011200008039BB2082B11D06868C3F11001FF229D
:101130009A4046FA01F121EA020210F8011C0A4322
:1011400000F8012CAA89083413440EE01024E308A7
:101150000DD0083C02A9A4B246FA04F301F8013DFF
:101160002846FFF76FFAAB890833AB81EFE75CB134
:10117000C4F1080302A99E4001F8016D2846FFF75B
:1011800061FAAB891C44AC8102B0BDE8F08100007B
:1011900010B5054C204603F073F820460349044A75
:1011A000BDE8104003F041B88904002091430008D5
:1011B0009401002070B5049D0446059825611646EB
:1011C000124A2260A160A381AD0810B160610023C2
:1011D00009E0B5F1FE5F94BFA8004FF0FF3003F0C7
:1011E00029F80123606184F84C300023AB4205D01C
:1011F0006269074942F823100133F7E704F1080058
:10120000314600F013FA6060204670BDE0CF01085F
:10121000A52E5AE2406800F027BA000010B5074B2F
:1012200003600446FFF7F6FF94F84C301BB1606989
:1012300008B102F0F8FF204610BD00BFE0CF010862
:1012400010B50446FFF7EAFF204602F0D9FF20461A
:1012500010BD00F01FBA704708B5103002F098FBBF
:10126000003018BF012008BDF8B506460C461546EB
:101270008F18BC420CD006F1100002F089FB002848
:10128000F9D006F1640002F061FC04F8010BF0E70C
:101290002846F8BD08B5103002F07EFB003018BFBC
:1012A000012008BDF8B506460C4615468F18BC420D
:1012B0000CD006F1100002F06FFB0028F9D006F107
:1012C000640014F8011B02F035FCF0E72846F8BD75
:1012D00010B5044602F094FF204610BD10B5064B31
:1012E000036003F118024C330446426583655430B1
:1012F00002F00EFC204610BDC0D10108A0F1540040
:10130000FFF7ECBFA0F15800FFF7E8BF10B5044BA2
:10131000044640F8103BFFF7E1FF204610BD00BF38
:10132000F0CF010810B50446FFF7F0FF204602F0A9
:1013300067FF204610BD10B50446FFF7CFFF2046DB
:1013400002F05EFF204610BDA0F15400F3E7A0F1CB
:101350005800F0E7436AF0B5C46A23F0030323445E
:101360005A0748BF043B4FF0807203E90600A3F11F
:101370004005A3F14402A3F10C06002742F8047FC4
:10138000B242FAD1C26943F8202CC3788562012B9E
:1013900018BF024B016318BF2360F0BDA52E5AE2AF
:1013A00090F82020836A0AB1603300E0203319608E
:1013B000704710B590F82040836A0CB1603300E0AC
:1013C000203383E8060010BDFEE700F0D3BF08B16C
:1013D00000F0D0BF704700000449054AC1F1005336
:1013E00003F5BE339360D160704700BF2028002012
:1013F000980100200020002104460D46094812F003
:101400008FF812F0EBFD2046294600F073F8FFF745
:10141000E3FF0548002100F009F900F07FF812F021
:10142000E5F80000093A01089801002038B1830767
:1014300004D10378002B18BF0020704700207047AC
:1014400000B5DFF80CC000DFDFF808C000DFFEE702
:10145000F9150008111600080B4A136830B500246E
:1014600033B11D89A94203D31C46491B1B68F7E70A
:1014700089B20360018113B11D89691A19810CB108
:10148000206030BD106030BD780F0020431C11D0AB
:101490000B4B984211D80B4B1B684FF47A715A1EB4
:1014A00001FB0020B0FBF3F04FF6FE73984228BF1B
:1014B000184670474FF6FF7070474FF6FE70704742
:1014C00000093D000CD0010838B5084C257855B905
:1014D00000F008FE064B1B68FF229A702846FFF7B3
:1014E00076FF01232370002038BD00BF740F002059
:1014F000C00F002010B5EFF305845CB9EFF314843E
:10150000E40703D4BDE81040FFF7DEBFDFF808C0F2
:1015100000DF10BD822010BDC914000810B588B0CE
:10152000EFF3058434BBEFF3148404F00304022CBE
:101530000CD0032C16D0012C1ED008AC84F30988E3
:101540000F4C2478E40705D5022404E00C4C2478E1
:10155000E4070BD4032484F31488BFF34F8FBFF345
:101560006F8F03E0064C2478E40705D4DFF814C03D
:1015700000DF02E0822000E0FF2008B010BD00BFC5
:101580000AD00108651700082DE9F843894604468A
:1015900050B1036843B18588EB1C9BB2062B03D87E
:1015A00083680BB1C2682AB98020FFF710FF0020C2
:1015B000BDE8F8834363C26300F1100600F0ACFCA1
:1015C0000B4F00F1FF38291D47F82860C9B2226887
:1015D000E074C4F82C90304600F0B0FC304600F0C7
:1015E000CBFC57F82800034A836A5A63BDE8F883A6
:1015F000100D00204114000808B500F0F9FC18B1E6
:101600000138024B53F8200008BD00BF100D002028
:1016100008B5FFF70BFF38B1C07800F02BFDFF28AD
:101620000CBF8120002008BD802008BD70B5054694
:101630000C46EFF3058686B9EFF31486F60706D459
:10164000074E36781EB9BDE87040FFF79DBF2846AB
:101650002146DFF810C000DF70BD002070BD00BF64
:101660007C0F00208915000810B5EFF305841CB924
:10167000DFF808C000DF10BD822010BD1116000881
:1016800008B530B1FFF702FF80B200F0B7FD40208F
:1016900008BD08BD10B5EFF305841CB9DFF808C01C
:1016A00000DF10BD822010BD81160008830704D121
:1016B00028B10369C1681B6803E0002300E003460A
:1016C0001946184670470000F8B5134B1C681F46B2
:1016D0000CB32389013B23812389E3B90F4B26688F
:1016E0001D683E6055B12B78012B07D1284600F0CC
:1016F0005DFA18B12846214600F05CFA6379012BA7
:1017000004D120466189FFF7A7FE01E00123237180
:101710000EB13446E0E7F8BD780F0020700F0020CE
:1017200010B504460846DFF80CC000DF84E803006B
:10173000204610BDAD16000810B5044618B101686A
:1017400009B1406820B98020FFF741FE002010BD9C
:101750000378002BF7D10431890089B200F0C6F973
:10176000606810BD38B5104D2C78D4B921460F48AB
:10177000FFF7E2FF0E4B214618600E48FFF704FF0B
:101780000D4B21461860204600F03AFC0B4A1368C6
:101790009B6A203383F30988146000F011FD012354
:1017A0002B70002038BD00BF7C0F0020DC01002022
:1017B000700F0020E40100206C0F0020C00F0020FB
:1017C0002DE9F04F0C4685B08046E8B10378012B37
:1017D0001FD10846FFF75AFE02A982B2404600F028
:1017E00093F9012806D10020002C0246034618BFB9
:1017F000402003E0002002460346102002990446E0
:101800000D4616461F4608E0802405460646074654
:1018100003E0002580242E462F46204629463246E6
:101820003B4605B0BDE8F08F7FB504461646084636
:10183000EFF30581A9B101AD00B10AB180230AE03F
:101840000378012BFAD102A900F0BBF9042801D0DA
:10185000019601E01023019395E8070084E8070052
:1018600005E01146DFF80CC000DF84E807002046E1
:1018700004B070BDC11700087FB50A4B03A81968F2
:101880004FF0FF32FFF7D0FF039B102BF5D101A8DB
:101890000499FFF745FF019B002BEED00298984773
:1018A000EBE700BF700F002010B5038B427819439F
:1018B000062A04460183438B04D101EA03029A42BB
:1018C00019D105E0052A16D111EA030213D042838B
:1018D00021EA03012183204600F0D4F801232046A9
:1018E00063700821628BFFF764FD21460248BDE862
:1018F000104000F003B810BD980F002030B50278FA
:101900008C784368013AD2B22BB19D78A54202D3BC
:1019100018465B68F8E7022A4B60416003D803B1C0
:101920009960886030BD00238B6030BD02784368C9
:10193000013A59684160022A4FF0000204D809B107
:1019400088605A609A6000E05A601846704700004C
:10195000034B5A684260002282605860704700BFA3
:10196000980F0020114BDA6810B50AB19A8A0CE082
:1019700000248A1AC460D86003619A82848210BDF0
:10198000002CF5D0A38A1A4423468A42DC68F7D398
:10199000C460D860C468036104B12061521A92B275
:1019A0008282998A8A1A9A8210BD00BF800F002015
:1019B00038B5194DEB68002B2CD0AB8A013BAB82BC
:1019C000AA8A002A26D1144BDC681CB3A3683BB159
:1019D00061685960616809B18B6062600023A3602F
:1019E0000E482146FFF78AFFA38AAB826378042B57
:1019F00001BF0B4B1A68E38A9B1808BFA38201231F
:101A00006370E368EB60002213B103491961E2607F
:101A10002261D5E738BD00BF800F0020980F00205D
:101A2000FC0F0020836853B9084B5A68824202D1E8
:101A300042685A6070471346002AF6D170474268E0
:101A40005A60426802B19360704700BF980F00204F
:101A500038B58468054624B94378012B0ED1084C6B
:101A600003E023780BB9A468FBE72846FFF7DAFF09
:101A700020462946BDE83840FFF740BF38BD00BFCB
:101A8000980F0020036910B573B1C268DA60C268AC
:101A90003AB1998A848A2144998213610023C360F0
:101AA00000E09A820023036110BD000030B50E4BA8
:101AB000DD78EFF3108272B69A78AA4207D201322B
:101AC0009A701A78541CAC4208BF00241C7062B68D
:101AD000AA4204D203EBC2035860996030BD0220D1
:101AE000BDE83040FFF771BC8C0C00200123103999
:101AF000037089080023437083704360038143812E
:101B00008381C1817047000070B5858904461646FF
:101B1000002D34D043891A1D013350F822200A6069
:101B2000C2899BB29A42438104BF00234381436828
:101B3000EBB14378022B1AD1FFF7F8FE00210546DE
:101B4000FFF72EFC2389E9691A1D013344F822109E
:101B5000E2899BB29A42238108BF0023284608BF2E
:101B60002381FFF78FFF284600F006FA05E0EFF328
:101B7000108372B6013DA58162B6002070BD82B1AE
:101B80004268094B1AB11968FFF7B8FE05E01B68F7
:101B900043605A609860012343703046082100F08A
:101BA0000DFA012070BD00BFC00F0020C2898089DE
:101BB000101A704708B5FFF779FFBDE8084000F03C
:101BC00005B9838910B50446EBB14389043350F855
:101BD00023300B604378022B04D10021FFF766FF0E
:101BE00000F0F4F8EFF3108372B6A389013BA381F0
:101BF00062B66389E28901339BB29A42638104D160
:101C00000023638101E0184610BD042010BD0000D0
:101C1000426870B504460E46002A4AD04578022D27
:101C20001CD0032D0AD0012D5DD1FFF77FFE0446A5
:101C300010213246FFF7BDFB657034E0084600F026
:101C400055F8054600284ED02046FFF76FFE29467E
:101C50000446FFF7A5FB0123637024E0FFF766FE4F
:101C600000210546FFF79CFB2389E9691A1D44F80A
:101C70002210EFF3108272B6A2890132A28162B6FD
:101C8000E28901339BB29A42238104BF002323815E
:101C9000012328466B70FFF7F5FE13482946BDE87F
:101CA0007040FFF72BBE2046FFF7ECFE0E482146A2
:101CB000F5E78189C089814210D223891D1D44F82E
:101CC0002560EFF3108572B60131A18162B6013350
:101CD0009BB2834214BF2381228170BD0320BDE8E3
:101CE0007040FFF772BB70BD980F0020EFF31083B8
:101CF00072B6026803F001030AB11168016003B90A
:101D000062B61046704781420DD3436899420AD2A9
:101D1000EFF3108372B602680A60016013F00100ED
:101D200003D162B670470120704700207047000061
:101D3000034B00221A60034A1268DA80704700BF22
:101D4000B00F002018D0010808B5104B10485A6891
:101D5000104B196891421FBF1A60DA8802F1FF31F7
:101D600002681CBF52189A809A8803889A420BD145
:101D7000084B064800221A60FFF7D8FDBDE808406E
:101D800001460248FFF7BABD08BD00BF980F00200A
:101D9000FC0F0020B00F0020426810B57AB1FFF7A9
:101DA000C5FD0446FFF76EFE012161702046FFF776
:101DB000F7FA21460448BDE81040FFF79FBD42886E
:101DC0000132428010BD00BF980F0020054B1B78E8
:101DD00023B9054B4FF080521A607047034B012224
:101DE0001A707047BD0F002004ED00E0BC0F00200A
:101DF00038B5184B184D186801234370FFF7A8FD3C
:101E00006C78AA78144BEAB103EBC40358680278E3
:101E10001AB91989FFF748FD07E0012A03D199682B
:101E2000FFF7F6FE01E0FFF7B7FFEB7801349C42C5
:101E300008BF0024EFF3108372B6AB78013BAB70A0
:101E400062B6DEE75C700548FFF770FDBDE838401C
:101E500000F08AB8C00F00208C0C0020980F0020E2
:101E6000084B1A68084B1A6000225A60072243F890
:101E7000042C064A136843F07F4313604FF0FF3091
:101E8000704700BF14D0010814E000E020ED00E02E
:101E90007047000008B50B4B186801234370FFF72B
:101EA00057FDFFF751FF084A136801331360FFF72E
:101EB0007FFDFFF709FC0548FFF738FDBDE8084046
:101EC00000F052B8C00F0020FC0F0020980F002037
:101ED000084B1B68DA78012A0AD0DA6A9B6A9A42B0
:101EE00003D81268044B9A4202D00120FFF76DBA62
:101EF000704700BFC00F0020A52E5AE208B5044865
:101F0000FFF714FD034B58600223437008BD00BF68
:101F1000980F0020C00F0020064B1A88064B0120A6
:101F2000904204D853F8041F11B10130F8E70020A3
:101F3000704700BF08D001080C0D002030B5002408
:101F4000012504704570817044608460C460046140
:101F50008482C4820483448380F820401146BDE813
:101F60003040FFF7F7B90000024B5860022343707E
:101F7000704700BFC00F002070B5044618B9BDE817
:101F80007040FFF7BBBF0B4DA278286883789A4258
:101F90004FF0010607D9FFF7DBFC2B685E700223C8
:101FA0006C60637070BD667021460348BDE8704088
:101FB000FFF7A4BCC00F0020980F002038B50D46D5
:101FC000014678B14FF6FF739842074C02D0206863
:101FD000FFF7C8FC236805485D70FFF7A7FC0223E4
:101FE0006060437038BD00BFC00F0020980F002014
:101FF000024B186800B1C078704700BFC00F0020C6
:1020000010B588B9174B1B689970174843689B78BF
:102010008B4222D9134C2168FFF770FC2368012200
:102020005A70FFF76BFF18E0104B1B88984216D8C8
:1020300001380F4B53F820408CB10A4BA1701B683C
:102040009C42E2D02046FFF703FD6378012B04D1C8
:102050000548FFF76BFCFFF78FFF002010BDFF2046
:1020600010BD00BFC00F0020980F002008D001084D
:10207000100D002070B5184D18B12B68DB78984210
:1020800013D12E680024747000F0BFF8B062FFF71F
:102090001FFF2A681149D3782C60013B41F8234087
:1020A000D462FFF72BFF204670BD0D4B1B88984272
:1020B0000FD8441E094E56F8245055B12846FFF754
:1020C000B1FC2846FFF7DEFC002046F82400E86259
:1020D00070BDFF2070BD00BFC00F0020100D00209C
:1020E00008D0010810B5284B1A880023934205D266
:1020F0002649002041F823000133F7E7244C254A04
:10210000FF23E370244B1B8863622046234BE3626A
:102110000021FFF713FF224A0023042111705360AE
:10212000204A1170D360136193821F4A1460022207
:1021300062701E4A137053701D4B1B78D370FFF7EB
:10214000F7FD1C4B1A6842F47F021A601B681B02E1
:1021500003F07F43DB43B3FA83F3174A174812684F
:10216000DBB2C3F10803C2F302229A42A8BF531C98
:102170006FF08071026801FA03F303F07F4122F0EF
:102180007F430B43036010BD08D00108100D0020F1
:10219000C80F0020C913000810D001086C0D0020E2
:1021A000980F0020800F0020C00F00208C0C002012
:1021B00012D0010820ED00E00CED00E01CED00E085
:1021C00008B5FFF74DFE0C4B0028186012DB00F13C
:1021D000604000F56440FF2202701A6853119B00B2
:1021E00003F1604303F5614302F01F02012101FA8C
:1021F00002F21A6008BD00BFB80F00200321FFF7EC
:10220000DDBE000080F309887047EFF30980704756
:10221000684680F3098851480078C00714BF02203F
:10222000032080F314887047DFF834C1EFF305838F
:102230001B0618BF6047EFF31483DB0708BF604736
:1022400000DF7047DFF81CC1EFF305831B0618BFE2
:102250006047EFF31483DB0708BF604700DF704778
:10226000EFF30980816911F8021C79BB90E80F1027
:1022700010B5E047BDE81040EFF3098C8CE807008B
:10228000394B93E80600914208BF704771B11EF0C8
:10229000100F0CBF0120002081F820002CE9F00F66
:1022A000C1F828C00CB4FFF713FE0CBC1A60D2F8BA
:1022B00028C0BCE8F00F92F82000002814BF6FF08F
:1022C000120E6FF0020E8CF30988704710B5274A82
:1022D0001268914209D8264C54F8214090E80F101A
:1022E000A047EFF3098C8CE80F0010BD10B5FFF785
:1022F0007FFDBDE810401C4B93E80600914208BFEB
:102300007047EFF3098C1EF0100F0CBF0120002066
:1023100081F820002CE9F00FC1F828C00CB4FFF7B9
:10232000D7FD0CBC1A60D2F828C0BCE8F00F92F8B8
:102330002000002814BF6FF0120E6FF0020E8CF315
:102340000988704710B5FFF7A5FDFFF7D2BF10B59C
:10235000FFF79EFDFFF79EFDFFF7CBBF0AD00108F8
:10236000ED1C0008071D0008C00F00200000000041
:10237000FCFFFFFF00B585B072B60521684601F08D
:1023800047FC10E0039B019A1A60962001F046FD7D
:102390009DF90030013310D0019B039A1B04136098
:1023A000962001F03BFD9DF900300133EAD106484B
:1023B0000649342201F0E0FBE4E7034803493422F4
:1023C00001F0DAFBE8E700BF1CD0010834D00108B7
:1023D0000F4A30B493689468B4F1006F1A4604D081
:1023E000103030BC42F8201070470A4A03F5CA7515
:1023F00053F8044B42F8044FAB42F9D14FF000526E
:10240000034B10309A6030BC42F82010704700BF78
:1024100000ED00E0FCFFFF1F70B5114C2368DA6887
:10242000910715D4DA68520709D56FF004020D4EF2
:102430001A615D6A3368EB1AB3F57A7F00D270BD1A
:1024400000F022FA2368356005F57A759D6370BD4A
:102450006FF002021A6101F0CFFC2368E2E700BFCF
:102460008427002000100020244B30B51A6C244C27
:1024700042F008021A641A6C83B002F0080201925A
:10248000019A1A6A42F008021A621A6A22F00802D5
:102490001A6200F0B9FF1B4B1B4A1B681B492160E5
:1024A000A2FB03239B0C0025013B4FF0FF3220468B
:1024B0006360E2602561A560656100F08FFE3220F7
:1024C0001349FFF785FF134B4FF480225A602946CA
:1024D000204600F015FE2046042100F011FE23687E
:1024E0000D495A6A0A6002F57A729A63DA682846D8
:1024F00042F00402DA6003B030BD00BF0038024091
:10250000842700202C02002083DE1B43000C0040A7
:102510001924000800E100E000100020036870B5F5
:102520001B690021012204469847431C06460ED031
:10253000236820461B69002102229847236805462C
:1025400031461B69204600229847284670BD70BD61
:1025500002480221032201F09DB800BF002800209C
:10256000084B094A026010B403F58071002453F847
:10257000042F824208BF1C608B42F8D15DF8044BE7
:10258000704700BF00100020C8D00108F0B50E460B
:1025900085B03549054613F0E0FB20B9334B1B6885
:1025A00063B105B0F0BD2846314913F0D6FB78B9C8
:1025B0002E4B1B6843B1012005B0F0BD0190FFF721
:1025C000C7FF019805B0F0BDFFF7C2FF0120E8E7A3
:1025D0002846284913F0C1FB10B3274B002402E022
:1025E0000134402C21D053F8042F002AF8D12B7845
:1025F0003A2B32D0294602A801F016F902A801F0C0
:1026000069F990B102A801F04BF988B102A801F074
:1026100051F903464BB1194AE01C42F82430C0E797
:10262000124B1B68ABB10220BBE74FF0FF30B8E79D
:1026300002A801F025F905460028F6D0036802A893
:102640009F6801F01BF9324601462846B847034609
:10265000E0E7FFF77DFF0220A3E72846084902AA2A
:1026600013F00CFB029BD5E7A4D001080811002051
:10267000B4D00108ACD001080010002004100020E4
:10268000ECD0010802280ADDC31E074A52F82300D5
:10269000002142F8231020B103685B68184700202E
:1026A00070474FF0FF30704704100020022812DC02
:1026B0000E4B1B6870B50C4616460BB9FFF748FF6A
:1026C000A51936B114F8011B094801F08DF8AC4288
:1026D000F8D1304670BD0338064B53F8200010B1D6
:1026E00003681B6818474FF0FF307047081100203F
:1026F000002800200410002002280DDC0C4B1B6871
:1027000010B50C460BB9FFF723FF0A4801F060F83B
:1027100001232070184610BD0338074B53F82000E2
:1027200010B103689B6818474FF0FF331846704795
:10273000081100200028002004100020022807DDD6
:102740000338064B53F8200020B10368DB681847B4
:10275000012070474FF0FF30704700BF0410002089
:10276000022807DD0338064B53F8200020B1036828
:102770001B691847002070474FF0FF30704700BFBB
:1027800004100020022808B504D84FF400534B6011
:10279000002008BD10F024FF092303604FF0FF3034
:1027A00008BD00BF08B5012010F020FF074A1368DC
:1027B0001844EFF30881884202D21060184670472F
:1027C000034B0C221A604FF0FF30704728020020A4
:1027D0001C280020074C08B523680546986811F0AE
:1027E00021F82368D86811F01DF805B9FEE7FFF756
:1027F000C1FDFBE714030020002113F043B900BF23
:1028000011F04EB8DFF830D0002103E00B4B5B58DD
:10281000435004310A480B4B42189A42F6D30A4AF5
:1028200002E0002342F8043B084B9A42F9D300F03F
:10283000CBFEFDF7DDFC70470080012050FA010857
:1028400094010020FC030020FC030020202800202D
:10285000FEE7000008B50B4B1A6842F400721A60DC
:102860001A6842F480621A601A6842F480721A6030
:10287000032000F017F80F20FFF7F6FD00F012F923
:10288000002008BD003C0240024A13680133136077
:10289000704700BF04110020014B1868704700BF4B
:1028A00004110020074AD1684FF6FF030B4043F0A4
:1028B000BF6300F0070043F4003343EA0023D36012
:1028C000704700BF00ED00E02DE9F04FDFF8D0C108
:1028D000D1F800E06D4F83B000234FF0010803E012
:1028E0000133102B00F0858008FA03F202EA0E048F
:1028F0009442F5D14D6825F0100ABAF1020F7BD051
:102900004FEA43090322D0F800B002FA09F2D24399
:1029100005F0030602EA0B0B06FA09F60AF1FF3A84
:102920004BEA0606BAF1010F066040F28B80C668DA
:1029300032408E6806FA09F61643EA00C660CFD523
:10294000DCF8442042F48042CCF84420DCF84460B7
:1029500023F0030206F48046019602F1804203F060
:1029600003064FEA860B02F59C320F2606FA0BFA95
:10297000474EDDF80490D2F80890B04229EA0A09DF
:1029800074D006F58066B04272D0424EB04272D02A
:10299000414EB04274D0414EB0420CBF4FF0040AD9
:1029A0004FF0050A0AFA0BF646EA090696603A68FD
:1029B000E64315F4803F14BF224332403A607A6800
:1029C00015F4003F14BF224332407A60BA6815F410
:1029D000801F14BF22433240BA60FA68AD0203F18F
:1029E000010354BF06EA02041443102BFC607FF479
:1029F0007BAF03B0BDE8F08F4FEAD30900EB890944
:102A000003F00706D9F82020B6004FF00F0A0AFAA3
:102A100006FB22EA0B0A0A69B2404AEA0202C9F836
:102A200020204FEA43090322D0F800A002FA09F25D
:102A3000D24305F0030602EA0A0A06FA09F64AEA50
:102A400006060660866802EA060ACE6806FA09F6F5
:102A50004AEA06068660D0F804A0C5F300162AEA02
:102A6000040A9E404AEA0606466060E700269BE7A5
:102A700008FA0BF698E74FF0020A0AFA0BF693E70A
:102A80004FF0030A0AFA0BF68EE700BF003C014044
:102A90000000024000080240000C0240001002400A
:102AA00000380240704700BFF0B50368DE0783B00E
:102AB000044633D59F498A6802F00C02042A00F0CC
:102AC000EA808A6802F00C02082A00F0E0809A4B43
:102AD000984D00221A70FFF7DFFE064605E0FFF76B
:102AE000DBFE801BC82800F2C1802B689903F6D456
:102AF000914B22791A706368002B00F00881FFF770
:102B0000CBFE8C4D064605E0FFF7C6FE801BC828AD
:102B100000F2AC802B689A03F6D523689F072ED568
:102B2000844A916811F00C0F00F0A780916801F0C1
:102B30000C01082900F09D80E368002B00F0D6808E
:102B40007E4B7C4D01221A60FFF7A6FE064605E08B
:102B5000FFF7A2FE801B642800F288802B68754A6C
:102B60009807F5D51168F82090FAA0F02369B0FA1B
:102B700080F021F0F80183400B43136023681A07AB
:102B800020D4590734D4A369CBB16A4DAA6802F0A6
:102B90000C02082A78D0022B694B4FF000021A6011
:102BA00000F0C380FFF778FE2C46054604E0FFF7EF
:102BB00073FE401B642859D823689B01F7D400207A
:102BC00003B0F0BD6369002B6FD05E4B594D0122FD
:102BD0001A60FFF761FE064604E0FFF75DFE801B0A
:102BE000642843D86B6F9F07F7D523685907CAD568
:102BF000504B554D1A6C42F080521A641B6C03F016
:102C000080530193019B2B6843F480732B60FFF783
:102C100043FE064604E0FFF73FFE801B642825D8EC
:102C20002B68DA05F7D5494B424D00221A70FFF7A1
:102C300033FE064604E0FFF72FFE801B642815D8FC
:102C40002B6F9B07F7D4414B227A1A70A368002B95
:102C500000F0BE80FFF720FE364D06462B6F9F0723
:102C600091D4FFF719FE801B6428F7D9032003B025
:102C7000F0BD526856023FF55FAF2E4A12689507C5
:102C800023D5E268012A20D0012003B0F0BD4A68B4
:102C900055027FF51CAF274A126890037FF53EAFBF
:102CA0006268002A7FF43AAFEEE7264A214D1360AE
:102CB000FFF7F2FD064604E0FFF7EEFD801B6428F7
:102CC000D4D86B6F9807F7D48FE71A4DF82029688E
:102CD00090FAA0F02269B0FA80F021F0F801824069
:102CE0000A432A601A077FF54CAF6BE7134A114D70
:102CF0001360FFF7D1FD064604E0FFF7CDFD801B12
:102D00006428B3D82B689907F7D4236837E7FFF70F
:102D1000C3FD084D064604E0FFF7BEFD801BC82832
:102D2000A4D82B689B03F7D4F7E6FFF7B5FD06465A
:102D300013E000BF00380240023802400000474262
:102D400060004742800E47420070004070380240E9
:102D5000FFF7A2FD801B642888D82B68234A9901BD
:102D6000F6D447F6C07797FAA7F74FF44036B7FA8C
:102D700087F796FAA6F64FF07060B6FA86F690FAE4
:102D8000A0F0A36A656AD4F820C0D4F81CE0E16A18
:102D9000B0FA80F05B0805FA07F4013B4CEA0E0537
:102DA0002C43B3408140234311480B43012153601E
:102DB00001601446FFF770FD054605E0FFF76CFD66
:102DC000401B64283FF652AF23689A01F6D5F6E619
:102DD000FFF762FD054D06462B6F98077FF5D3AED2
:102DE000FFF75AFD801B6428F6D93FE70038024000
:102DF000600047427C4A136803F00F038B422DE9C1
:102E0000F0410C46054609D2CBB21370136803F0AB
:102E10000F038B4258D00120BDE8F08103689A0768
:102E200006D57248AA68816821F0F0010A438260E1
:102E3000DF0727D56B68012B79D09A1E012A6B4AD0
:102E4000126840F287809107E5D5684EB26822F09B
:102E500003021343B360FFF71FFD6B68012B0746A6
:102E60007CD0022B00F08880032B65D041F288389B
:102E700004E0FFF711FDC01B404565D8B36813F0AF
:102E80000C0FF6D1584BE2B21A701B6803F00F0317
:102E9000A342C0D12B685A0706D55448EA68816816
:102EA00021F4E0510A4382601B0707D54F4A296984
:102EB000936823F4604343EAC10393600F20FFF754
:102EC000D3FA0020BDE8F08103689F0706D5474884
:102ED000AA68816821F0F0010A438260DE07DAD532
:102EE0006B68012B56D09A1E012A404A12682ED9CF
:102EF000910790D53D4CA26822F003021343A360D2
:102F0000FFF7CAFC6B68012B064648D0022B54D051
:102F1000032B60D041F2883704E0FFF7BDFC801B33
:102F2000B84211D8A36813F00C0FF6D1B2E72F4ABC
:102F30001268960389D46EE741F28834B368FFF7CC
:102F4000ABFCC01BA042F9D90320BDE8F081900181
:102F5000D0D460E790013FF578AF5CE741F2883864
:102F600004E0FFF799FCC01B4045EDD8B36803F0BF
:102F70000C03042BF5D185E741F2883804E0FFF714
:102F80008BFCC01B4045DFD8B36803F00C03082B53
:102F9000F5D177E7154A12689403ABD43BE741F2C9
:102FA000883704E0FFF778FC801BB842CCD8A368D0
:102FB00003F00C03042BF5D16CE741F2883704E0F1
:102FC000FFF76AFC801BB842BED8A36803F00C036D
:102FD000082BF5D15EE741F28835A368FFF75CFC6A
:102FE000801BA842F9D9AFE7003C024000380240FC
:102FF0001C498B6803F00C03042B31D0082B2DD116
:103000004A6830B44D6802F03F0447F6C0734A681E
:10301000690293FAA3F347F6C07000EA02004ABFC0
:103020001149124AB1FBF4F20E49B3FA83F320FAC4
:1030300003F058BFB2FBF4F202FB00F34FF440324E
:10304000486892FAA2F200F44030B2FA82F2D0401C
:103050000130400030BCB3FBF0F0704703487047CC
:10306000014870470038024000127A000024F40042
:1030700010B5FFF7BDFF084BF0229B6892FAA2F251
:1030800003F0F003B2FA82F2044C0549D340E35C4A
:10309000D840086010BD00BF00380240FCD00108D5
:1030A0002C02002008B5FFF7E3FF074B4FF4E05276
:1030B0009B6892FAA2F203F4E053B2FA82F2034957
:1030C000D340CB5CD84008BD00380240FCD001089A
:1030D00008B5FFF7CDFF074B4FF460429B6892FAAB
:1030E000A2F203F46043B2FA82F20349D340CB5C0C
:1030F000D84008BD00380240FCD00108704700BF2E
:1031000003680122186A8A4020EA020010B418629B
:10311000196A094C0A43A3421A6207D01A685DF87B
:10312000044B42F0010200201A6070475A6C42F4CE
:1031300000425A64F2E700BF00000140264A0368DB
:10314000904270B434D0B0F1804F20D0A2F57C42D0
:1031500090421CD002F58062904218D002F5806245
:10316000904214D002F59A32904214D002F5806257
:10317000904210D002F5806290420CD08C680A68B0
:1031800003600123C462826270BC436170474A6875
:1031900023F070031343CA688C68096823F44073F2
:1031A000134303600123C462816270BC43617047B2
:1031B0004A68CC688E680D68096923F07003134370
:1031C00023F44073234303600123C66285620163D5
:1031D00070BC4361704700BF00000140C0B190F86F
:1031E000393010B503F0FF02044663B121460223D3
:1031F00051F8040B84F83930FFF7A0FF012384F85D
:103200003930002010BD80F83820FFF777FFEDE758
:10321000012070472DE9F0410468C7682369C5693A
:10322000D0F810C08268416923F4405E4EEA070777
:10323000064680692761E3684CEA020223F41643DC
:103240000A4323F00C032A431343E360636923F426
:1032500040730343B5F5004F6361514B39D09C4235
:1032600000F0818003F580639C427CD0FFF71AFF59
:1032700075684C4F00EB800000EB8000AD00B0FBA8
:10328000F5F5FFF70FFFA7FB053572686D0900EB39
:10329000800000EB800092002D01B0FBF2F8FFF7F8
:1032A00001FF716800EB800000EB80008900B0FB3B
:1032B000F1F1A7FB01314909642202FB11821201DD
:1032C0003232A7FB0223C3F343132B43A360BDE8B1
:1032D000F0819C4225D003F580639C4221D0FFF70A
:1032E000E1FE75682F4F00EB800000EB80006D0061
:1032F000B0FBF5F5FFF7D6FE726800EB800000EB3F
:1033000080005200B0FBF2F8FFF7CCFEA7FB0535BA
:1033100071686D0900EB80002D0100EB8000490011
:10332000C5E7FFF7D5FE75681E4F00EB800000EB88
:1033300080006D00B0FBF5F5FFF7CAFE726800EB88
:10334000800000EB80005200B0FBF2F8FFF7C0FEF7
:10335000A7FB053571686D0900EB80002D0100EBBE
:1033600080004900A3E7FFF7B3FE75680D4F00EB3F
:10337000800000EB8000AD00B0FBF5F5FFF7A8FE84
:10338000A7FB053572686D0900EB800092002D01E6
:1033900000EB8000B0FBF2F8FFF79AFE81E700BF78
:1033A000001001401F85EB51704700BF50B338B586
:1033B00090F83930044603F0FF02F3B1226802238B
:1033C00084F83930D36823F40053D3602046FFF7E4
:1033D00021FF23681A6922F490421A615A6922F087
:1033E0002A025A61DA68002142F400520125DA60AB
:1033F0000846E16384F8395038BD80F83820FFF77B
:10340000D3FFDBE7012070471848836803F00C0303
:10341000042B29D0082B0AD0154B144A1548926862
:103420001549C2F30312825CD3400B6070474368B6
:10343000416813F4800F436818BF104801F03F0241
:103440000CBF0B49B0FBF2F1C3F3881308BFB1FB0B
:10345000F2F101FB03F2054B5B68C3F30143013357
:103460005B00B2FBF3F3D8E7044BD6E70038024029
:103470000024F4000CD101082C02002000127A0074
:10348000214B224A196C70B541F0805119641B6CB4
:1034900094B003F080530193019B136823F44043DD
:1034A00043F400431360136803F440430293012381
:1034B000029A089300B1052309934FF4A8710723DA
:1034C000042202244FF48006082508A813930E94C2
:1034D0000F96109511911292FFF7E6FA034610B17C
:1034E000002014B070BD4FF4805221460F2503A870
:1034F00004940593079303950692FFF77BFCB0FABB
:1035000080F0400914B070BD0038024000700040E7
:10351000234B244A196CF0B541F0805119641B6C9F
:1035200095B003F080530193019B136823F440434B
:1035300043F400431360136803F4404302934FF0D5
:10354000030E1023002404210722012702254FF433
:10355000A87608A80C931093DDF808C0CDF820E0F9
:103560000B9709940F940E95119612911392FFF7F1
:103570009BFA034610B1204615B0F0BD4FF48052BF
:1035800029460F2403A804950593079303940692F4
:10359000FFF730FCB0FA80F0400915B0F0BD00BF75
:1035A000003802400070004008B50120FFF768FFB6
:1035B00000B108BDFFF764FF0028FAD1FFF7A8FFAC
:1035C0000028F6D1FEE700BF174A1848D2F8883025
:1035D00070B543F47003164CC2F888302368154E5A
:1035E000154D002143F001032360A160236823F0FF
:1035F000847323F480332360666023684FF0006691
:1036000023F480232360E16096600560FFF722F9D0
:10361000FFF7CAFF236A43F008032362236A23F0FB
:103620000803236270BD00BF00ED00E02C02002003
:1036300000380240103000240024F400F8B590F95E
:103640001920124B01688768C668056944691960CA
:1036500001324FF000015F609E60DD601C61996186
:1036600010D090F9182001320CBF04220C225A61AC
:103670000648FFF79BFE00B9F8BD0548BDE8F840D5
:1036800000F0B4BA08225A61F2E700BFC027002058
:103690001CD10108F0B5044685B008460E463C49E9
:1036A000154600F00DFB3B490746284600F008FB95
:1036B0000146384600F0F2FA411C206061D0364BDA
:1036C000984247D003F58063984236D0A3F5504323
:1036D000984225D030462E4900F0BEFA28462D49A2
:1036E00000F0BAFA721C03D03046012100F092FCBF
:1036F0006B1C03D02846012100F08CFC00234FF402
:103700001652A260E36023616361267665762046E7
:10371000FFF794FF214B22689A4228D005B0F0BDF4
:103720001F4B1A6C42F400321A641B6C03F4003312
:1037300002930123029A6360CCE7194B5A6C42F062
:1037400020025A645B6C03F020030393039B052360
:103750006360BFE7124B5A6C42F010025A645B6C14
:1037600003F0100301930023019A6360B2E70D4B4D
:103770000D4821461C2201241C6010F0D6FD05B026
:10378000F0BD0A480A49532200F0F6F9206896E78E
:10379000B0D3010868D30108001001400044004084
:1037A00000380240081100200028002034D1010810
:1037B00050D1010810B4044B44680448196040F823
:1037C00024205DF8044B70472C1100200C110020C0
:1037D000026813689B06FCD5024B50681A60C0F360
:1037E00008007047C0270020026813681B06FCD53C
:1037F000024BC1F3080151601A607047C0270020D6
:103800000368034A18681360C0F34010704700BF94
:10381000C02700200368034A18681360C0F3C01073
:10382000704700BFC027002038B500230360436005
:103830000A782F2A044601D0204638BD4A78002A4B
:10384000FAD0481C20604D782F2D13D085B1034647
:1038500000E06AB15D1A013323601A782F2AF8D18B
:1038600029460133236000F085FC6060204638BDA6
:103870002946F8E719460346F3E700BF006870479A
:10388000436843B110B50446184600F091FC012886
:1038900003D1606810BD00207047002010BD00BF3C
:1038A000406830B108B500F083FCB0FA80F0400900
:1038B00008BD704743684BB110B50446184600F088
:1038C00077FC28B9606818B1043810BD0020704733
:1038D000002010BD4068003018BF0120704700BFB5
:1038E00000F05EB8A0F15400FFF7FABF00F05CB83A
:1038F000A0F15400FFF7FABF38B504461D4600F0AA
:1039000023F8294604F1540000F0E0F8054B03F1D8
:10391000080103F12002543321606265A36520464B
:1039200038BD00BFB8D1010801EB4101C9004318FF
:103930005A6B1B6A2AB11BB1014424311846104747
:103940007047002BFCD0184738B504460E4B036077
:10395000251D00234FF41650206563602846A360A0
:10396000E36023616361A361237763772362636309
:10397000A363E364FFF78EFE284622460349FFF760
:1039800019FF204638BD00BF20D2010829390008A0
:103990000430FFF735BF00BF0430FFF73BBF00BF67
:1039A0000430FFF715BF00BF10B504300C46FFF719
:1039B0001BFF204610BD00BF4368416910B5044697
:1039C000194400F009F9E36A3BB1A06920B104F1A0
:1039D0001C01BDE81040184710BDA369002BFBD0A7
:1039E000BDE81040184700BF10B5064B0360044601
:1039F00000F0F8F80023A361E362204600F0E0F84D
:103A0000204610BD30D2010810B5084B03600446B3
:103A100000F0E8F80023A361E362204600F0D0F84C
:103A2000204600F0EDFB204610BD00BF30D201085B
:103A300010B5044600F0D6F80023A361E36210BD80
:103A400038B505460C4600F0CDF86C61286900F0E9
:103A5000CBF901192846BDE8384000F0BDB800BFD9
:103A600000207047F8B58E18B1420F460ED00546BB
:103A70000C4601E0A64207D02B6814F8011B5B6AD4
:103A8000284698470130F5D1E01BF8BD0C46FBE70E
:103A9000F8B58E18B1420F460ED005460C4603E02D
:103AA00004F8010BA64205D02B6828469B6A98476C
:103AB000431CF5D1E01BF8BD0C46FBE70020704726
:103AC00000207047002070470020704710B584B078
:103AD000044600F06FFB0B4B0B4903F1080000227A
:103AE0003C3384E80900626101A8224612F0A2F882
:103AF000064901A810F014F86061FEF77DFE20462B
:103B000004B010BD40D20108ECD0010884D20108F5
:103B100010B5074B03F108023C33044680E80C0063
:103B200040690FF0C9FD204600F058FB204610BD4B
:103B300040D2010838B504460D4640690FF072FEC8
:103B400028466169BDE8384010F018B810B5044641
:103B500040690FF067FE6069BDE81040FEF750BE97
:103B6000C36A014623B1806908B11C311847704708
:103B70008369002BFBD0184710B40C46134601464E
:103B8000224602485DF8044B00F030B89CD2010890
:103B900003689B68184700BF074B10B503600023FC
:103BA00043608360C360044600F022F9034920614A
:103BB00000F0A2F8204610BDD8D20108913B0008C1
:103BC00010B5044B03600446211D006900F0E8F8BD
:103BD000204610BDD8D2010803460A460069191DC7
:103BE00000F0BAB8011D006900F0DAB80FB400B5F2
:103BF000064B83B004AA1B6852F8041BD8680192D4
:103C000010F08CFD01200FF0F1FC00BF1403002028
:103C100038B50D46044600F01FF9013511D094F96E
:103C2000003001330ED06368E2681B042046136045
:103C3000012100F02BF920460021BDE8384000F0BA
:103C400021B938BD024803493422FFF795FFEAE75E
:103C50001CD0010834D00108431C10B5044619D00B
:103C600091F90030581C04D10FE011F90C3F5A1C97
:103C70000BD09C42F9D12046896800F09DF920467E
:103C80000021BDE8104000F0C5B90348BDE8104070
:103C9000FFF7ACBF10BD00BFE4D2010888420AD0D4
:103CA000421C09D0013106D008B50448FFF79EFF39
:103CB0004FF0FF3008BD704708467047F8D2010842
:103CC000421C0FD008B591F900305A1C04D10AE00B
:103CD00011F90C3F5A1C06D09842F9D14868411C92
:103CE00001D008BD70470348FFF780FF4FF0FF3059
:103CF000F7E700BF0CD3010838B5036804461B681A
:103D00000D46984763681D6038BD00BF036870B5F5
:103D1000DB68054698476B685B6883B12A681C6856
:103D200053689847201A00286A680DDC50681168AB
:103D3000836853600029F0D040688847EBE72B6820
:103D4000BDE870409B6818472B6852681B69106873
:103D5000BDE87040184700BF30B583B072B6446804
:103D60000A6065684B608DB12B68D31A002B05DAA9
:103D70000CE01C68141B002C03DB1D46AB68002BF9
:103D8000F7D1A9608B6062B603B030BD0368616093
:103D90001B690191104698472B460199F2E700BF35
:103DA00008B572B643685A688A4211D04AB193681E
:103DB0008B4208D02BB19A688A4205D01346002B5B
:103DC000F9D162B608BD13468A689A6062B608BD2A
:103DD00092685A60036822B110681B69984762B6FE
:103DE00008BD9B689847ECE703685B68184700BF0D
:103DF0000048704760D301080148FFF787BF00BF44
:103E000060D3010838B5054600F03AF9044600F0E1
:103E100037F9001BA842FAD338BD00BF4FF47A73BC
:103E200003FB00F0FFF7EEBF431C10B5044608D0BB
:103E30002046002100F0C0F804F00F040120A0404B
:103E400010BD034803492722FFF796FEF0E700BFA5
:103E5000F8D301080CD4010870B505464B1C0C467C
:103E600029700DD0C1F3031000F030F8064620464B
:103E7000FFF7DAFF06F1100318366860AB60EE60FA
:103E800070BD00BF90F9000000F0C4B838B5054619
:103E900090F90000431C0C460BD0012C04D00021EB
:103EA000BDE8384000F088B82146BDE8384000F051
:103EB00083B8044804494622FFF75EFE95F90000E6
:103EC000EBE700BF1CD001080CD4010800B587B097
:103ED000072859D8DFE800F012202E3C4A58580431
:103EE0002D4B2E481A6B42F080021A631B6B03F0B5
:103EF00080030593059B07B05DF804FB264B28481B
:103F00001A6B42F001021A631B6B03F0010300936A
:103F1000009B07B05DF804FB1F4B22481A6B42F070
:103F200002021A631B6B03F002030193019B07B0AB
:103F30005DF804FB184B1C481A6B42F004021A632C
:103F40001B6B03F004030293029B07B05DF804FBB4
:103F5000114B16481A6B42F008021A631B6B03F0F0
:103F600008030393039B07B05DF804FB0A4B10485A
:103F70001A6B42F010021A631B6B03F010030493D8
:103F8000049B07B05DF804FB0A48FFF72FFE0020F2
:103F900007B05DF804FB00BF00380240001C02407F
:103FA000000002400004024000080240000C0240F1
:103FB00000100240A8D4010830B5431C87B0054664
:103FC0000C461BD0C5F30310FFF780FF05F00F056B
:103FD00004F00F010C4A0123AB40019352F8215029
:103FE0000295C4F302120323C4F3C31401A903927C
:103FF00005940493FEF768FC07B030BD03480449FC
:104000008122FFF7B9FDDDE774D40108F8D3010878
:10401000CCD4010838B5431C04460D4614D0C4F373
:104020000310FFF753FF04F00F04C268640003237A
:10403000A34022EA0303C360022DC3688CBF00259E
:10404000A5401D43C56038BD02480349A622FFF7BD
:1040500093FDE4E7F8D30108CCD40108054B1868B8
:1040600000B17047044A0549116001221A60FEF749
:10407000FBB900BF7411002038110020000C004073
:1040800008B5064B186830B9054A06491160012287
:104090001A60FEF7E9F9034B586A08BD7411002055
:1040A00038110020000C0040034B1B685863DA688D
:1040B00042F00202DA60704738110020034B1A68A0
:1040C000D36823F00203D360704700BF381100208B
:1040D000024B1B686FF002021A6170473811002012
:1040E0008368094A026053B1084B1A68824201D1C1
:1040F00006E01A4653688342FBD143685360704719
:1041000042681A60704700BF38D501087811002056
:1041100083680C4A10B50446026053B10A4B1A6812
:10412000904201D10AE01A4653689C42FBD1636871
:104130005360204600F064F8204610BD42681A60C3
:10414000F7E700BF38D501087811002010B400232C
:10415000064C027381600460436019B1044B1A6815
:10416000426018605DF8044B704700BF38D5010805
:10417000781100200D4B70B51C6806460D4614B929
:1041800012E0646884B1A36831462A461846002BC1
:10419000F7D012F0A5FA0028F3D1A06812F098FA2F
:1041A000A842EED1204670BD002070BD78110020DD
:1041B000007B704710B5074B0446002240F8043BD3
:1041C000FFF7C4FF044B03F10802343384E80C000A
:1041D000204610BDC8D0010840D5010810B5074BD6
:1041E000044603F108023433226040F8043FFFF72D
:1041F00077FF2046FEF7B4F9204610BD40D50108F0
:1042000010F020B810B5002814BF04460124204641
:1042100010F010F830B900F01FF808B90FF079F974
:104220008047F4E710BDFFF7EBBF03460846194689
:104230000FF0C8B9FFF7E6BF0368DB0706D4437881
:1042400003B1FFDE0123437018467047002070471A
:104250000123036070470000024B1868BFF35F8FB3
:10426000704700BF7C1100204B6843604B680160C1
:104270001860486070470368426813605A6070476E
:104280002DE9F843314D2B685A1C80462A60002BDB
:1042900058D12F4C2F4B3048304FDFF8F090304E34
:1042A00001221A702368996806F070FA23682D4875
:1042B000596806F06BFA23682B48D96806F066FA4D
:1042C0003846254900F09CF82649484606F02CFC63
:1042D0003046254900F094F82349244800F090F82E
:1042E0003369776743F4005333612368C9F8787002
:1042F00099681F481F4E204F06F058FA23681F4840
:10430000596806F053FA23681D48D9681D4C06F019
:104310004DFA1749304600F065F91849384606F05D
:104320006DFC1749204600F05DF91748144900F06C
:1043300059F92369BE6743F4005323612B6866670C
:1043400001332B604046BDE8F88300BFE81600202B
:104350001403002030020020C01600203814002072
:10436000A811002054150020101400200C16002065
:10437000E813002034120020C41200208011002015
:10438000981600207C15002058130020C41400202B
:104390000D4A1368591E022B10B50446116011D145
:1043A0000A4800F080F80A4800F07DF8094800F05B
:1043B0007AF8094800F069F9084800F066F90848F9
:1043C00000F063F9204610BDE816002038140020E4
:1043D000A81100200C160020341200207C150020AB
:1043E000581300200B6810B50446036053F80C0CFA
:1043F0004B6823501146204400F0E8FC204610BDD5
:1044000070B5051D044628460E4600F0ABFC054B72
:104410002360143328466360314600F0D7FC204601
:1044200070BD00BF94D5010838B504460D4609B9E2
:10443000136800E00C4B236015B953F80C3C00E006
:10444000042323440DB9526800E0084A1A60AA0701
:1044500002D5201D00F024FCEB0702D52046FFF713
:10446000CFFE204638BD00BF94D50108A8D501086D
:1044700002210022FFF7D8BF036853F80C3C184410
:10448000F6E710B50446FFF7F3FF2046FFF7B8FE46
:10449000204610BD036853F80C3C1844F1E70A4667
:1044A0000021FFF7C1BF036853F80C3C034410B56B
:1044B0000446986F50B100F01FFB013006D123680D
:1044C00053F80C0C0121204400F020FC204610BDC4
:1044D00038B5002303700B6853F80C3C05460B44B9
:1044E0006960186F0C4608B15B6963B1236853F8C3
:1044F0000C0C2044436913B901232B7006E00421FE
:1045000000F004FC02E0FFF7CEFFEFE7284638BDDD
:1045100038B54468236853F80C3C1C440546E368EE
:104520009B0410D508F06FFB68B9A06F58B100F07C
:10453000E3FA013007D16B681A6852F80C0C0121BC
:10454000184400F0E3FB284638BD37B504460D4655
:1045500068462146FFF7BCFF9DF8003083B1236811
:1045600053F80C3C23442946986F00F0DDFA0130E3
:1045700006D1236853F80C0C0121204400F0C6FB3F
:104580006846FFF7C5FF204603B030BD38B5036865
:1045900053F80C3C03440546DC6F0CB907F056FD9C
:1045A000237F13B194F8271008E0204606F077FA2D
:1045B00023680A219B692046984701462846FFF751
:1045C000C4FFFFF770FF38BD0B6810B504460360E9
:1045D00053F80C0C4B6823501146204400F059FC52
:1045E000204610BD70B5051D044628460E4600F055
:1045F0001BFC054B2360143328466360314600F0F2
:1046000048FC204670BD00BFC4D5010838B504463B
:104610000D4609B9136800E00C4B236015B953F837
:104620000C3C00E0042323440DB9526800E0084A22
:104630001A60AA0702D5201D00F03CFBEB0702D54B
:104640002046FFF7DDFD204638BD00BFC4D5010878
:10465000D8D5010802210022FFF7D8BF036853F81C
:104660000C3C1844F6E710B50446FFF7F3FF20466C
:10467000FFF7C6FD204610BD036853F80C3C1844F4
:10468000F1E70A460021FFF7C1BF036853F80C3C6D
:10469000034410B50446D86F50B100F06BFA0130F6
:1046A00006D1236853F80C0C0121204400F0B6FB1E
:1046B000204610BD036870B5044653F80C0C204426
:1046C0000D4600F03EFB0646002D14DD236853F82E
:1046D0000C3C23443146986F00F026FA013008D193
:1046E000236853F80C0C01212044BDE8704000F011
:1046F0000DBB013DE8E770BD38B5036853F80C3CCD
:1047000003440446986F154600F01EFAA84208D0EC
:10471000236853F80C0C01212044BDE8384000F018
:10472000F5BA38BD2DE9F34104468846684621466E
:104730001646FFF7CDFE9DF80030002B36D02368DB
:1047400053F80C3C23449F68B7421EDDDD6805F03A
:10475000B005A5F120035D425D411DB92046B91B9E
:10476000FFF7A8FF236853F80C3C23445B698BB91F
:10477000204641463246FFF7BFFF5DB1236853F83C
:104780000C3C23445B6963B104E020464146324659
:10479000FFF7B2FF236853F80C3C234400229A60D1
:1047A00004E02046B91BFFF785FFF3E76846FFF7F3
:1047B000AFFE204602B0BDE8F08138B504460D4694
:1047C00039B9036853F80C0C0121204400F09EFA1B
:1047D00007E0084611F07CFF294602462046FFF715
:1047E000A1FF204638BD08B5FFF7E7FF08BD0B68FD
:1047F00053F80C3C19448B6F0360B3FA83F35B09E5
:10480000037170472DE9F04104468AB0884604A838
:104810002146FFF75DFE9DF8103043B3236853F83F
:104820000C3C2344D3F880700FB907F00FFC06AEA0
:1048300021463046FFF7DBFF236853F80C5C254424
:10484000284600F07EFA00950190CDF8088096E8A1
:104850000C0008A8394608F0AFFF9DF8243033B1AA
:10486000236853F80C0C0121204400F04FFA04A8EF
:10487000FFF74EFE20460AB0BDE8F08108B5FFF70D
:10488000C1FF08BD7047704730B500224FF0FF34BC
:104890004FF0FF35C0E900458260C26030BD82B094
:1048A0008DE80C004FF0FF334FF0FF32C0E90023DA
:1048B00000238360C36002B070470020704700206F
:1048C00070474FF0FF307047036810B55B6A0446CD
:1048D0009847431C1EBFA36813F8010BA36010BDCB
:1048E0004FF0FF3070474FF0FF3070477047704710
:1048F00030B500224FF0FF344FF0FF35C0E90045DE
:104900008260C26030BD82B08DE80C004FF0FF3392
:104910004FF0FF32C0E9002300238360C36002B080
:10492000704700207047002070474FF0FF307047FD
:104930004FF0FF3070474FF0FF30704710B5044B19
:10494000044640F81C3B06F0EDFE204610BD00BFBB
:1049500048D6010810B5044B044640F81C3B06F04D
:10496000E1FE204610BD00BF88D6010810B5044600
:10497000FFF7E4FF2046FFF743FC204610BD10B5CB
:104980000446FFF7E7FF2046FFF73AFC204610BD3C
:104990002DE9F04106460F469046002545451DDAB3
:1049A0007069B469241A0FD0C5EB08039C42A8BFF4
:1049B0001C46394622460FF0B8FC7369254427444B
:1049C00045451C447461E9DA336839785B6B3046DD
:1049D0009847013002D001350137DFE72846BDE8AE
:1049E000F0812DE9F04106460F46904600254545E9
:1049F0001FDA7069B469241AA41010D0C5EB08033B
:104A00009C42A8BF1C463946224613F0F9FF736941
:104A10002544A400274445451C447461E7DA336803
:104A200039685B6B30469847013002D00135043756
:104A3000DDE72846BDE8F081036810B55B6A0446EF
:104A40009847431C1EBFA36853F8040BA36010BD16
:104A50002DE9F04106460F469046002545451DDAF2
:104A6000B168F468641A0FD0C5EB08039C42A8BF74
:104A70001C46384622460FF058FCB36825442744AC
:104A800045451C44B460E9DA336830469B6A984770
:104A9000431C03D0387001350137DFE72846BDE8F5
:104AA000F0812DE9F04106460F4690460025454528
:104AB0001FDAB168F468641AA41010D0C5EB0803BB
:104AC0009C42A8BF1C463846224613F099FFB368A3
:104AD0002544A400274445451C44B460E7DA336804
:104AE00030469B6A9847431C03D038600135043731
:104AF000DDE72846BDE8F08103689B6918478368B5
:104B0000C1688B42024602D303689B6A184713F8B8
:104B1000010B936070478268C1688A4202D30368C0
:104B20005B6A18471078704730B542698569AA42B8
:104B300004D30368BDE830405B6B184711704269CD
:104B400001324261084630BD03681B6B1847000004
:104B500010B5074B03600023044643608360C360C5
:104B60000361436183611C300EF0BAF8204610BD2A
:104B700048D6010803689B6918478368C1688B425F
:104B8000024602D303689B6A184753F8040B9360EC
:104B900070478268C1688A4202D303685B6A18471B
:104BA0001068704703681B6B1847000010B5074B6F
:104BB00003600023044643608360C3600361436174
:104BC00083611C300EF08CF8204610BD88D6010899
:104BD000104B10B504460360002343608360C3603C
:104BE000036143618361C361036200F1240204F144
:104BF0006C012C30002340F8083C40F8043C08309D
:104C00008842F7D108236366A2660EF069F8204651
:104C100010BD00BF48D7010870B5846905460E462F
:104C200034B16368A2683046294698472468F7E79C
:104C300070BD38B50446806910B90023A36138BD42
:104C4000C3685A1EC260002BF7D10568FFF7D8FA77
:104C50002846F1E70C4B10B5002104460360FFF72E
:104C6000DBFF2046FFF7E5FFA06E04F12403984226
:104C700004D008B1FFF7D7FA0023A36604F16C0053
:104C800006F050FD204610BD48D7010810B5044677
:104C9000FFF7E0FF2046FFF7B3FA204610BD000003
:104CA00010B5034B03600446FFF7D4FF204610BD48
:104CB00058D7010810B5034B03600446FFF7CAFF3D
:104CC000204610BD68D7010810B50446FFF7E8FF7D
:104CD0002046FFF795FA204610BD10B50446FFF7B1
:104CE000E9FF2046FFF78CFA204610BD08B5836F18
:104CF0000BB941F001014161426903691A4202D0D6
:104D0000014807F0CBF908BDC2D7010808B54369CF
:104D10001943FFF7EBFF08BD70B5C46F0D460CB922
:104D200007F094F9237F4BB9204605F0B8FE2368BD
:104D3000204629469B69BDE8704018470C44607FB7
:104D400070BD90F8753010B504463BB92021FFF7CF
:104D5000E3FF012384F8740084F8753094F874003C
:104D600010BD000010B50446FFF732FF074B23606B
:104D7000002384F87430236784F87530A367E367F1
:104D8000C4F88030C4F88430204610BD58D70108DC
:104D900038B5044608460D4609F016F910B1284604
:104DA00008F0F0FDE067284609F02CF910B128461C
:104DB00008F0D8FEC4F88000284609F041F910B187
:104DC000284608F0EDFEC4F8840038BD38B5044626
:104DD0000D4600F074F804F16C012046FFF7D8FF8F
:104DE000B5FA85F10023490984F8743084F87530E8
:104DF00023672361A567616138BD000008B5C36FF3
:104E00000BB941F001014161426903691A4202D0C4
:104E1000014807F043F908BDC2D7010808B5436946
:104E20001943FFF7EBFF08BD10B50446FFF7D0FEAE
:104E3000074B236000232367636784F87830E367B8
:104E4000C4F88030C4F88430C4F88830204610BDDF
:104E500068D7010838B5044608460D4600F04AFEFA
:104E600010B1284600F074FDC4F88000284600F018
:104E70005FFE10B1284600F0A7FDC4F88400284664
:104E800000F074FE10B1284600F0BCFDC4F88800A4
:104E900038BD38B504460D4600F011F804F16C0138
:104EA0002046FFF7D7FFB5FA85F10023490963676C
:104EB00084F8783023672361E567616138BD13B5F5
:104EC000062343600023836041F20203C36004466B
:104ED00001A80DF005FF01A904F16C0006F029FC02
:104EE00001A806F01FFC02B010BD83685869704726
:104EF0008368986970478368586B704783689B6BB9
:104F00000020DAB262F30700C3F3072262F30F2036
:104F1000C3F3074262F317401B0E63F31F6082B0B6
:104F200002B070478368DB6B0020DAB262F30700DF
:104F3000C3F3072262F30F20C3F3074262F3174063
:104F40001B0E63F31F6082B002B07047836858691C
:104F500070478368986970478368586B70478368A7
:104F60009B6B0020DAB262F30700C3F3072262F3FF
:104F70000F20C3F3074262F317401B0E63F31F6059
:104F800082B002B070478368DB6B0020DAB262F354
:104F90000700C3F3072262F30F20C3F3074262F353
:104FA00017401B0E63F31F6082B002B07047836826
:104FB000586A70478368986A7047002070470020DD
:104FC000704770470020914204D251F8043B03EB34
:104FD0007060F8E7704713B58B6801AA99680446BA
:104FE00007F010F8204602B010BD13B58B6801AA77
:104FF0009968044607F006F8204602B010BD13B5C4
:105000008B6801AA9968044606F0FCFF204602B0AE
:1050100010BD13B58B6801AAD969044607F098FB47
:10502000204602B010BD13B58B6801AA596A044628
:1050300007F08EFB204602B010BD13B58B6801AAA5
:10504000D96A044607F084FB204602B010BD13B5B0
:105050008B6801AAD969044607F07AFB204602B0A2
:1050600010BD13B58B6801AA596A044607F070FB9E
:10507000204602B010BD13B58B6801AAD96A044658
:1050800007F066FB204602B010BD13B58B6801AA7D
:105090005969044607F05CFB204602B010BD13B509
:1050A0008B6801AAD969044607F052FB204602B07A
:1050B00010BD00000D4B10B5036090F86C30044635
:1050C0007BB1806808B1FFF7AEF8E06908B1FFF77F
:1050D000AAF8606A08B1FFF7A6F8E06A08B1FFF71E
:1050E000A2F8204606F0A9FA204610BDB0DA010861
:1050F0000D4B10B5036090F86C3004467BB18068AE
:1051000008B1FFF790F8E06908B1FFF78CF8606A22
:1051100008B1FFF788F8E06A08B1FFF784F8204685
:1051200006F08BFA204610BDC0DA010810B5034B1B
:105130000360044606F081FA204610BD40DA0108FB
:1051400010B5034B0360044606F077FA204610BD05
:1051500058DA01080B4B10B5036090F8243104466F
:105160005BB1806808B1FFF75EF8606908B1FFF7CE
:105170005AF8E06908B1FFF756F8204606F05DFAE4
:10518000204610BDD0DA010810B5034B0360044679
:1051900006F053FA204610BDF0D8010810B5034BB5
:1051A0000360044606F049FA204610BD30D90108D4
:1051B00010B5034B0360044606F03FFA204610BDCD
:1051C00060D9010810B5034B0360044606F035FAB8
:1051D000204610BD70DA010810B5034B0360044689
:1051E00006F02BFA204610BD88DA010810B50446F7
:1051F000FFF760FF2046FFF703F8204610BD10B50B
:105200000446FFF775FF2046FEF7FAFF204610BD63
:1052100010B50446FFF78AFF2046FEF7F1FF20464F
:1052200010BD10B50446FFF78BFF2046FEF7E8FFE0
:10523000204610BD10B50446FFF78CFF2046FEF750
:10524000DFFF204610BD10B50446FFF79DFF204646
:10525000FEF7D6FF204610BD10B50446FFF79EFFAF
:105260002046FEF7CDFF204610BD10B50446FFF7DF
:105270009FFF2046FEF7C4FF204610BD10B5044630
:10528000FFF7A0FF2046FEF7BBFF204610BD10B57C
:105290000446FFF7A1FF2046FEF7B2FF204610BDEF
:1052A00010B5054B044640F8083B05F0A7FB204627
:1052B00006F0C3F9204610BDF0D9010810B5044628
:1052C000FFF7EEFF2046FEF79BFF204610BD0000D3
:1052D00010B5054B044640F8083B05F08FFB20460F
:1052E00006F0ABF9204610BD68D8010810B5044699
:1052F000FFF7EEFF2046FEF783FF204610BD0000BB
:1053000038B50D4B03600569044606F0BDF98542CA
:1053100003D015B12846FEF786FFA06810B10368D8
:105320005B68984704F10C0005F068FB204606F026
:1053300084F9204638BD00BF70D9010810B5044675
:10534000FFF7DEFF2046FEF75BFF204610BD2DE98C
:10535000FF411C46804603AB02A807F00FFA214626
:1053600003A80A9A01AB07F009FA029D039C55F8BD
:105370000C7C54F80C6C05EB870704EB8606404662
:105380002946224606F0A0FAA8B9284613F098F953
:1053900005EB8005204613F093F9BD4204EB800035
:1053A00004D1841B18BF4FF0FF3407E0B04204D093
:1053B0000435041DE3E7044600E0012403A806F0D9
:1053C0004FFF02A806F04CFF204604B0BDE8F08174
:1053D0002DE9F7431C46294B036015466B460746EB
:1053E000894601A81146224607F0C8F9641B019EB0
:1053F0006410B4F1FE5F56F80C3C94BFA0004FF06F
:10540000FF3006EB8308FEF715FF05463246484697
:105410002946234606F064FAA042024613D3441CF0
:105420002846FEF700FFB4F1FE5F94BFA0004FF0E6
:10543000FF30FEF7FFFE0546324648462946234622
:1054400006F04EFA02462946384607F091F83046F3
:1054500013F036F906EB8000404505D0061D00210B
:10546000384607F01AF9D1E72846FEF7DCFE01A816
:1054700006F0F6FE384603B0BDE8F083841700203E
:105480000A2807D82F2917D93030814214D2A1F128
:1054900030007047A1F1300009280FD9A1F1610354
:1054A000052B02D8A1F157007047A1F14103052B4C
:1054B00002D8A1F1370070474FF0FF30704700006D
:1054C00008B4F3B50F46042000210EF05BFE164928
:1054D000064610F042FC80B1304611F0F9F8451C48
:1054E0002846FEF7A7FE31462A4604460EF01DFF69
:1054F0000D4904200EF046FE00E0044608AA384696
:105500000799019212F068FB054634B10420214648
:105510000EF038FE2046FEF786FE284602B0BDE8B3
:10552000F04001B0704700BF23E0010810B5003221
:1055300018BF0122054B81600021044642600360D0
:105540000A4605F0FDFF204610BD00BFB8D901088E
:1055500003689B6818470368DB68184710B50B6839
:1055600004461B699847204610BD10B50B680446D9
:105570005B699847204610BD10B50B6804469B69CF
:105580009847204610BD10B50B680446DB69984764
:10559000204610BD03681B6A1847036807B55B6A9D
:1055A00098470346DAB2002062F30700C3F30722EC
:1055B00062F30F20C3F3074262F317401B0E63F33D
:1055C0001F6003B05DF804FB036807B59B6A98474A
:1055D0000346DAB2002062F30700C3F3072262F346
:1055E0000F20C3F3074262F317401B0E63F31F60E3
:1055F00003B05DF804FB000010B5003218BF0122B3
:10560000054B816000210446426003600A4605F0B4
:105610004DFF204610BD00BF80D9010803689B687C
:1056200018470368DB68184710B50B6804461B6908
:105630009847204610BD10B50B6804465B69984733
:10564000204610BD10B50B6804469B69984720465C
:1056500010BD10B50B680446DB699847204610BDA5
:1056600003681B6A1847036807B55B6A98470346D7
:10567000DAB2002062F30700C3F3072262F30F20BF
:10568000C3F3074262F317401B0E63F31F6003B0BE
:105690005DF804FB036807B59B6A98470346DAB2D6
:1056A000002062F30700C3F3072262F30F20C3F365
:1056B000074262F317401B0E63F31F6003B05DF8EF
:1056C00004FB000000310B4A026018BF01210022D8
:1056D00041608260C260027442618261C2610262A2
:1056E00042628262C262026342638263C26380F882
:1056F0006C207047B0DA010800310B4A026018BF15
:105700000121002241608260C260027442618261B4
:10571000C261026242628262C26202634263826367
:10572000C26380F86C207047C0DA010810B50032FF
:1057300018BF0122044B42600446036081600021CF
:105740000DF064FB204610BDC8D8010803689B68B3
:1057500018470368DB68184710B50B6804461B69D7
:105760009847204610BD10B50B6804465B69984702
:10577000204610BD10B50B6804469B69984720462B
:1057800010BD00000031094A026018BF012100224B
:1057900041608260C260027442618261C2610262E1
:1057A0004262826280F82421704700BFD0DA01088B
:1057B000003218BF0122074B10B5426003608160C0
:1057C000044605F061FF00212061204605F0D8FB6A
:1057D000204610BD70D9010883689B680B60836800
:1057E000DB684B60704783681B690B6083685B698B
:1057F0004B60704783689B690B608368DB694B6013
:1058000070478368DB6A0B6083681B6B4B6083683F
:105810005B6B8B6083689B6BCB608368DB6B0B611E
:1058200083681B6C4B6183685B6C8B61704783681A
:105830009B6C0B608368DB6C4B6083681B6D8B60BB
:1058400083685B6DCB6083689B6D0B618368DB6DE8
:105850004B6183681B6E8B61704783685B6E0B6066
:1058600083689B6E4B608368DB6E8B6083681B6F05
:10587000CB6083685B6F0B6183689B6F4B61836850
:10588000DB6F8B618368D3F88030CB618368D3F89A
:1058900084300B628368D3F888304B628368D3F816
:1058A0008C308B628368D3F89030CB62704783680A
:1058B000D3F894300B608368D3F898304B608368DA
:1058C000D3F89C308B608368D3F8A030CB608368BA
:1058D000D3F8A4300B618368D3F8A8304B61836898
:1058E000D3F8AC308B618368D3F8B030CB61836878
:1058F000D3F8B4300B628368D3F8B8304B62836856
:10590000D3F8BC308B628368D3F8C030CB62704769
:10591000003110B518BF0121044B416003600446FB
:1059200005F0A6FEA060204610BD00BFF0D901081A
:10593000003110B518BF0121044B416003600446DB
:1059400005F096FEA060204610BD00BF68D8010893
:1059500010B504460A4805F01FFF23685A689B6883
:10596000984202D252F8200008B906F06FFB0549B0
:10597000054A002307F063FA08B907F05DFA10BD85
:105980004C17002074E601087CE0010810B50446BD
:105990000A4805F001FF23685A689B68984202D2C2
:1059A00052F8200008B906F051FB0549054A0023CA
:1059B00007F045FA08B907F03FFA10BD3817002084
:1059C00074E601085CDE010810B504460A4805F0DB
:1059D000E3FE23685A689B68984202D252F820007E
:1059E00008B906F033FB0549054A002307F027FAFA
:1059F00008B907F021FA10BD3017002074E601083D
:105A000098DB010810B504460A4805F0C5FE236876
:105A10005A689B68984202D252F8200008B906F0F2
:105A200015FB0549054A002307F009FA08B907F0F4
:105A300003FA10BD3417002074E6010838DC0108B1
:105A400010B504460A4805F0A7FE23685A689B680B
:105A5000984202D252F8200008B906F0F7FA054938
:105A6000054A002307F0EBF908B907F0E5F910BD86
:105A70004417002074E6010874DD010810B50446DF
:105A80000A4805F089FE23685A689B68984202D24A
:105A900052F8200008B906F0D9FA0549054A002352
:105AA00007F0CDF908B907F0C7F910BD4817002075
:105AB00074E6010878DB010810B504460A4805F0D1
:105AC0006BFE23685A689B68984202D252F8200005
:105AD00008B906F0BBFA0549054A002307F0AFF9FB
